{
  "address": "0xE8c060eee52A8dD92422153667A64469333D021F",
  "abi": [
    {
      "inputs": [
        {
          "internalType": "address",
          "name": "_owner",
          "type": "address"
        },
        {
          "internalType": "address",
          "name": "_pTAO",
          "type": "address"
        },
        {
          "internalType": "address",
          "name": "_TAO",
          "type": "address"
        },
        {
          "internalType": "address",
          "name": "_BUSD",
          "type": "address"
        },
        {
          "internalType": "address",
          "name": "_treasury",
          "type": "address"
        }
      ],
      "stateMutability": "nonpayable",
      "type": "constructor"
    },
    {
      "inputs": [],
      "name": "BUSD",
      "outputs": [
        {
          "internalType": "address",
          "name": "",
          "type": "address"
        }
      ],
      "stateMutability": "view",
      "type": "function"
    },
    {
      "inputs": [],
      "name": "TAO",
      "outputs": [
        {
          "internalType": "address",
          "name": "",
          "type": "address"
        }
      ],
      "stateMutability": "view",
      "type": "function"
    },
    {
      "inputs": [
        {
          "internalType": "address",
          "name": "",
          "type": "address"
        }
      ],
      "name": "amountClaimed",
      "outputs": [
        {
          "internalType": "uint256",
          "name": "",
          "type": "uint256"
        }
      ],
      "stateMutability": "view",
      "type": "function"
    },
    {
      "inputs": [
        {
          "internalType": "uint256",
          "name": "_amountToExercise",
          "type": "uint256"
        }
      ],
      "name": "exercisepTAO",
      "outputs": [
        {
          "internalType": "bool",
          "name": "",
          "type": "bool"
        }
      ],
      "stateMutability": "nonpayable",
      "type": "function"
    },
    {
      "inputs": [
        {
          "internalType": "address",
          "name": "_vester",
          "type": "address"
        }
      ],
      "name": "getpTAOAbleToClaim",
      "outputs": [
        {
          "internalType": "uint256",
          "name": "",
          "type": "uint256"
        }
      ],
      "stateMutability": "view",
      "type": "function"
    },
    {
      "inputs": [
        {
          "internalType": "address",
          "name": "",
          "type": "address"
        }
      ],
      "name": "maxAllowedToClaim",
      "outputs": [
        {
          "internalType": "uint256",
          "name": "",
          "type": "uint256"
        }
      ],
      "stateMutability": "view",
      "type": "function"
    },
    {
      "inputs": [],
      "name": "owner",
      "outputs": [
        {
          "internalType": "address",
          "name": "",
          "type": "address"
        }
      ],
      "stateMutability": "view",
      "type": "function"
    },
    {
      "inputs": [],
      "name": "pTAO",
      "outputs": [
        {
          "internalType": "address",
          "name": "",
          "type": "address"
        }
      ],
      "stateMutability": "view",
      "type": "function"
    },
    {
      "inputs": [
        {
          "internalType": "address",
          "name": "",
          "type": "address"
        }
      ],
      "name": "percentCanVest",
      "outputs": [
        {
          "internalType": "uint256",
          "name": "",
          "type": "uint256"
        }
      ],
      "stateMutability": "view",
      "type": "function"
    },
    {
      "inputs": [
        {
          "internalType": "address",
          "name": "_vester",
          "type": "address"
        },
        {
          "internalType": "uint256",
          "name": "_amountCanClaim",
          "type": "uint256"
        },
        {
          "internalType": "uint256",
          "name": "_rate",
          "type": "uint256"
        }
      ],
      "name": "setTerms",
      "outputs": [
        {
          "internalType": "bool",
          "name": "",
          "type": "bool"
        }
      ],
      "stateMutability": "nonpayable",
      "type": "function"
    },
    {
      "inputs": [],
      "name": "treasury",
      "outputs": [
        {
          "internalType": "address",
          "name": "",
          "type": "address"
        }
      ],
      "stateMutability": "view",
      "type": "function"
    }
  ],
  "transactionHash": "0x0eb9a9c86416954e358112df478979b9ccdcbaaeb124f78c56f56f664acd74d2",
  "args": [
    "0xcc77159E0C7ca174672a84794Dfed8AA2E52c072",
    "0x06f41963911cEF3e1819A2c605C3661267A5d6F5",
    "0x7065DdA3f8Ec5F6C155648BdeE4420c0525D93C6",
    "0xe9e7CEA3DedcA5984780Bafc599bD69ADd087D56",
    "0x7f07D3D8415F7eA3B37ba5CC9EF43a0B4bc030dB"
  ],
  "solcInputHash": "5c375fa498d4445acee619baacfd177a",
  "bytecode": "0x608060405234801561001057600080fd5b50604051610db5380380610db5833981810160405260a081101561003357600080fd5b508051602082015160408301516060840151608090940151600380546001600160a01b03199081166001600160a01b0395861617909155600680548216958516959095179094556004805485169284169290921790915560058054841694831694909417909355600780549092169216919091179055610cfd806100b86000396000f3fe608060405234801561001057600080fd5b50600436106100a95760003560e01c806361d027b31161007157806361d027b31461017e578063672e2e7a146101865780638c0d3886146101ac5780638da5cb5b146101c9578063d7e1ea17146101d1578063f850d7c2146101f7576100a9565b806316e17852146100ae5780631d7d97a1146100d25780634430f4b21461010a57806344a6a61214610130578063484f4ea914610176575b600080fd5b6100b66101ff565b604080516001600160a01b039092168252519081900360200190f35b6100f8600480360360208110156100e857600080fd5b50356001600160a01b031661020e565b60408051918252519081900360200190f35b6100f86004803603602081101561012057600080fd5b50356001600160a01b03166102d4565b6101626004803603606081101561014657600080fd5b506001600160a01b0381351690602081013590604001356102e6565b604080519115158252519081900360200190f35b6100b6610444565b6100b6610453565b6100f86004803603602081101561019c57600080fd5b50356001600160a01b0316610462565b610162600480360360208110156101c257600080fd5b5035610474565b6100b6610720565b6100f8600480360360208110156101e757600080fd5b50356001600160a01b031661072f565b6100b6610741565b6004546001600160a01b031681565b6001600160a01b03808216600090815260016020908152604080832054838352818420546004805484516318160ddd60e01b8152945196976102ce9794966102c896612710966102c296633b9aca00966102bc96919591909116936318160ddd9380830193919290829003018186803b15801561028a57600080fd5b505afa15801561029e573d6000803e3d6000fd5b505050506040513d60208110156102b457600080fd5b505190610750565b90610750565b906107b0565b906107f2565b92915050565b60026020526000908152604090205481565b6006546000906001600160a01b0316331461033e576040805162461bcd60e51b815260206004820152601360248201527229b2b73232b91034b9903737ba1037bbb732b960691b604482015290519081900360640190fd5b6001600160a01b0384166000908152600260205260409020548310156103ab576040805162461bcd60e51b815260206004820152601d60248201527f63616e6e6f74206c6f77657220616d6f756e7420636c61696d61626c65000000604482015290519081900360640190fd5b6001600160a01b038416600090815260208190526040902054821015610418576040805162461bcd60e51b815260206004820152601960248201527f63616e6e6f74206c6f7765722076657374696e67207261746500000000000000604482015290519081900360640190fd5b506001600160a01b03929092166000908152600260209081526040808320939093558190522055600190565b6005546001600160a01b031681565b6007546001600160a01b031681565b60006020819052908152604090205481565b600080610484836102c83361020e565b10156104cf576040805162461bcd60e51b8152602060048201526015602482015274139bdd08195b9bdd59da08151053c81d995cdd1959605a1b604482015290519081900360640190fd5b3360009081526001602090815260408083205460029092528220546104f99185916102c8916107f2565b101561053f576040805162461bcd60e51b815260206004820152601060248201526f086d8c2d2dacac840deeccae440dac2f60831b604482015290519081900360640190fd5b600554610557906001600160a01b0316333085610834565b6005546007546040805163095ea7b360e01b81526001600160a01b039283166004820152602481018690529051919092169163095ea7b39160448083019260209291908290030181600087803b1580156105b057600080fd5b505af11580156105c4573d6000803e3d6000fd5b505050506040513d60208110156105da57600080fd5b505060075460408051637750446f60e01b81526004810185905290516001600160a01b0390921691637750446f916024808201926020929091908290030181600087803b15801561062a57600080fd5b505af115801561063e573d6000803e3d6000fd5b505050506040513d602081101561065457600080fd5b50506003546040805163079cc67960e41b81523360048201526024810185905290516001600160a01b03909216916379cc67909160448082019260009290919082900301818387803b1580156106a957600080fd5b505af11580156106bd573d6000803e3d6000fd5b5050336000908152600160205260409020546106dc9250905083610894565b336000908152600160205260408120919091556106fd83633b9aca006107b0565b600454909150610717906001600160a01b031633836108ee565b50600192915050565b6006546001600160a01b031681565b60016020526000908152604090205481565b6003546001600160a01b031681565b60008261075f575060006102ce565b8282028284828161076c57fe5b04146107a95760405162461bcd60e51b8152600401808060200182810382526021815260200180610c7d6021913960400191505060405180910390fd5b9392505050565b60006107a983836040518060400160405280601a81526020017f536166654d6174683a206469766973696f6e206279207a65726f000000000000815250610945565b60006107a983836040518060400160405280601e81526020017f536166654d6174683a207375627472616374696f6e206f766572666c6f7700008152506109e7565b604080516001600160a01b0380861660248301528416604482015260648082018490528251808303909101815260849091019091526020810180516001600160e01b03166323b872dd60e01b17905261088e908590610a41565b50505050565b6000828201838110156107a9576040805162461bcd60e51b815260206004820152601b60248201527f536166654d6174683a206164646974696f6e206f766572666c6f770000000000604482015290519081900360640190fd5b604080516001600160a01b038416602482015260448082018490528251808303909101815260649091019091526020810180516001600160e01b031663a9059cbb60e01b179052610940908490610a41565b505050565b600081836109d15760405162461bcd60e51b81526004018080602001828103825283818151815260200191508051906020019080838360005b8381101561099657818101518382015260200161097e565b50505050905090810190601f1680156109c35780820380516001836020036101000a031916815260200191505b509250505060405180910390fd5b5060008385816109dd57fe5b0495945050505050565b60008184841115610a395760405162461bcd60e51b815260206004820181815283516024840152835190928392604490910191908501908083836000831561099657818101518382015260200161097e565b505050900390565b6060610a96826040518060400160405280602081526020017f5361666545524332303a206c6f772d6c6576656c2063616c6c206661696c6564815250856001600160a01b0316610af29092919063ffffffff16565b80519091501561094057808060200190516020811015610ab557600080fd5b50516109405760405162461bcd60e51b815260040180806020018281038252602a815260200180610c9e602a913960400191505060405180910390fd5b6060610b018484600085610b09565b949350505050565b6060610b1485610c76565b610b65576040805162461bcd60e51b815260206004820152601d60248201527f416464726573733a2063616c6c20746f206e6f6e2d636f6e7472616374000000604482015290519081900360640190fd5b60006060866001600160a01b031685876040518082805190602001908083835b60208310610ba45780518252601f199092019160209182019101610b85565b6001836020036101000a03801982511681845116808217855250505050505090500191505060006040518083038185875af1925050503d8060008114610c06576040519150601f19603f3d011682016040523d82523d6000602084013e610c0b565b606091505b50915091508115610c1f579150610b019050565b805115610c2f5780518082602001fd5b60405162461bcd60e51b815260206004820181815286516024840152865187939192839260440191908501908083836000831561099657818101518382015260200161097e565b3b15159056fe536166654d6174683a206d756c7469706c69636174696f6e206f766572666c6f775361666545524332303a204552433230206f7065726174696f6e20646964206e6f742073756363656564a2646970667358221220c3f48009a9f2175abc7710226beb95d200009ba2261ab43cbf7247d6714fd3af64736f6c63430007040033",
  "devdoc": {
    "kind": "dev",
    "methods": {},
    "version": 1
  },
  "userdoc": {
    "kind": "user",
    "methods": {},
    "version": 1
  },
  "storageLayout": {
    "storage": [
      {
        "astId": 1129,
        "contract": "contracts/vested/ExercisePTAO.sol:ExercisePTAO",
        "label": "percentCanVest",
        "offset": 0,
        "slot": "0",
        "type": "t_mapping(t_address,t_uint256)"
      },
      {
        "astId": 1133,
        "contract": "contracts/vested/ExercisePTAO.sol:ExercisePTAO",
        "label": "amountClaimed",
        "offset": 0,
        "slot": "1",
        "type": "t_mapping(t_address,t_uint256)"
      },
      {
        "astId": 1137,
        "contract": "contracts/vested/ExercisePTAO.sol:ExercisePTAO",
        "label": "maxAllowedToClaim",
        "offset": 0,
        "slot": "2",
        "type": "t_mapping(t_address,t_uint256)"
      },
      {
        "astId": 1139,
        "contract": "contracts/vested/ExercisePTAO.sol:ExercisePTAO",
        "label": "pTAO",
        "offset": 0,
        "slot": "3",
        "type": "t_address"
      },
      {
        "astId": 1141,
        "contract": "contracts/vested/ExercisePTAO.sol:ExercisePTAO",
        "label": "TAO",
        "offset": 0,
        "slot": "4",
        "type": "t_address"
      },
      {
        "astId": 1143,
        "contract": "contracts/vested/ExercisePTAO.sol:ExercisePTAO",
        "label": "BUSD",
        "offset": 0,
        "slot": "5",
        "type": "t_address"
      },
      {
        "astId": 1145,
        "contract": "contracts/vested/ExercisePTAO.sol:ExercisePTAO",
        "label": "owner",
        "offset": 0,
        "slot": "6",
        "type": "t_address"
      },
      {
        "astId": 1147,
        "contract": "contracts/vested/ExercisePTAO.sol:ExercisePTAO",
        "label": "treasury",
        "offset": 0,
        "slot": "7",
        "type": "t_address"
      }
    ],
    "types": {
      "t_address": {
        "encoding": "inplace",
        "label": "address",
        "numberOfBytes": "20"
      },
      "t_mapping(t_address,t_uint256)": {
        "encoding": "mapping",
        "key": "t_address",
        "label": "mapping(address => uint256)",
        "numberOfBytes": "32",
        "value": "t_uint256"
      },
      "t_uint256": {
        "encoding": "inplace",
        "label": "uint256",
        "numberOfBytes": "32"
      }
    }
  }
}