{
  "address": "0xbC9072B1c6A1120810Ccb9b2917C64a3740F06C5",
  "abi": [
    {
      "inputs": [],
      "stateMutability": "nonpayable",
      "type": "constructor"
    },
    {
      "anonymous": false,
      "inputs": [
        {
          "indexed": true,
          "internalType": "address",
          "name": "previousOwner",
          "type": "address"
        },
        {
          "indexed": true,
          "internalType": "address",
          "name": "newOwner",
          "type": "address"
        }
      ],
      "name": "OwnershipTransferred",
      "type": "event"
    },
    {
      "anonymous": false,
      "inputs": [
        {
          "indexed": true,
          "internalType": "address",
          "name": "activator",
          "type": "address"
        },
        {
          "indexed": false,
          "internalType": "uint256",
          "name": "timestamp",
          "type": "uint256"
        }
      ],
      "name": "SaleEnded",
      "type": "event"
    },
    {
      "anonymous": false,
      "inputs": [
        {
          "indexed": true,
          "internalType": "address",
          "name": "activator",
          "type": "address"
        },
        {
          "indexed": false,
          "internalType": "uint256",
          "name": "timestamp",
          "type": "uint256"
        }
      ],
      "name": "SaleStarted",
      "type": "event"
    },
    {
      "anonymous": false,
      "inputs": [
        {
          "indexed": true,
          "internalType": "address",
          "name": "approver",
          "type": "address"
        },
        {
          "indexed": true,
          "internalType": "address",
          "name": "seller",
          "type": "address"
        },
        {
          "indexed": true,
          "internalType": "string",
          "name": "message",
          "type": "string"
        }
      ],
      "name": "SellerApproval",
      "type": "event"
    },
    {
      "inputs": [
        {
          "internalType": "address",
          "name": "newBuyer_",
          "type": "address"
        }
      ],
      "name": "approveBuyer",
      "outputs": [
        {
          "internalType": "bool",
          "name": "",
          "type": "bool"
        }
      ],
      "stateMutability": "nonpayable",
      "type": "function"
    },
    {
      "inputs": [
        {
          "internalType": "address[]",
          "name": "newBuyers_",
          "type": "address[]"
        }
      ],
      "name": "approveBuyers",
      "outputs": [
        {
          "internalType": "uint256",
          "name": "",
          "type": "uint256"
        }
      ],
      "stateMutability": "nonpayable",
      "type": "function"
    },
    {
      "inputs": [
        {
          "internalType": "address",
          "name": "",
          "type": "address"
        }
      ],
      "name": "approvedBuyers",
      "outputs": [
        {
          "internalType": "bool",
          "name": "",
          "type": "bool"
        }
      ],
      "stateMutability": "view",
      "type": "function"
    },
    {
      "inputs": [],
      "name": "busd",
      "outputs": [
        {
          "internalType": "contract IERC20",
          "name": "",
          "type": "address"
        }
      ],
      "stateMutability": "view",
      "type": "function"
    },
    {
      "inputs": [
        {
          "internalType": "uint256",
          "name": "amountPaid_",
          "type": "uint256"
        }
      ],
      "name": "buypTao",
      "outputs": [
        {
          "internalType": "bool",
          "name": "",
          "type": "bool"
        }
      ],
      "stateMutability": "nonpayable",
      "type": "function"
    },
    {
      "inputs": [
        {
          "internalType": "address",
          "name": "pTao_",
          "type": "address"
        },
        {
          "internalType": "address",
          "name": "busd_",
          "type": "address"
        },
        {
          "internalType": "uint256",
          "name": "pTaoPrice_",
          "type": "uint256"
        },
        {
          "internalType": "address",
          "name": "saleProceedsAddress_",
          "type": "address"
        }
      ],
      "name": "initialize",
      "outputs": [],
      "stateMutability": "nonpayable",
      "type": "function"
    },
    {
      "inputs": [],
      "name": "initialized",
      "outputs": [
        {
          "internalType": "bool",
          "name": "",
          "type": "bool"
        }
      ],
      "stateMutability": "view",
      "type": "function"
    },
    {
      "inputs": [],
      "name": "owner",
      "outputs": [
        {
          "internalType": "address",
          "name": "",
          "type": "address"
        }
      ],
      "stateMutability": "view",
      "type": "function"
    },
    {
      "inputs": [],
      "name": "pTao",
      "outputs": [
        {
          "internalType": "contract IERC20",
          "name": "",
          "type": "address"
        }
      ],
      "stateMutability": "view",
      "type": "function"
    },
    {
      "inputs": [],
      "name": "pTaoPrice",
      "outputs": [
        {
          "internalType": "uint256",
          "name": "",
          "type": "uint256"
        }
      ],
      "stateMutability": "view",
      "type": "function"
    },
    {
      "inputs": [],
      "name": "renounceOwnership",
      "outputs": [],
      "stateMutability": "nonpayable",
      "type": "function"
    },
    {
      "inputs": [
        {
          "internalType": "uint256",
          "name": "newpTaoPrice_",
          "type": "uint256"
        }
      ],
      "name": "setpTaoPrice",
      "outputs": [
        {
          "internalType": "uint256",
          "name": "",
          "type": "uint256"
        }
      ],
      "stateMutability": "nonpayable",
      "type": "function"
    },
    {
      "inputs": [
        {
          "internalType": "address",
          "name": "newOwner",
          "type": "address"
        }
      ],
      "name": "transferOwnership",
      "outputs": [],
      "stateMutability": "nonpayable",
      "type": "function"
    },
    {
      "inputs": [
        {
          "internalType": "address",
          "name": "tokenToWithdraw_",
          "type": "address"
        }
      ],
      "name": "withdrawTokens",
      "outputs": [
        {
          "internalType": "bool",
          "name": "",
          "type": "bool"
        }
      ],
      "stateMutability": "nonpayable",
      "type": "function"
    }
  ],
  "transactionHash": "0x996796672f7006841528d799417908ff5feda03fc32fbc05e98b2b98647234eb",
  "args": [],
  "solcInputHash": "d36f4ef78a162462663a2c0a6d633959",
  "bytecode": "0x608060405234801561001057600080fd5b50600061002561007460201b6108801760201c565b600080546001600160a01b0319166001600160a01b0383169081178255604051929350917f8be0079c531659141344cd1fd0a4f28419497f9722a3daafe3b4186f6b6457e0908290a350610078565b3390565b610d1c806100876000396000f3fe608060405234801561001057600080fd5b50600436106100ea5760003560e01c806349df728c1161008c578063a5f523d411610066578063a5f523d41461023c578063be20309414610262578063c3664cdc1461029e578063f2fde38b146102bb576100ea565b806349df728c14610204578063715018a61461022a5780638da5cb5b14610234576100ea565b80633ca5b234116100c85780633ca5b2341461015e57806340edcbdd1461016657806341c91cb51461018c578063467d5fcb146101fc576100ea565b80630b2772a4146100ef578063158ef93e146101135780631d07b0961461012f575b600080fd5b6100f76102e1565b604080516001600160a01b039092168252519081900360200190f35b61011b6102f0565b604080519115158252519081900360200190f35b61014c6004803603602081101561014557600080fd5b50356102f9565b60408051918252519081900360200190f35b6100f761035c565b61011b6004803603602081101561017c57600080fd5b50356001600160a01b031661036b565b61014c600480360360208110156101a257600080fd5b8101906020810181356401000000008111156101bd57600080fd5b8201836020820111156101cf57600080fd5b803590602001918460208302840111640100000000831117156101f157600080fd5b509092509050610380565b61014c61041d565b61011b6004803603602081101561021a57600080fd5b50356001600160a01b0316610423565b610232610513565b005b6100f76105b5565b61011b6004803603602081101561025257600080fd5b50356001600160a01b03166105c4565b6102326004803603608081101561027857600080fd5b506001600160a01b03813581169160208101358216916040820135916060013516610627565b61011b600480360360208110156102b457600080fd5b50356106e1565b610232600480360360208110156102d157600080fd5b50356001600160a01b0316610788565b6002546001600160a01b031681565b60055460ff1681565b6000610303610880565b6000546001600160a01b03908116911614610353576040805162461bcd60e51b81526020600482018190526024820152600080516020610c9d833981519152604482015290519081900360640190fd5b50600481905590565b6001546001600160a01b031681565b60066020526000908152604090205460ff1681565b600061038a610880565b6000546001600160a01b039081169116146103da576040805162461bcd60e51b81526020600482018190526024820152600080516020610c9d833981519152604482015290519081900360640190fd5b60005b80831115610412576104098484838181106103f457fe5b905060200201356001600160a01b0316610884565b506001016103dd565b508190505b92915050565b60045481565b600061042d610880565b6000546001600160a01b0390811691161461047d576040805162461bcd60e51b81526020600482018190526024820152600080516020610c9d833981519152604482015290519081900360640190fd5b61050b33836001600160a01b03166370a08231306040518263ffffffff1660e01b815260040180826001600160a01b0316815260200191505060206040518083038186803b1580156104ce57600080fd5b505afa1580156104e2573d6000803e3d6000fd5b505050506040513d60208110156104f857600080fd5b50516001600160a01b03851691906108ae565b506001919050565b61051b610880565b6000546001600160a01b0390811691161461056b576040805162461bcd60e51b81526020600482018190526024820152600080516020610c9d833981519152604482015290519081900360640190fd5b600080546040516001600160a01b03909116907f8be0079c531659141344cd1fd0a4f28419497f9722a3daafe3b4186f6b6457e0908390a3600080546001600160a01b0319169055565b6000546001600160a01b031690565b60006105ce610880565b6000546001600160a01b0390811691161461061e576040805162461bcd60e51b81526020600482018190526024820152600080516020610c9d833981519152604482015290519081900360640190fd5b61041782610884565b61062f610880565b6000546001600160a01b0390811691161461067f576040805162461bcd60e51b81526020600482018190526024820152600080516020610c9d833981519152604482015290519081900360640190fd5b60055460ff161561068f57600080fd5b600280546001600160a01b039586166001600160a01b0319918216179091556001805494861694821694909417845560049290925560038054919094169116179091556005805460ff19169091179055565b3360009081526006602052604081205460ff1661073b576040805162461bcd60e51b8152602060048201526013602482015272213abcb2b9103737ba1030b8383937bb32b21760691b604482015290519081900360640190fd5b600061074683610905565b600354600154919250610768916001600160a01b03908116913391168661091c565b60025461077f906001600160a01b031633836108ae565b50600192915050565b610790610880565b6000546001600160a01b039081169116146107e0576040805162461bcd60e51b81526020600482018190526024820152600080516020610c9d833981519152604482015290519081900360640190fd5b6001600160a01b0381166108255760405162461bcd60e51b8152600401808060200182810382526026815260200180610c566026913960400191505060405180910390fd5b600080546040516001600160a01b03808516939216917f8be0079c531659141344cd1fd0a4f28419497f9722a3daafe3b4186f6b6457e091a3600080546001600160a01b0319166001600160a01b0392909216919091179055565b3390565b6001600160a01b03166000908152600660205260409020805460ff19166001179081905560ff1690565b604080516001600160a01b038416602482015260448082018490528251808303909101815260649091019091526020810180516001600160e01b031663a9059cbb60e01b17905261090090849061097c565b505050565b600061041760045483610a2d90919063ffffffff16565b604080516001600160a01b0380861660248301528416604482015260648082018490528251808303909101815260849091019091526020810180516001600160e01b03166323b872dd60e01b17905261097690859061097c565b50505050565b60606109d1826040518060400160405280602081526020017f5361666545524332303a206c6f772d6c6576656c2063616c6c206661696c6564815250856001600160a01b0316610a8d9092919063ffffffff16565b805190915015610900578080602001905160208110156109f057600080fd5b50516109005760405162461bcd60e51b815260040180806020018281038252602a815260200180610cbd602a913960400191505060405180910390fd5b600082610a3c57506000610417565b82820282848281610a4957fe5b0414610a865760405162461bcd60e51b8152600401808060200182810382526021815260200180610c7c6021913960400191505060405180910390fd5b9392505050565b6060610a9c8484600085610aa4565b949350505050565b6060610aaf85610c4f565b610b00576040805162461bcd60e51b815260206004820152601d60248201527f416464726573733a2063616c6c20746f206e6f6e2d636f6e7472616374000000604482015290519081900360640190fd5b60006060866001600160a01b031685876040518082805190602001908083835b60208310610b3f5780518252601f199092019160209182019101610b20565b6001836020036101000a03801982511681845116808217855250505050505090500191505060006040518083038185875af1925050503d8060008114610ba1576040519150601f19603f3d011682016040523d82523d6000602084013e610ba6565b606091505b50915091508115610bba579150610a9c9050565b805115610bca5780518082602001fd5b8360405162461bcd60e51b81526004018080602001828103825283818151815260200191508051906020019080838360005b83811015610c14578181015183820152602001610bfc565b50505050905090810190601f168015610c415780820380516001836020036101000a031916815260200191505b509250505060405180910390fd5b3b15159056fe4f776e61626c653a206e6577206f776e657220697320746865207a65726f2061646472657373536166654d6174683a206d756c7469706c69636174696f6e206f766572666c6f774f776e61626c653a2063616c6c6572206973206e6f7420746865206f776e65725361666545524332303a204552433230206f7065726174696f6e20646964206e6f742073756363656564a2646970667358221220ffffdd922651b36265c9f8d50f0268cc0d3e9ed266c71ebae5fedc2e6907b5b664736f6c63430007050033",
  "devdoc": {
    "kind": "dev",
    "methods": {},
    "version": 1
  },
  "userdoc": {
    "kind": "user",
    "methods": {},
    "version": 1
  },
  "storageLayout": {
    "storage": [
      {
        "astId": 388,
        "contract": "contracts/vested/PreTaoSales.sol:PreTaoSales",
        "label": "_owner",
        "offset": 0,
        "slot": "0",
        "type": "t_address"
      },
      {
        "astId": 1221,
        "contract": "contracts/vested/PreTaoSales.sol:PreTaoSales",
        "label": "busd",
        "offset": 0,
        "slot": "1",
        "type": "t_contract(IERC20)553"
      },
      {
        "astId": 1223,
        "contract": "contracts/vested/PreTaoSales.sol:PreTaoSales",
        "label": "pTao",
        "offset": 0,
        "slot": "2",
        "type": "t_contract(IERC20)553"
      },
      {
        "astId": 1225,
        "contract": "contracts/vested/PreTaoSales.sol:PreTaoSales",
        "label": "_saleProceedsAddress",
        "offset": 0,
        "slot": "3",
        "type": "t_address"
      },
      {
        "astId": 1227,
        "contract": "contracts/vested/PreTaoSales.sol:PreTaoSales",
        "label": "pTaoPrice",
        "offset": 0,
        "slot": "4",
        "type": "t_uint256"
      },
      {
        "astId": 1229,
        "contract": "contracts/vested/PreTaoSales.sol:PreTaoSales",
        "label": "initialized",
        "offset": 0,
        "slot": "5",
        "type": "t_bool"
      },
      {
        "astId": 1233,
        "contract": "contracts/vested/PreTaoSales.sol:PreTaoSales",
        "label": "approvedBuyers",
        "offset": 0,
        "slot": "6",
        "type": "t_mapping(t_address,t_bool)"
      }
    ],
    "types": {
      "t_address": {
        "encoding": "inplace",
        "label": "address",
        "numberOfBytes": "20"
      },
      "t_bool": {
        "encoding": "inplace",
        "label": "bool",
        "numberOfBytes": "1"
      },
      "t_contract(IERC20)553": {
        "encoding": "inplace",
        "label": "contract IERC20",
        "numberOfBytes": "20"
      },
      "t_mapping(t_address,t_bool)": {
        "encoding": "mapping",
        "key": "t_address",
        "label": "mapping(address => bool)",
        "numberOfBytes": "32",
        "value": "t_bool"
      },
      "t_uint256": {
        "encoding": "inplace",
        "label": "uint256",
        "numberOfBytes": "32"
      }
    }
  }
}