{
  "address": "0x06f41963911cEF3e1819A2c605C3661267A5d6F5",
  "abi": [
    {
      "inputs": [],
      "stateMutability": "nonpayable",
      "type": "constructor"
    },
    {
      "anonymous": false,
      "inputs": [
        {
          "indexed": true,
          "internalType": "address",
          "name": "owner",
          "type": "address"
        },
        {
          "indexed": true,
          "internalType": "address",
          "name": "spender",
          "type": "address"
        },
        {
          "indexed": false,
          "internalType": "uint256",
          "name": "value",
          "type": "uint256"
        }
      ],
      "name": "Approval",
      "type": "event"
    },
    {
      "anonymous": false,
      "inputs": [
        {
          "indexed": true,
          "internalType": "address",
          "name": "previousOwner",
          "type": "address"
        },
        {
          "indexed": true,
          "internalType": "address",
          "name": "newOwner",
          "type": "address"
        }
      ],
      "name": "OwnershipTransferred",
      "type": "event"
    },
    {
      "anonymous": false,
      "inputs": [
        {
          "indexed": true,
          "internalType": "address",
          "name": "from",
          "type": "address"
        },
        {
          "indexed": true,
          "internalType": "address",
          "name": "to",
          "type": "address"
        },
        {
          "indexed": false,
          "internalType": "uint256",
          "name": "value",
          "type": "uint256"
        }
      ],
      "name": "Transfer",
      "type": "event"
    },
    {
      "inputs": [
        {
          "internalType": "address",
          "name": "approvedSeller_",
          "type": "address"
        }
      ],
      "name": "addApprovedSeller",
      "outputs": [
        {
          "internalType": "bool",
          "name": "",
          "type": "bool"
        }
      ],
      "stateMutability": "nonpayable",
      "type": "function"
    },
    {
      "inputs": [
        {
          "internalType": "address[]",
          "name": "approvedSellers_",
          "type": "address[]"
        }
      ],
      "name": "addApprovedSellers",
      "outputs": [
        {
          "internalType": "bool",
          "name": "",
          "type": "bool"
        }
      ],
      "stateMutability": "nonpayable",
      "type": "function"
    },
    {
      "inputs": [],
      "name": "allowMinting",
      "outputs": [
        {
          "internalType": "bool",
          "name": "",
          "type": "bool"
        }
      ],
      "stateMutability": "view",
      "type": "function"
    },
    {
      "inputs": [],
      "name": "allowOpenTrading",
      "outputs": [
        {
          "internalType": "bool",
          "name": "",
          "type": "bool"
        }
      ],
      "stateMutability": "nonpayable",
      "type": "function"
    },
    {
      "inputs": [
        {
          "internalType": "address",
          "name": "owner",
          "type": "address"
        },
        {
          "internalType": "address",
          "name": "spender",
          "type": "address"
        }
      ],
      "name": "allowance",
      "outputs": [
        {
          "internalType": "uint256",
          "name": "",
          "type": "uint256"
        }
      ],
      "stateMutability": "view",
      "type": "function"
    },
    {
      "inputs": [
        {
          "internalType": "address",
          "name": "spender",
          "type": "address"
        },
        {
          "internalType": "uint256",
          "name": "amount",
          "type": "uint256"
        }
      ],
      "name": "approve",
      "outputs": [
        {
          "internalType": "bool",
          "name": "",
          "type": "bool"
        }
      ],
      "stateMutability": "nonpayable",
      "type": "function"
    },
    {
      "inputs": [
        {
          "internalType": "address",
          "name": "account",
          "type": "address"
        }
      ],
      "name": "balanceOf",
      "outputs": [
        {
          "internalType": "uint256",
          "name": "",
          "type": "uint256"
        }
      ],
      "stateMutability": "view",
      "type": "function"
    },
    {
      "inputs": [
        {
          "internalType": "uint256",
          "name": "amount_",
          "type": "uint256"
        }
      ],
      "name": "burn",
      "outputs": [],
      "stateMutability": "nonpayable",
      "type": "function"
    },
    {
      "inputs": [
        {
          "internalType": "address",
          "name": "account_",
          "type": "address"
        },
        {
          "internalType": "uint256",
          "name": "amount_",
          "type": "uint256"
        }
      ],
      "name": "burnFrom",
      "outputs": [],
      "stateMutability": "nonpayable",
      "type": "function"
    },
    {
      "inputs": [],
      "name": "decimals",
      "outputs": [
        {
          "internalType": "uint8",
          "name": "",
          "type": "uint8"
        }
      ],
      "stateMutability": "view",
      "type": "function"
    },
    {
      "inputs": [
        {
          "internalType": "address",
          "name": "spender",
          "type": "address"
        },
        {
          "internalType": "uint256",
          "name": "subtractedValue",
          "type": "uint256"
        }
      ],
      "name": "decreaseAllowance",
      "outputs": [
        {
          "internalType": "bool",
          "name": "",
          "type": "bool"
        }
      ],
      "stateMutability": "nonpayable",
      "type": "function"
    },
    {
      "inputs": [],
      "name": "disableMinting",
      "outputs": [
        {
          "internalType": "bool",
          "name": "",
          "type": "bool"
        }
      ],
      "stateMutability": "nonpayable",
      "type": "function"
    },
    {
      "inputs": [
        {
          "internalType": "address",
          "name": "spender",
          "type": "address"
        },
        {
          "internalType": "uint256",
          "name": "addedValue",
          "type": "uint256"
        }
      ],
      "name": "increaseAllowance",
      "outputs": [
        {
          "internalType": "bool",
          "name": "",
          "type": "bool"
        }
      ],
      "stateMutability": "nonpayable",
      "type": "function"
    },
    {
      "inputs": [
        {
          "internalType": "address",
          "name": "",
          "type": "address"
        }
      ],
      "name": "isApprovedSeller",
      "outputs": [
        {
          "internalType": "bool",
          "name": "",
          "type": "bool"
        }
      ],
      "stateMutability": "view",
      "type": "function"
    },
    {
      "inputs": [
        {
          "internalType": "address",
          "name": "recipient_",
          "type": "address"
        },
        {
          "internalType": "uint256",
          "name": "amount_",
          "type": "uint256"
        }
      ],
      "name": "mint",
      "outputs": [],
      "stateMutability": "nonpayable",
      "type": "function"
    },
    {
      "inputs": [],
      "name": "name",
      "outputs": [
        {
          "internalType": "string",
          "name": "",
          "type": "string"
        }
      ],
      "stateMutability": "view",
      "type": "function"
    },
    {
      "inputs": [],
      "name": "owner",
      "outputs": [
        {
          "internalType": "address",
          "name": "",
          "type": "address"
        }
      ],
      "stateMutability": "view",
      "type": "function"
    },
    {
      "inputs": [
        {
          "internalType": "address",
          "name": "disapprovedSeller_",
          "type": "address"
        }
      ],
      "name": "removeApprovedSeller",
      "outputs": [
        {
          "internalType": "bool",
          "name": "",
          "type": "bool"
        }
      ],
      "stateMutability": "nonpayable",
      "type": "function"
    },
    {
      "inputs": [
        {
          "internalType": "address[]",
          "name": "disapprovedSellers_",
          "type": "address[]"
        }
      ],
      "name": "removeApprovedSellers",
      "outputs": [
        {
          "internalType": "bool",
          "name": "",
          "type": "bool"
        }
      ],
      "stateMutability": "nonpayable",
      "type": "function"
    },
    {
      "inputs": [],
      "name": "renounceOwnership",
      "outputs": [],
      "stateMutability": "nonpayable",
      "type": "function"
    },
    {
      "inputs": [],
      "name": "requireSellerApproval",
      "outputs": [
        {
          "internalType": "bool",
          "name": "",
          "type": "bool"
        }
      ],
      "stateMutability": "view",
      "type": "function"
    },
    {
      "inputs": [],
      "name": "symbol",
      "outputs": [
        {
          "internalType": "string",
          "name": "",
          "type": "string"
        }
      ],
      "stateMutability": "view",
      "type": "function"
    },
    {
      "inputs": [],
      "name": "totalSupply",
      "outputs": [
        {
          "internalType": "uint256",
          "name": "",
          "type": "uint256"
        }
      ],
      "stateMutability": "view",
      "type": "function"
    },
    {
      "inputs": [
        {
          "internalType": "address",
          "name": "recipient",
          "type": "address"
        },
        {
          "internalType": "uint256",
          "name": "amount",
          "type": "uint256"
        }
      ],
      "name": "transfer",
      "outputs": [
        {
          "internalType": "bool",
          "name": "",
          "type": "bool"
        }
      ],
      "stateMutability": "nonpayable",
      "type": "function"
    },
    {
      "inputs": [
        {
          "internalType": "address",
          "name": "sender",
          "type": "address"
        },
        {
          "internalType": "address",
          "name": "recipient",
          "type": "address"
        },
        {
          "internalType": "uint256",
          "name": "amount",
          "type": "uint256"
        }
      ],
      "name": "transferFrom",
      "outputs": [
        {
          "internalType": "bool",
          "name": "",
          "type": "bool"
        }
      ],
      "stateMutability": "nonpayable",
      "type": "function"
    },
    {
      "inputs": [
        {
          "internalType": "address",
          "name": "newOwner",
          "type": "address"
        }
      ],
      "name": "transferOwnership",
      "outputs": [],
      "stateMutability": "nonpayable",
      "type": "function"
    }
  ],
  "transactionHash": "0xc2e5c6a706d739bb6db421b1cc9631525778843ed00de819fc961aa2e216b303",
  "args": [],
  "solcInputHash": "f9f446c40c3c5dbe588a9cab7d01bffc",
  "bytecode": "0x60806040523480156200001157600080fd5b506040518060400160405280600681526020016550726554616f60d01b815250604051806040016040528060048152602001637054414f60e01b815250601282828282600390805190602001906200006b929190620003a4565b50815162000081906004906020850190620003a4565b5080600560006101000a81548160ff021916908360ff1602179055505050506000620000b76200017160201b62000e851760201c565b60058054610100600160a81b0319166101006001600160a01b03841690810291909117909155604051919250906000907f8be0079c531659141344cd1fd0a4f28419497f9722a3daafe3b4186f6b6457e0908290a350506005805460ff60b01b1960ff60a81b19909116600160a81b1716600160b01b179055506afba0db0b231cc51d00000090506200014a3062000175565b620001553362000175565b6200016a6200016362000199565b82620001ad565b5062000450565b3390565b6001600160a01b03166000908152600660205260409020805460ff19166001179055565b60055461010090046001600160a01b031690565b6001600160a01b03821662000209576040805162461bcd60e51b815260206004820152601f60248201527f45524332303a206d696e7420746f20746865207a65726f206164647265737300604482015290519081900360640190fd5b62000216308383620002bc565b62000232816002546200034260201b62000e891790919060201c565b6002556001600160a01b038216600090815260208181526040909120546200026591839062000e8962000342821b17901c565b6001600160a01b038316600081815260208181526040918290209390935580518481529051919230927fddf252ad1be2c89b69c2b068fc378daa952ba7f163c4a11628f55a4df523b3ef9281900390910190a35050565b6001600160a01b0382166000908152602081905260409020541515806200030057506001600160a01b03831660009081526006602052604090205460ff1615156001145b6200033d5760405162461bcd60e51b815260040180806020018281038252602681526020018062001b6f6026913960400191505060405180910390fd5b505050565b6000828201838110156200039d576040805162461bcd60e51b815260206004820152601b60248201527f536166654d6174683a206164646974696f6e206f766572666c6f770000000000604482015290519081900360640190fd5b9392505050565b828054600181600116156101000203166002900490600052602060002090601f016020900481019282620003dc576000855562000427565b82601f10620003f757805160ff191683800117855562000427565b8280016001018555821562000427579182015b82811115620004275782518255916020019190600101906200040a565b506200043592915062000439565b5090565b5b808211156200043557600081556001016200043a565b61170f80620004606000396000f3fe608060405234801561001057600080fd5b506004361061018e5760003560e01c8063715018a6116100de578063a2efb97511610097578063b93ea6a111610071578063b93ea6a114610575578063dd62ed3e1461057d578063ea46d196146105ab578063f2fde38b146105b35761018e565b8063a2efb975146104f7578063a457c2d71461051d578063a9059cbb146105495761018e565b8063715018a61461041f57806379cc6790146104275780637e5cd5c1146104535780638da5cb5b1461045b57806395d89b411461047f5780639a9429b6146104875761018e565b806323b872dd1161014b57806340c10f191161012557806340c10f191461033e57806342966c681461036c5780635b0ed0ef1461038957806370a08231146103f95761018e565b806323b872dd146102be578063313ce567146102f457806339509351146103125761018e565b806306fdde03146101935780630775b33d14610210578063095ea7b31461024a5780630c4b56bf146102765780631602a1241461029c57806318160ddd146102a4575b600080fd5b61019b6105d9565b6040805160208082528351818301528351919283929083019185019080838360005b838110156101d55781810151838201526020016101bd565b50505050905090810190601f1680156102025780820380516001836020036101000a031916815260200191505b509250505060405180910390f35b6102366004803603602081101561022657600080fd5b50356001600160a01b031661066f565b604080519115158252519081900360200190f35b6102366004803603604081101561026057600080fd5b506001600160a01b0381351690602001356106f6565b6102366004803603602081101561028c57600080fd5b50356001600160a01b0316610713565b610236610728565b6102ac610738565b60408051918252519081900360200190f35b610236600480360360608110156102d457600080fd5b506001600160a01b0381358116916020810135909116906040013561073e565b6102fc6107c5565b6040805160ff9092168252519081900360200190f35b6102366004803603604081101561032857600080fd5b506001600160a01b0381351690602001356107ce565b61036a6004803603604081101561035457600080fd5b506001600160a01b03813516906020013561081c565b005b61036a6004803603602081101561038257600080fd5b50356108e5565b6102366004803603602081101561039f57600080fd5b8101906020810181356401000000008111156103ba57600080fd5b8201836020820111156103cc57600080fd5b803590602001918460208302840111640100000000831117156103ee57600080fd5b5090925090506108f2565b6102ac6004803603602081101561040f57600080fd5b50356001600160a01b0316610988565b61036a6109a3565b61036a6004803603604081101561043d57600080fd5b506001600160a01b038135169060200135610a50565b610236610a5a565b610463610ad6565b604080516001600160a01b039092168252519081900360200190f35b61019b610aea565b6102366004803603602081101561049d57600080fd5b8101906020810181356401000000008111156104b857600080fd5b8201836020820111156104ca57600080fd5b803590602001918460208302840111640100000000831117156104ec57600080fd5b509092509050610b4b565b6102366004803603602081101561050d57600080fd5b50356001600160a01b0316610be1565b6102366004803603604081101561053357600080fd5b506001600160a01b038135169060200135610c49565b6102366004803603604081101561055f57600080fd5b506001600160a01b038135169060200135610cb1565b610236610cc5565b6102ac6004803603604081101561059357600080fd5b506001600160a01b0381358116916020013516610cd5565b610236610d00565b61036a600480360360208110156105c957600080fd5b50356001600160a01b0316610d7c565b60038054604080516020601f60026000196101006001881615020190951694909404938401819004810282018101909252828152606093909290918301828280156106655780601f1061063a57610100808354040283529160200191610665565b820191906000526020600020905b81548152906001019060200180831161064857829003601f168201915b5050505050905090565b6000610679610e85565b60055461010090046001600160a01b039081169116146106ce576040805162461bcd60e51b81526020600482018190526024820152600080516020611607833981519152604482015290519081900360640190fd5b6106d782610eea565b506001600160a01b031660009081526006602052604090205460ff1690565b600061070a610703610e85565b8484610f0b565b50600192915050565b60066020526000908152604090205460ff1681565b600554600160b01b900460ff1681565b60025490565b600061074b848484610ff7565b6107bb84610757610e85565b6107b6856040518060600160405280602881526020016115df602891396001600160a01b038a16600090815260016020526040812090610795610e85565b6001600160a01b031681526020810191909152604001600020549190611152565b610f0b565b5060019392505050565b60055460ff1690565b600061070a6107db610e85565b846107b685600160006107ec610e85565b6001600160a01b03908116825260208083019390935260409182016000908120918c168152925290205490610e89565b610824610e85565b60055461010090046001600160a01b03908116911614610879576040805162461bcd60e51b81526020600482018190526024820152600080516020611607833981519152604482015290519081900360640190fd5b600554600160b01b900460ff166108d7576040805162461bcd60e51b815260206004820152601a60248201527f4d696e74696e6720686173206265656e2064697361626c65642e000000000000604482015290519081900360640190fd5b6108e182826111e9565b5050565b6108ef33826112d9565b50565b60006108fc610e85565b60055461010090046001600160a01b03908116911614610951576040805162461bcd60e51b81526020600482018190526024820152600080516020611607833981519152604482015290519081900360640190fd5b60005b808311156107bb5761098084848381811061096b57fe5b905060200201356001600160a01b03166113d5565b600101610954565b6001600160a01b031660009081526020819052604090205490565b6109ab610e85565b60055461010090046001600160a01b03908116911614610a00576040805162461bcd60e51b81526020600482018190526024820152600080516020611607833981519152604482015290519081900360640190fd5b60055460405160009161010090046001600160a01b0316907f8be0079c531659141344cd1fd0a4f28419497f9722a3daafe3b4186f6b6457e0908390a360058054610100600160a81b0319169055565b6108e182826113f9565b6000610a64610e85565b60055461010090046001600160a01b03908116911614610ab9576040805162461bcd60e51b81526020600482018190526024820152600080516020611607833981519152604482015290519081900360640190fd5b506005805460ff60b01b191690819055600160b01b900460ff1690565b60055461010090046001600160a01b031690565b60048054604080516020601f60026000196101006001881615020190951694909404938401819004810282018101909252828152606093909290918301828280156106655780601f1061063a57610100808354040283529160200191610665565b6000610b55610e85565b60055461010090046001600160a01b03908116911614610baa576040805162461bcd60e51b81526020600482018190526024820152600080516020611607833981519152604482015290519081900360640190fd5b60005b808311156107bb57610bd9848483818110610bc457fe5b905060200201356001600160a01b0316610eea565b600101610bad565b6000610beb610e85565b60055461010090046001600160a01b03908116911614610c40576040805162461bcd60e51b81526020600482018190526024820152600080516020611607833981519152604482015290519081900360640190fd5b6106d7826113d5565b600061070a610c56610e85565b846107b6856040518060600160405280602581526020016116b56025913960016000610c80610e85565b6001600160a01b03908116825260208083019390935260409182016000908120918d16815292529020549190611152565b600061070a610cbe610e85565b8484610ff7565b600554600160a81b900460ff1681565b6001600160a01b03918216600090815260016020908152604080832093909416825291909152205490565b6000610d0a610e85565b60055461010090046001600160a01b03908116911614610d5f576040805162461bcd60e51b81526020600482018190526024820152600080516020611607833981519152604482015290519081900360640190fd5b506005805460ff60a81b191690819055600160a81b900460ff1690565b610d84610e85565b60055461010090046001600160a01b03908116911614610dd9576040805162461bcd60e51b81526020600482018190526024820152600080516020611607833981519152604482015290519081900360640190fd5b6001600160a01b038116610e1e5760405162461bcd60e51b815260040180806020018281038252602681526020018061154b6026913960400191505060405180910390fd5b6005546040516001600160a01b0380841692610100900416907f8be0079c531659141344cd1fd0a4f28419497f9722a3daafe3b4186f6b6457e090600090a3600580546001600160a01b0390921661010002610100600160a81b0319909216919091179055565b3390565b600082820183811015610ee3576040805162461bcd60e51b815260206004820152601b60248201527f536166654d6174683a206164646974696f6e206f766572666c6f770000000000604482015290519081900360640190fd5b9392505050565b6001600160a01b03166000908152600660205260409020805460ff19169055565b6001600160a01b038316610f505760405162461bcd60e51b81526004018080602001828103825260248152602001806116916024913960400191505060405180910390fd5b6001600160a01b038216610f955760405162461bcd60e51b81526004018080602001828103825260228152602001806115716022913960400191505060405180910390fd5b6001600160a01b03808416600081815260016020908152604080832094871680845294825291829020859055815185815291517f8c5be1e5ebec7d5bd14f71427d1e84f3dd0314c0f7b2291e5b200ac8c7c3b9259281900390910190a3505050565b6001600160a01b03831661103c5760405162461bcd60e51b815260040180806020018281038252602581526020018061166c6025913960400191505060405180910390fd5b6001600160a01b0382166110815760405162461bcd60e51b81526004018080602001828103825260238152602001806115066023913960400191505060405180910390fd5b61108c838383611445565b6110c981604051806060016040528060268152602001611593602691396001600160a01b0386166000908152602081905260409020549190611152565b6001600160a01b0380851660009081526020819052604080822093909355908416815220546110f89082610e89565b6001600160a01b038084166000818152602081815260409182902094909455805185815290519193928716927fddf252ad1be2c89b69c2b068fc378daa952ba7f163c4a11628f55a4df523b3ef92918290030190a3505050565b600081848411156111e15760405162461bcd60e51b81526004018080602001828103825283818151815260200191508051906020019080838360005b838110156111a657818101518382015260200161118e565b50505050905090810190601f1680156111d35780820380516001836020036101000a031916815260200191505b509250505060405180910390fd5b505050900390565b6001600160a01b038216611244576040805162461bcd60e51b815260206004820152601f60248201527f45524332303a206d696e7420746f20746865207a65726f206164647265737300604482015290519081900360640190fd5b61124f308383611445565b60025461125c9082610e89565b6002556001600160a01b0382166000908152602081905260409020546112829082610e89565b6001600160a01b038316600081815260208181526040918290209390935580518481529051919230927fddf252ad1be2c89b69c2b068fc378daa952ba7f163c4a11628f55a4df523b3ef9281900390910190a35050565b6001600160a01b03821661131e5760405162461bcd60e51b815260040180806020018281038252602181526020018061164b6021913960400191505060405180910390fd5b61132a82600083611445565b61136781604051806060016040528060228152602001611529602291396001600160a01b0385166000908152602081905260409020549190611152565b6001600160a01b03831660009081526020819052604090205560025461138d90826114c3565b6002556040805182815290516000916001600160a01b038516917fddf252ad1be2c89b69c2b068fc378daa952ba7f163c4a11628f55a4df523b3ef9181900360200190a35050565b6001600160a01b03166000908152600660205260409020805460ff19166001179055565b600061142982604051806060016040528060248152602001611627602491396114228633610cd5565b9190611152565b9050611436833383610f0b565b61144083836112d9565b505050565b6001600160a01b03821660009081526020819052604090205415158061148857506001600160a01b03831660009081526006602052604090205460ff1615156001145b6114405760405162461bcd60e51b81526004018080602001828103825260268152602001806115b96026913960400191505060405180910390fd5b6000610ee383836040518060400160405280601e81526020017f536166654d6174683a207375627472616374696f6e206f766572666c6f77000081525061115256fe45524332303a207472616e7366657220746f20746865207a65726f206164647265737345524332303a206275726e20616d6f756e7420657863656564732062616c616e63654f776e61626c653a206e6577206f776e657220697320746865207a65726f206164647265737345524332303a20617070726f766520746f20746865207a65726f206164647265737345524332303a207472616e7366657220616d6f756e7420657863656564732062616c616e63654163636f756e74206e6f7420617070726f76656420746f207472616e73666572207054414f2e45524332303a207472616e7366657220616d6f756e74206578636565647320616c6c6f77616e63654f776e61626c653a2063616c6c6572206973206e6f7420746865206f776e657245524332303a206275726e20616d6f756e74206578636565647320616c6c6f77616e636545524332303a206275726e2066726f6d20746865207a65726f206164647265737345524332303a207472616e736665722066726f6d20746865207a65726f206164647265737345524332303a20617070726f76652066726f6d20746865207a65726f206164647265737345524332303a2064656372656173656420616c6c6f77616e63652062656c6f77207a65726fa26469706673582212200e21d59566711761defb0a12cb5ed2e496bead70c3383719ca235e416c62528064736f6c634300070500334163636f756e74206e6f7420617070726f76656420746f207472616e73666572207054414f2e",
  "devdoc": {
    "kind": "dev",
    "methods": {},
    "version": 1
  },
  "userdoc": {
    "kind": "user",
    "methods": {},
    "version": 1
  },
  "storageLayout": {
    "storage": [
      {
        "astId": 562,
        "contract": "contracts/vested/PreTaoToken.sol:PreTaoToken",
        "label": "_balances",
        "offset": 0,
        "slot": "0",
        "type": "t_mapping(t_address,t_uint256)"
      },
      {
        "astId": 568,
        "contract": "contracts/vested/PreTaoToken.sol:PreTaoToken",
        "label": "_allowances",
        "offset": 0,
        "slot": "1",
        "type": "t_mapping(t_address,t_mapping(t_address,t_uint256))"
      },
      {
        "astId": 570,
        "contract": "contracts/vested/PreTaoToken.sol:PreTaoToken",
        "label": "_totalSupply",
        "offset": 0,
        "slot": "2",
        "type": "t_uint256"
      },
      {
        "astId": 572,
        "contract": "contracts/vested/PreTaoToken.sol:PreTaoToken",
        "label": "_name",
        "offset": 0,
        "slot": "3",
        "type": "t_string_storage"
      },
      {
        "astId": 574,
        "contract": "contracts/vested/PreTaoToken.sol:PreTaoToken",
        "label": "_symbol",
        "offset": 0,
        "slot": "4",
        "type": "t_string_storage"
      },
      {
        "astId": 576,
        "contract": "contracts/vested/PreTaoToken.sol:PreTaoToken",
        "label": "_decimals",
        "offset": 0,
        "slot": "5",
        "type": "t_uint8"
      },
      {
        "astId": 388,
        "contract": "contracts/vested/PreTaoToken.sol:PreTaoToken",
        "label": "_owner",
        "offset": 1,
        "slot": "5",
        "type": "t_address"
      },
      {
        "astId": 1057,
        "contract": "contracts/vested/PreTaoToken.sol:PreTaoToken",
        "label": "requireSellerApproval",
        "offset": 21,
        "slot": "5",
        "type": "t_bool"
      },
      {
        "astId": 1059,
        "contract": "contracts/vested/PreTaoToken.sol:PreTaoToken",
        "label": "allowMinting",
        "offset": 22,
        "slot": "5",
        "type": "t_bool"
      },
      {
        "astId": 1063,
        "contract": "contracts/vested/PreTaoToken.sol:PreTaoToken",
        "label": "isApprovedSeller",
        "offset": 0,
        "slot": "6",
        "type": "t_mapping(t_address,t_bool)"
      }
    ],
    "types": {
      "t_address": {
        "encoding": "inplace",
        "label": "address",
        "numberOfBytes": "20"
      },
      "t_bool": {
        "encoding": "inplace",
        "label": "bool",
        "numberOfBytes": "1"
      },
      "t_mapping(t_address,t_bool)": {
        "encoding": "mapping",
        "key": "t_address",
        "label": "mapping(address => bool)",
        "numberOfBytes": "32",
        "value": "t_bool"
      },
      "t_mapping(t_address,t_mapping(t_address,t_uint256))": {
        "encoding": "mapping",
        "key": "t_address",
        "label": "mapping(address => mapping(address => uint256))",
        "numberOfBytes": "32",
        "value": "t_mapping(t_address,t_uint256)"
      },
      "t_mapping(t_address,t_uint256)": {
        "encoding": "mapping",
        "key": "t_address",
        "label": "mapping(address => uint256)",
        "numberOfBytes": "32",
        "value": "t_uint256"
      },
      "t_string_storage": {
        "encoding": "bytes",
        "label": "string",
        "numberOfBytes": "32"
      },
      "t_uint256": {
        "encoding": "inplace",
        "label": "uint256",
        "numberOfBytes": "32"
      },
      "t_uint8": {
        "encoding": "inplace",
        "label": "uint8",
        "numberOfBytes": "1"
      }
    }
  }
}