{
  "address": "0x08b3545337EfDe91c7d3767EE3A549ba197628d7",
  "abi": [
    {
      "inputs": [
        {
          "internalType": "address",
          "name": "_TAOToken",
          "type": "address"
        }
      ],
      "stateMutability": "nonpayable",
      "type": "constructor"
    },
    {
      "anonymous": false,
      "inputs": [
        {
          "indexed": false,
          "internalType": "address",
          "name": "_previous",
          "type": "address"
        },
        {
          "indexed": false,
          "internalType": "address",
          "name": "_next",
          "type": "address"
        },
        {
          "indexed": false,
          "internalType": "uint256",
          "name": "_time",
          "type": "uint256"
        }
      ],
      "name": "TransferredOwnership",
      "type": "event"
    },
    {
      "inputs": [],
      "name": "TAOToken",
      "outputs": [
        {
          "internalType": "contract IERC20",
          "name": "",
          "type": "address"
        }
      ],
      "stateMutability": "view",
      "type": "function"
    },
    {
      "inputs": [
        {
          "internalType": "address",
          "name": "_stakingAddress",
          "type": "address"
        },
        {
          "internalType": "uint256",
          "name": "_amount",
          "type": "uint256"
        }
      ],
      "name": "allowTransferToStaking",
      "outputs": [],
      "stateMutability": "nonpayable",
      "type": "function"
    },
    {
      "inputs": [],
      "name": "owner",
      "outputs": [
        {
          "internalType": "address",
          "name": "",
          "type": "address"
        }
      ],
      "stateMutability": "view",
      "type": "function"
    },
    {
      "inputs": [
        {
          "internalType": "address",
          "name": "_owner",
          "type": "address"
        }
      ],
      "name": "transferOwnership",
      "outputs": [],
      "stateMutability": "nonpayable",
      "type": "function"
    }
  ],
  "transactionHash": "0xf9db441ec649da1a3b0a04becbe0b10e2d581a2768254f8292c075f064c02d0c",
  "args": [
    "0x7065DdA3f8Ec5F6C155648BdeE4420c0525D93C6"
  ],
  "solcInputHash": "3499be3bb98cbb5d4b51ae1f8ae87b49",
  "bytecode": "0x608060405234801561001057600080fd5b506040516103193803806103198339818101604052602081101561003357600080fd5b5051600080546001600160a01b039092166001600160a01b031992831617905560018054909116331790556102ac8061006d6000396000f3fe608060405234801561001057600080fd5b506004361061004c5760003560e01c80630485d4db146100515780636d20ef46146100755780638da5cb5b146100a3578063f2fde38b146100ab575b600080fd5b6100596100d1565b604080516001600160a01b039092168252519081900360200190f35b6100a16004803603604081101561008b57600080fd5b506001600160a01b0381351690602001356100e0565b005b6100596101b5565b6100a1600480360360208110156100c157600080fd5b50356001600160a01b03166101c4565b6000546001600160a01b031681565b6001546001600160a01b0316331461012c576040805162461bcd60e51b815260206004820152600a6024820152694f776e6572206f6e6c7960b01b604482015290519081900360640190fd5b600080546040805163095ea7b360e01b81526001600160a01b038681166004830152602482018690529151919092169263095ea7b392604480820193602093909283900390910190829087803b15801561018557600080fd5b505af1158015610199573d6000803e3d6000fd5b505050506040513d60208110156101af57600080fd5b50505050565b6001546001600160a01b031681565b6001546001600160a01b03163314610210576040805162461bcd60e51b815260206004820152600a6024820152694f776e6572206f6e6c7960b01b604482015290519081900360640190fd5b600180546001600160a01b038381166001600160a01b031983161792839055604080519282168084529390911660208301524282820152517f30e048e48a73aeea72c325c17c7dec1889a58fef3848c2d5fbb81502c4702f319181900360600190a1505056fea264697066735822122066c3e6f23518f105c818738bfb4f5016e044c2a2adeffda604ce097f3cc6983364736f6c63430007050033",
  "devdoc": {
    "kind": "dev",
    "methods": {},
    "version": 1
  },
  "userdoc": {
    "kind": "user",
    "methods": {},
    "version": 1
  },
  "storageLayout": {
    "storage": [
      {
        "astId": 99,
        "contract": "contracts/LP/RewardPool.sol:RewardPool",
        "label": "TAOToken",
        "offset": 0,
        "slot": "0",
        "type": "t_contract(IERC20)77"
      },
      {
        "astId": 101,
        "contract": "contracts/LP/RewardPool.sol:RewardPool",
        "label": "owner",
        "offset": 0,
        "slot": "1",
        "type": "t_address"
      }
    ],
    "types": {
      "t_address": {
        "encoding": "inplace",
        "label": "address",
        "numberOfBytes": "20"
      },
      "t_contract(IERC20)77": {
        "encoding": "inplace",
        "label": "contract IERC20",
        "numberOfBytes": "20"
      }
    }
  }
}