{
  "address": "0xE12d3c8675a88fEDCf61946089079323342982bB",
  "abi": [
    {
      "inputs": [],
      "stateMutability": "nonpayable",
      "type": "constructor"
    },
    {
      "anonymous": false,
      "inputs": [
        {
          "indexed": true,
          "internalType": "address",
          "name": "owner",
          "type": "address"
        },
        {
          "indexed": true,
          "internalType": "address",
          "name": "spender",
          "type": "address"
        },
        {
          "indexed": false,
          "internalType": "uint256",
          "name": "value",
          "type": "uint256"
        }
      ],
      "name": "Approval",
      "type": "event"
    },
    {
      "anonymous": false,
      "inputs": [
        {
          "indexed": false,
          "internalType": "address",
          "name": "monetaryPolicy",
          "type": "address"
        }
      ],
      "name": "LogMonetaryPolicyUpdated",
      "type": "event"
    },
    {
      "anonymous": false,
      "inputs": [
        {
          "indexed": true,
          "internalType": "uint256",
          "name": "epoch",
          "type": "uint256"
        },
        {
          "indexed": false,
          "internalType": "uint256",
          "name": "totalSupply",
          "type": "uint256"
        }
      ],
      "name": "LogRebase",
      "type": "event"
    },
    {
      "anonymous": false,
      "inputs": [
        {
          "indexed": true,
          "internalType": "address",
          "name": "previousOwner",
          "type": "address"
        },
        {
          "indexed": true,
          "internalType": "address",
          "name": "newOwner",
          "type": "address"
        }
      ],
      "name": "OwnershipTransferred",
      "type": "event"
    },
    {
      "anonymous": false,
      "inputs": [
        {
          "indexed": true,
          "internalType": "address",
          "name": "from",
          "type": "address"
        },
        {
          "indexed": true,
          "internalType": "address",
          "name": "to",
          "type": "address"
        },
        {
          "indexed": false,
          "internalType": "uint256",
          "name": "value",
          "type": "uint256"
        }
      ],
      "name": "Transfer",
      "type": "event"
    },
    {
      "inputs": [],
      "name": "DOMAIN_SEPARATOR",
      "outputs": [
        {
          "internalType": "bytes32",
          "name": "",
          "type": "bytes32"
        }
      ],
      "stateMutability": "view",
      "type": "function"
    },
    {
      "inputs": [],
      "name": "PERMIT_TYPEHASH",
      "outputs": [
        {
          "internalType": "bytes32",
          "name": "",
          "type": "bytes32"
        }
      ],
      "stateMutability": "view",
      "type": "function"
    },
    {
      "inputs": [
        {
          "internalType": "address",
          "name": "owner_",
          "type": "address"
        },
        {
          "internalType": "address",
          "name": "spender",
          "type": "address"
        }
      ],
      "name": "allowance",
      "outputs": [
        {
          "internalType": "uint256",
          "name": "",
          "type": "uint256"
        }
      ],
      "stateMutability": "view",
      "type": "function"
    },
    {
      "inputs": [
        {
          "internalType": "address",
          "name": "spender",
          "type": "address"
        },
        {
          "internalType": "uint256",
          "name": "value",
          "type": "uint256"
        }
      ],
      "name": "approve",
      "outputs": [
        {
          "internalType": "bool",
          "name": "",
          "type": "bool"
        }
      ],
      "stateMutability": "nonpayable",
      "type": "function"
    },
    {
      "inputs": [
        {
          "internalType": "address",
          "name": "who",
          "type": "address"
        }
      ],
      "name": "balanceOf",
      "outputs": [
        {
          "internalType": "uint256",
          "name": "",
          "type": "uint256"
        }
      ],
      "stateMutability": "view",
      "type": "function"
    },
    {
      "inputs": [],
      "name": "circulatingSupply",
      "outputs": [
        {
          "internalType": "uint256",
          "name": "",
          "type": "uint256"
        }
      ],
      "stateMutability": "view",
      "type": "function"
    },
    {
      "inputs": [],
      "name": "decimals",
      "outputs": [
        {
          "internalType": "uint8",
          "name": "",
          "type": "uint8"
        }
      ],
      "stateMutability": "view",
      "type": "function"
    },
    {
      "inputs": [
        {
          "internalType": "address",
          "name": "spender",
          "type": "address"
        },
        {
          "internalType": "uint256",
          "name": "subtractedValue",
          "type": "uint256"
        }
      ],
      "name": "decreaseAllowance",
      "outputs": [
        {
          "internalType": "bool",
          "name": "",
          "type": "bool"
        }
      ],
      "stateMutability": "nonpayable",
      "type": "function"
    },
    {
      "inputs": [
        {
          "internalType": "address",
          "name": "spender",
          "type": "address"
        },
        {
          "internalType": "uint256",
          "name": "addedValue",
          "type": "uint256"
        }
      ],
      "name": "increaseAllowance",
      "outputs": [
        {
          "internalType": "bool",
          "name": "",
          "type": "bool"
        }
      ],
      "stateMutability": "nonpayable",
      "type": "function"
    },
    {
      "inputs": [],
      "name": "monetaryPolicy",
      "outputs": [
        {
          "internalType": "address",
          "name": "",
          "type": "address"
        }
      ],
      "stateMutability": "view",
      "type": "function"
    },
    {
      "inputs": [],
      "name": "name",
      "outputs": [
        {
          "internalType": "string",
          "name": "",
          "type": "string"
        }
      ],
      "stateMutability": "view",
      "type": "function"
    },
    {
      "inputs": [
        {
          "internalType": "address",
          "name": "owner",
          "type": "address"
        }
      ],
      "name": "nonces",
      "outputs": [
        {
          "internalType": "uint256",
          "name": "",
          "type": "uint256"
        }
      ],
      "stateMutability": "view",
      "type": "function"
    },
    {
      "inputs": [],
      "name": "owner",
      "outputs": [
        {
          "internalType": "address",
          "name": "",
          "type": "address"
        }
      ],
      "stateMutability": "view",
      "type": "function"
    },
    {
      "inputs": [
        {
          "internalType": "address",
          "name": "owner",
          "type": "address"
        },
        {
          "internalType": "address",
          "name": "spender",
          "type": "address"
        },
        {
          "internalType": "uint256",
          "name": "amount",
          "type": "uint256"
        },
        {
          "internalType": "uint256",
          "name": "deadline",
          "type": "uint256"
        },
        {
          "internalType": "uint8",
          "name": "v",
          "type": "uint8"
        },
        {
          "internalType": "bytes32",
          "name": "r",
          "type": "bytes32"
        },
        {
          "internalType": "bytes32",
          "name": "s",
          "type": "bytes32"
        }
      ],
      "name": "permit",
      "outputs": [],
      "stateMutability": "nonpayable",
      "type": "function"
    },
    {
      "inputs": [
        {
          "internalType": "uint256",
          "name": "taoProfit",
          "type": "uint256"
        }
      ],
      "name": "rebase",
      "outputs": [
        {
          "internalType": "uint256",
          "name": "",
          "type": "uint256"
        }
      ],
      "stateMutability": "nonpayable",
      "type": "function"
    },
    {
      "inputs": [],
      "name": "renounceOwnership",
      "outputs": [],
      "stateMutability": "nonpayable",
      "type": "function"
    },
    {
      "inputs": [
        {
          "internalType": "address",
          "name": "monetaryPolicy_",
          "type": "address"
        }
      ],
      "name": "setMonetaryPolicy",
      "outputs": [],
      "stateMutability": "nonpayable",
      "type": "function"
    },
    {
      "inputs": [
        {
          "internalType": "address",
          "name": "newStakingContract_",
          "type": "address"
        }
      ],
      "name": "setStakingContract",
      "outputs": [],
      "stateMutability": "nonpayable",
      "type": "function"
    },
    {
      "inputs": [],
      "name": "stakingContract",
      "outputs": [
        {
          "internalType": "address",
          "name": "",
          "type": "address"
        }
      ],
      "stateMutability": "view",
      "type": "function"
    },
    {
      "inputs": [],
      "name": "symbol",
      "outputs": [
        {
          "internalType": "string",
          "name": "",
          "type": "string"
        }
      ],
      "stateMutability": "view",
      "type": "function"
    },
    {
      "inputs": [],
      "name": "totalSupply",
      "outputs": [
        {
          "internalType": "uint256",
          "name": "",
          "type": "uint256"
        }
      ],
      "stateMutability": "view",
      "type": "function"
    },
    {
      "inputs": [
        {
          "internalType": "address",
          "name": "to",
          "type": "address"
        },
        {
          "internalType": "uint256",
          "name": "value",
          "type": "uint256"
        }
      ],
      "name": "transfer",
      "outputs": [
        {
          "internalType": "bool",
          "name": "",
          "type": "bool"
        }
      ],
      "stateMutability": "nonpayable",
      "type": "function"
    },
    {
      "inputs": [
        {
          "internalType": "address",
          "name": "from",
          "type": "address"
        },
        {
          "internalType": "address",
          "name": "to",
          "type": "address"
        },
        {
          "internalType": "uint256",
          "name": "value",
          "type": "uint256"
        }
      ],
      "name": "transferFrom",
      "outputs": [
        {
          "internalType": "bool",
          "name": "",
          "type": "bool"
        }
      ],
      "stateMutability": "nonpayable",
      "type": "function"
    },
    {
      "inputs": [
        {
          "internalType": "address",
          "name": "newOwner_",
          "type": "address"
        }
      ],
      "name": "transferOwnership",
      "outputs": [],
      "stateMutability": "nonpayable",
      "type": "function"
    }
  ],
  "transactionHash": "0xa2e3e334fadfd3d82053875c3c1c0e5bda139e4045b24234017ae0ea2ad2f416",
  "args": [],
  "solcInputHash": "745b027a1af721960b20550207db43bb",
  "bytecode": "0x60806040523480156200001157600080fd5b50604080518082018252600a8152695374616b65642054616f60b01b6020808301918252835180850190945260048452637354414f60e01b90840152815191929160099162000064916003919062000387565b5081516200007a90600490602085019062000387565b506005805460ff191660ff92909216919091179055504690507f8b73c3c69bb8fe3d512ecc4cf759cc79239f7b179b0ffacaa9a75d522b39400f620000be620001f5565b805160209182012060408051808201825260018152603160f81b90840152805180840194909452838101919091527fc89efdaa54c0f20c7adf612882df0950f5a951637e0307cdcb4c672f298b8bc6606084015260808301939093523060a0808401919091528351808403909101815260c0909201928390528151910120600755600880546001600160a01b0319163317908190556001600160a01b0316906000907f8be0079c531659141344cd1fd0a4f28419497f9722a3daafe3b4186f6b6457e0908290a36601c6bf526340006002819055620001b2906507326b47ffff19906200028f602090811b6200113717901c565b600b55600254604080519182525133916000917fddf252ad1be2c89b69c2b068fc378daa952ba7f163c4a11628f55a4df523b3ef9181900360200190a362000433565b60038054604080516020601f6002600019610100600188161502019095169490940493840181900481028201810190925282815260609390929091830182828015620002855780601f10620002595761010080835404028352916020019162000285565b820191906000526020600020905b8154815290600101906020018083116200026757829003601f168201915b5050505050905090565b6000620002d983836040518060400160405280601a81526020017f536166654d6174683a206469766973696f6e206279207a65726f000000000000815250620002e060201b60201c565b9392505050565b60008183620003705760405162461bcd60e51b81526004018080602001828103825283818151815260200191508051906020019080838360005b83811015620003345781810151838201526020016200031a565b50505050905090810190601f168015620003625780820380516001836020036101000a031916815260200191505b509250505060405180910390fd5b5060008385816200037d57fe5b0495945050505050565b828054600181600116156101000203166002900490600052602060002090601f016020900481019282620003bf57600085556200040a565b82601f10620003da57805160ff19168380011785556200040a565b828001600101855582156200040a579182015b828111156200040a578251825591602001919060010190620003ed565b50620004189291506200041c565b5090565b5b808211156200041857600081556001016200041d565b6114f380620004436000396000f3fe608060405234801561001057600080fd5b50600436106101585760003560e01c80638da5cb5b116100c3578063a9059cbb1161007c578063a9059cbb146103ce578063bc4f2d6d146103fa578063d505accf14610417578063dd62ed3e14610468578063ee99205c14610496578063f2fde38b1461049e57610158565b80638da5cb5b146103405780638e27d7d7146103645780639358928b1461036c57806395d89b41146103745780639dd373b91461037c578063a457c2d7146103a257610158565b80633644e515116101155780633644e51514610290578063395093511461029857806370a08231146102c4578063715018a6146102ea5780637ecebe00146102f45780638b5a6a081461031a57610158565b806306fdde031461015d578063095ea7b3146101da57806318160ddd1461021a57806323b872dd1461023457806330adf81f1461026a578063313ce56714610272575b600080fd5b6101656104c4565b6040805160208082528351818301528351919283929083019185019080838360005b8381101561019f578181015183820152602001610187565b50505050905090810190601f1680156101cc5780820380516001836020036101000a031916815260200191505b509250505060405180910390f35b610206600480360360408110156101f057600080fd5b506001600160a01b03813516906020013561055a565b604080519115158252519081900360200190f35b6102226105af565b60408051918252519081900360200190f35b6102066004803603606081101561024a57600080fd5b506001600160a01b038135811691602081013590911690604001356105b5565b610222610748565b61027a61076c565b6040805160ff9092168252519081900360200190f35b610222610775565b610206600480360360408110156102ae57600080fd5b506001600160a01b03813516906020013561077b565b610222600480360360208110156102da57600080fd5b50356001600160a01b03166107fc565b6102f261082c565b005b6102226004803603602081101561030a57600080fd5b50356001600160a01b03166108c3565b6102f26004803603602081101561033057600080fd5b50356001600160a01b03166108e4565b610348610985565b604080516001600160a01b039092168252519081900360200190f35b610348610994565b6102226109a3565b6101656109cd565b6102f26004803603602081101561039257600080fd5b50356001600160a01b0316610a2e565b610206600480360360408110156103b857600080fd5b506001600160a01b038135169060200135610ab4565b610206600480360360408110156103e457600080fd5b506001600160a01b038135169060200135610b8b565b6102226004803603602081101561041057600080fd5b5035610cc0565b6102f2600480360360e081101561042d57600080fd5b506001600160a01b03813581169160208101359091169060408101359060608101359060ff6080820135169060a08101359060c00135610de2565b6102226004803603604081101561047e57600080fd5b506001600160a01b038135811691602001351661100f565b61034861103a565b6102f2600480360360208110156104b457600080fd5b50356001600160a01b0316611049565b60038054604080516020601f60026000196101006001881615020190951694909404938401819004810282018101909252828152606093909290918301828280156105505780601f1061052557610100808354040283529160200191610550565b820191906000526020600020905b81548152906001019060200180831161053357829003601f168201915b5050505050905090565b336000818152600d602090815260408083206001600160a01b0387168085529083528184208690558151868152915193949093909260008051602061149e833981519152928290030190a35060015b92915050565b60025490565b6000826001600160a01b0381166105cb57600080fd5b6001600160a01b0381163014156105e157600080fd5b600a546001600160a01b0385811691161461062d5760405162461bcd60e51b81526004018080602001828103825260258152602001806114386025913960400191505060405180910390fd5b6001600160a01b0385166000908152600d6020908152604080832033845290915290205461065b9084611180565b6001600160a01b0386166000908152600d60209081526040808320338452909152812091909155600b546106909085906111c2565b6001600160a01b0387166000908152600c60205260409020549091506106b69082611180565b6001600160a01b038088166000908152600c602052604080822093909355908716815220546106e5908261121b565b6001600160a01b038087166000818152600c602090815260409182902094909455805188815290519193928a16927fddf252ad1be2c89b69c2b068fc378daa952ba7f163c4a11628f55a4df523b3ef92918290030190a350600195945050505050565b7f6e71edae12b1b97f4d1f60370fef10105fa2faae0126114a169c64845d6126c981565b60055460ff1690565b60075481565b336000908152600d602090815260408083206001600160a01b03861684529091528120546107a9908361121b565b336000818152600d602090815260408083206001600160a01b03891680855290835292819020859055805194855251919360008051602061149e833981519152929081900390910190a350600192915050565b600b546001600160a01b0382166000908152600c602052604081205490916108249190611137565b90505b919050565b6008546001600160a01b03163314610879576040805162461bcd60e51b8152602060048201819052602482015260008051602061147e833981519152604482015290519081900360640190fd5b6008546040516000916001600160a01b0316907f8be0079c531659141344cd1fd0a4f28419497f9722a3daafe3b4186f6b6457e0908390a3600880546001600160a01b0319169055565b6001600160a01b038116600090815260066020526040812061082490611275565b6008546001600160a01b03163314610931576040805162461bcd60e51b8152602060048201819052602482015260008051602061147e833981519152604482015290519081900360640190fd5b600980546001600160a01b0383166001600160a01b0319909116811790915560408051918252517f0e6961f1a1afb87eaf51fd64f22ddc10062e23aa7838eac5d0bdf140bfd389729181900360200190a150565b6008546001600160a01b031690565b6009546001600160a01b031681565b600a546000906109c8906109bf906001600160a01b03166107fc565b60025490611180565b905090565b60048054604080516020601f60026000196101006001881615020190951694909404938401819004810282018101909252828152606093909290918301828280156105505780601f1061052557610100808354040283529160200191610550565b6008546001600160a01b03163314610a7b576040805162461bcd60e51b8152602060048201819052602482015260008051602061147e833981519152604482015290519081900360640190fd5b600a80546001600160a01b0319166001600160a01b039283161790819055166000908152600c602052604090206507326b47ffff199055565b336000908152600d602090815260408083206001600160a01b0386168452909152812054808310610b0857336000908152600d602090815260408083206001600160a01b0388168452909152812055610b37565b610b128184611180565b336000908152600d602090815260408083206001600160a01b03891684529091529020555b336000818152600d602090815260408083206001600160a01b03891680855290835292819020548151908152905192939260008051602061149e833981519152929181900390910190a35060019392505050565b6000826001600160a01b038116610ba157600080fd5b6001600160a01b038116301415610bb757600080fd5b600a546001600160a01b03163314610c005760405162461bcd60e51b81526004018080602001828103825260228152602001806113cf6022913960400191505060405180910390fd5b6000610c17600b54856111c290919063ffffffff16565b336000908152600c6020526040902054909150610c349082611180565b336000908152600c6020526040808220929092556001600160a01b03871681522054610c60908261121b565b6001600160a01b0386166000818152600c60209081526040918290209390935580518781529051919233927fddf252ad1be2c89b69c2b068fc378daa952ba7f163c4a11628f55a4df523b3ef9281900390910190a3506001949350505050565b6009546000906001600160a01b03163314610cda57600080fd5b600082610d2357600254604080519182525142917f72725a3b1e5bd622d6bcd1339bb31279c351abe8f541ac7fd320f24e1b1641f2919081900360200190a25050600254610827565b6000610d2d6109a3565b1115610d5957610d52610d3e6109a3565b600254610d4c9086906111c2565b90611137565b9050610d5c565b50815b600254610d69908261121b565b60028190556001600160801b031015610d88576001600160801b036002555b600254610d9d906507326b47ffff1990611137565b600b55600254604080519182525142917f72725a3b1e5bd622d6bcd1339bb31279c351abe8f541ac7fd320f24e1b1641f2919081900360200190a25050600254919050565b83421115610e37576040805162461bcd60e51b815260206004820152601860248201527f5065726d69743a206578706972656420646561646c696e650000000000000000604482015290519081900360640190fd5b6001600160a01b03871660009081526006602052604081207f6e71edae12b1b97f4d1f60370fef10105fa2faae0126114a169c64845d6126c990899089908990610e8090611275565b604080516020808201979097526001600160a01b0395861681830152939094166060840152608083019190915260a082015260c08082018990528251808303909101815260e08201835280519084012060075461190160f01b610100840152610102830152610122808301829052835180840390910181526101428301808552815191860191909120600091829052610162840180865281905260ff8a166101828501526101a284018990526101c28401889052935191955092936001926101e280820193601f1981019281900390910190855afa158015610f66573d6000803e3d6000fd5b5050604051601f1901519150506001600160a01b03811615801590610f9c5750896001600160a01b0316816001600160a01b0316145b610fd75760405162461bcd60e51b81526004018080602001828103825260218152602001806114176021913960400191505060405180910390fd5b6001600160a01b038a166000908152600660205260409020610ff890611279565b6110038a8a8a611282565b50505050505050505050565b6001600160a01b039182166000908152600d6020908152604080832093909416825291909152205490565b600a546001600160a01b031681565b6008546001600160a01b03163314611096576040805162461bcd60e51b8152602060048201819052602482015260008051602061147e833981519152604482015290519081900360640190fd5b6001600160a01b0381166110db5760405162461bcd60e51b81526004018080602001828103825260268152602001806113f16026913960400191505060405180910390fd5b6008546040516001600160a01b038084169216907f8be0079c531659141344cd1fd0a4f28419497f9722a3daafe3b4186f6b6457e090600090a3600880546001600160a01b0319166001600160a01b0392909216919091179055565b600061117983836040518060400160405280601a81526020017f536166654d6174683a206469766973696f6e206279207a65726f0000000000008152506112d2565b9392505050565b600061117983836040518060400160405280601e81526020017f536166654d6174683a207375627472616374696f6e206f766572666c6f770000815250611374565b6000826111d1575060006105a9565b828202828482816111de57fe5b04146111795760405162461bcd60e51b815260040180806020018281038252602181526020018061145d6021913960400191505060405180910390fd5b600082820183811015611179576040805162461bcd60e51b815260206004820152601b60248201527f536166654d6174683a206164646974696f6e206f766572666c6f770000000000604482015290519081900360640190fd5b5490565b80546001019055565b6001600160a01b038084166000818152600d60209081526040808320948716808452948252918290208590558151858152915160008051602061149e8339815191529281900390910190a3505050565b6000818361135e5760405162461bcd60e51b81526004018080602001828103825283818151815260200191508051906020019080838360005b8381101561132357818101518382015260200161130b565b50505050905090810190601f1680156113505780820380516001836020036101000a031916815260200191505b509250505060405180910390fd5b50600083858161136a57fe5b0495945050505050565b600081848411156113c65760405162461bcd60e51b815260206004820181815283516024840152835190928392604490910191908501908083836000831561132357818101518382015260200161130b565b50505090039056fe7472616e73666572206e6f742066726f6d207374616b696e6720636f6e74726163744f776e61626c653a206e6577206f776e657220697320746865207a65726f20616464726573735a65726f537761705065726d69743a20496e76616c6964207369676e61747572657472616e736665722066726f6d206e6f7420746f207374616b696e6720636f6e7472616374536166654d6174683a206d756c7469706c69636174696f6e206f766572666c6f774f776e61626c653a2063616c6c6572206973206e6f7420746865206f776e65728c5be1e5ebec7d5bd14f71427d1e84f3dd0314c0f7b2291e5b200ac8c7c3b925a264697066735822122007def99e7a7b4cf7674489e79316f9848b2ea7d64a5913e5fc7c5e83cdf8b7bd64736f6c63430007050033",
  "devdoc": {
    "kind": "dev",
    "methods": {
      "decimals()": {
        "details": "Returns the number of decimals used to get its user representation. For example, if `decimals` equals `2`, a balance of `505` tokens should be displayed to a user as `5,05` (`505 / 10 ** 2`). Tokens usually opt for a value of 18, imitating the relationship between Ether and Wei. This is the value {ERC20} uses, unless {_setupDecimals} is called. NOTE: This information is only used for _display_ purposes: it in no way affects any of the arithmetic of the contract, including {IERC20-balanceOf} and {IERC20-transfer}."
      },
      "decreaseAllowance(address,uint256)": {
        "details": "Atomically decreases the allowance granted to `spender` by the caller. This is an alternative to {approve} that can be used as a mitigation for problems described in {IERC20-approve}. Emits an {Approval} event indicating the updated allowance. Requirements: - `spender` cannot be the zero address. - `spender` must have allowance for the caller of at least `subtractedValue`."
      },
      "increaseAllowance(address,uint256)": {
        "details": "Atomically increases the allowance granted to `spender` by the caller. This is an alternative to {approve} that can be used as a mitigation for problems described in {IERC20-approve}. Emits an {Approval} event indicating the updated allowance. Requirements: - `spender` cannot be the zero address."
      },
      "name()": {
        "details": "Returns the name of the token."
      },
      "nonces(address)": {
        "details": "See {IERC2612Permit-nonces}."
      },
      "owner()": {
        "details": "Returns the address of the current owner."
      },
      "permit(address,address,uint256,uint256,uint8,bytes32,bytes32)": {
        "details": "See {IERC2612Permit-permit}."
      },
      "renounceOwnership()": {
        "details": "Leaves the contract without owner. It will not be possible to call `onlyOwner` functions anymore. Can only be called by the current owner. NOTE: Renouncing ownership will leave the contract without an owner, thereby removing any functionality that is only available to the owner."
      },
      "symbol()": {
        "details": "Returns the symbol of the token, usually a shorter version of the name."
      },
      "totalSupply()": {
        "details": "See {IERC20-totalSupply}."
      },
      "transferOwnership(address)": {
        "details": "Transfers ownership of the contract to a new account (`newOwner`). Can only be called by the current owner."
      }
    },
    "version": 1
  },
  "userdoc": {
    "kind": "user",
    "methods": {},
    "version": 1
  },
  "storageLayout": {
    "storage": [
      {
        "astId": 1025,
        "contract": "contracts/Staking/sTaoToken.sol:sTaoToken",
        "label": "_balances",
        "offset": 0,
        "slot": "0",
        "type": "t_mapping(t_address,t_uint256)"
      },
      {
        "astId": 1031,
        "contract": "contracts/Staking/sTaoToken.sol:sTaoToken",
        "label": "_allowances",
        "offset": 0,
        "slot": "1",
        "type": "t_mapping(t_address,t_mapping(t_address,t_uint256))"
      },
      {
        "astId": 1033,
        "contract": "contracts/Staking/sTaoToken.sol:sTaoToken",
        "label": "_totalSupply",
        "offset": 0,
        "slot": "2",
        "type": "t_uint256"
      },
      {
        "astId": 1035,
        "contract": "contracts/Staking/sTaoToken.sol:sTaoToken",
        "label": "_name",
        "offset": 0,
        "slot": "3",
        "type": "t_string_storage"
      },
      {
        "astId": 1037,
        "contract": "contracts/Staking/sTaoToken.sol:sTaoToken",
        "label": "_symbol",
        "offset": 0,
        "slot": "4",
        "type": "t_string_storage"
      },
      {
        "astId": 1039,
        "contract": "contracts/Staking/sTaoToken.sol:sTaoToken",
        "label": "_decimals",
        "offset": 0,
        "slot": "5",
        "type": "t_uint8"
      },
      {
        "astId": 1586,
        "contract": "contracts/Staking/sTaoToken.sol:sTaoToken",
        "label": "_nonces",
        "offset": 0,
        "slot": "6",
        "type": "t_mapping(t_address,t_struct(Counter)1508_storage)"
      },
      {
        "astId": 1591,
        "contract": "contracts/Staking/sTaoToken.sol:sTaoToken",
        "label": "DOMAIN_SEPARATOR",
        "offset": 0,
        "slot": "7",
        "type": "t_bytes32"
      },
      {
        "astId": 836,
        "contract": "contracts/Staking/sTaoToken.sol:sTaoToken",
        "label": "_owner",
        "offset": 0,
        "slot": "8",
        "type": "t_address"
      },
      {
        "astId": 1759,
        "contract": "contracts/Staking/sTaoToken.sol:sTaoToken",
        "label": "monetaryPolicy",
        "offset": 0,
        "slot": "9",
        "type": "t_address"
      },
      {
        "astId": 1761,
        "contract": "contracts/Staking/sTaoToken.sol:sTaoToken",
        "label": "stakingContract",
        "offset": 0,
        "slot": "10",
        "type": "t_address"
      },
      {
        "astId": 1827,
        "contract": "contracts/Staking/sTaoToken.sol:sTaoToken",
        "label": "_gonsPerFragment",
        "offset": 0,
        "slot": "11",
        "type": "t_uint256"
      },
      {
        "astId": 1831,
        "contract": "contracts/Staking/sTaoToken.sol:sTaoToken",
        "label": "_gonBalances",
        "offset": 0,
        "slot": "12",
        "type": "t_mapping(t_address,t_uint256)"
      },
      {
        "astId": 1837,
        "contract": "contracts/Staking/sTaoToken.sol:sTaoToken",
        "label": "_allowedFragments",
        "offset": 0,
        "slot": "13",
        "type": "t_mapping(t_address,t_mapping(t_address,t_uint256))"
      }
    ],
    "types": {
      "t_address": {
        "encoding": "inplace",
        "label": "address",
        "numberOfBytes": "20"
      },
      "t_bytes32": {
        "encoding": "inplace",
        "label": "bytes32",
        "numberOfBytes": "32"
      },
      "t_mapping(t_address,t_mapping(t_address,t_uint256))": {
        "encoding": "mapping",
        "key": "t_address",
        "label": "mapping(address => mapping(address => uint256))",
        "numberOfBytes": "32",
        "value": "t_mapping(t_address,t_uint256)"
      },
      "t_mapping(t_address,t_struct(Counter)1508_storage)": {
        "encoding": "mapping",
        "key": "t_address",
        "label": "mapping(address => struct Counters.Counter)",
        "numberOfBytes": "32",
        "value": "t_struct(Counter)1508_storage"
      },
      "t_mapping(t_address,t_uint256)": {
        "encoding": "mapping",
        "key": "t_address",
        "label": "mapping(address => uint256)",
        "numberOfBytes": "32",
        "value": "t_uint256"
      },
      "t_string_storage": {
        "encoding": "bytes",
        "label": "string",
        "numberOfBytes": "32"
      },
      "t_struct(Counter)1508_storage": {
        "encoding": "inplace",
        "label": "struct Counters.Counter",
        "members": [
          {
            "astId": 1507,
            "contract": "contracts/Staking/sTaoToken.sol:sTaoToken",
            "label": "_value",
            "offset": 0,
            "slot": "0",
            "type": "t_uint256"
          }
        ],
        "numberOfBytes": "32"
      },
      "t_uint256": {
        "encoding": "inplace",
        "label": "uint256",
        "numberOfBytes": "32"
      },
      "t_uint8": {
        "encoding": "inplace",
        "label": "uint8",
        "numberOfBytes": "1"
      }
    }
  }
}