{
  "address": "0xC98f066c7232C4A0b2B2885052B7fdc4438D8eF0",
  "abi": [
    {
      "inputs": [
        {
          "internalType": "address",
          "name": "_LPToken",
          "type": "address"
        },
        {
          "internalType": "address",
          "name": "_TAOToken",
          "type": "address"
        },
        {
          "internalType": "address",
          "name": "_rewardPool",
          "type": "address"
        },
        {
          "internalType": "uint256",
          "name": "_rewardPerBlock",
          "type": "uint256"
        },
        {
          "internalType": "uint256",
          "name": "_blocksToWait",
          "type": "uint256"
        }
      ],
      "stateMutability": "nonpayable",
      "type": "constructor"
    },
    {
      "anonymous": false,
      "inputs": [
        {
          "indexed": false,
          "internalType": "uint256",
          "name": "_blocksRewarded",
          "type": "uint256"
        },
        {
          "indexed": false,
          "internalType": "uint256",
          "name": "_amountRewarded",
          "type": "uint256"
        },
        {
          "indexed": false,
          "internalType": "uint256",
          "name": "_time",
          "type": "uint256"
        }
      ],
      "name": "PoolUpdated",
      "type": "event"
    },
    {
      "anonymous": false,
      "inputs": [
        {
          "indexed": false,
          "internalType": "address",
          "name": "_staker",
          "type": "address"
        },
        {
          "indexed": false,
          "internalType": "uint256",
          "name": "_rewardsClaimed",
          "type": "uint256"
        },
        {
          "indexed": false,
          "internalType": "uint256",
          "name": "_time",
          "type": "uint256"
        }
      ],
      "name": "RewardsClaimed",
      "type": "event"
    },
    {
      "anonymous": false,
      "inputs": [
        {
          "indexed": false,
          "internalType": "address",
          "name": "_staker",
          "type": "address"
        },
        {
          "indexed": false,
          "internalType": "uint256",
          "name": "_amount",
          "type": "uint256"
        },
        {
          "indexed": false,
          "internalType": "uint256",
          "name": "_totalStaked",
          "type": "uint256"
        },
        {
          "indexed": false,
          "internalType": "uint256",
          "name": "_time",
          "type": "uint256"
        }
      ],
      "name": "StakeCompleted",
      "type": "event"
    },
    {
      "anonymous": false,
      "inputs": [
        {
          "indexed": false,
          "internalType": "address",
          "name": "_previous",
          "type": "address"
        },
        {
          "indexed": false,
          "internalType": "address",
          "name": "_next",
          "type": "address"
        },
        {
          "indexed": false,
          "internalType": "uint256",
          "name": "_time",
          "type": "uint256"
        }
      ],
      "name": "TransferredOwnership",
      "type": "event"
    },
    {
      "anonymous": false,
      "inputs": [
        {
          "indexed": false,
          "internalType": "address",
          "name": "_staker",
          "type": "address"
        },
        {
          "indexed": false,
          "internalType": "uint256",
          "name": "_amount",
          "type": "uint256"
        },
        {
          "indexed": false,
          "internalType": "uint256",
          "name": "_time",
          "type": "uint256"
        }
      ],
      "name": "WithdrawCompleted",
      "type": "event"
    },
    {
      "inputs": [],
      "name": "LPToken",
      "outputs": [
        {
          "internalType": "contract IERC20",
          "name": "",
          "type": "address"
        }
      ],
      "stateMutability": "view",
      "type": "function"
    },
    {
      "inputs": [],
      "name": "TAOToken",
      "outputs": [
        {
          "internalType": "contract IERC20",
          "name": "",
          "type": "address"
        }
      ],
      "stateMutability": "view",
      "type": "function"
    },
    {
      "inputs": [],
      "name": "accTAOPerShare",
      "outputs": [
        {
          "internalType": "uint256",
          "name": "",
          "type": "uint256"
        }
      ],
      "stateMutability": "view",
      "type": "function"
    },
    {
      "inputs": [],
      "name": "claimRewards",
      "outputs": [
        {
          "internalType": "bool",
          "name": "",
          "type": "bool"
        }
      ],
      "stateMutability": "nonpayable",
      "type": "function"
    },
    {
      "inputs": [
        {
          "internalType": "address",
          "name": "_staker",
          "type": "address"
        }
      ],
      "name": "getUserBalance",
      "outputs": [
        {
          "internalType": "uint256",
          "name": "_amountStaked",
          "type": "uint256"
        }
      ],
      "stateMutability": "view",
      "type": "function"
    },
    {
      "inputs": [],
      "name": "lastRewardBlock",
      "outputs": [
        {
          "internalType": "uint256",
          "name": "",
          "type": "uint256"
        }
      ],
      "stateMutability": "view",
      "type": "function"
    },
    {
      "inputs": [],
      "name": "owner",
      "outputs": [
        {
          "internalType": "address",
          "name": "",
          "type": "address"
        }
      ],
      "stateMutability": "view",
      "type": "function"
    },
    {
      "inputs": [
        {
          "internalType": "address",
          "name": "_staker",
          "type": "address"
        }
      ],
      "name": "pendingRewards",
      "outputs": [
        {
          "internalType": "uint256",
          "name": "",
          "type": "uint256"
        }
      ],
      "stateMutability": "view",
      "type": "function"
    },
    {
      "inputs": [],
      "name": "rewardPerBlock",
      "outputs": [
        {
          "internalType": "uint256",
          "name": "",
          "type": "uint256"
        }
      ],
      "stateMutability": "view",
      "type": "function"
    },
    {
      "inputs": [],
      "name": "rewardPool",
      "outputs": [
        {
          "internalType": "address",
          "name": "",
          "type": "address"
        }
      ],
      "stateMutability": "view",
      "type": "function"
    },
    {
      "inputs": [
        {
          "internalType": "uint256",
          "name": "_rewardPerBlock",
          "type": "uint256"
        }
      ],
      "name": "setRewardPerBlock",
      "outputs": [
        {
          "internalType": "bool",
          "name": "",
          "type": "bool"
        }
      ],
      "stateMutability": "nonpayable",
      "type": "function"
    },
    {
      "inputs": [
        {
          "internalType": "uint256",
          "name": "_amount",
          "type": "uint256"
        }
      ],
      "name": "stakeLP",
      "outputs": [
        {
          "internalType": "bool",
          "name": "",
          "type": "bool"
        }
      ],
      "stateMutability": "nonpayable",
      "type": "function"
    },
    {
      "inputs": [],
      "name": "totalStaked",
      "outputs": [
        {
          "internalType": "uint256",
          "name": "",
          "type": "uint256"
        }
      ],
      "stateMutability": "view",
      "type": "function"
    },
    {
      "inputs": [
        {
          "internalType": "address",
          "name": "_owner",
          "type": "address"
        }
      ],
      "name": "transferOwnership",
      "outputs": [
        {
          "internalType": "bool",
          "name": "",
          "type": "bool"
        }
      ],
      "stateMutability": "nonpayable",
      "type": "function"
    },
    {
      "inputs": [],
      "name": "unstakeLP",
      "outputs": [
        {
          "internalType": "bool",
          "name": "",
          "type": "bool"
        }
      ],
      "stateMutability": "nonpayable",
      "type": "function"
    },
    {
      "inputs": [],
      "name": "updatePool",
      "outputs": [
        {
          "internalType": "bool",
          "name": "",
          "type": "bool"
        }
      ],
      "stateMutability": "nonpayable",
      "type": "function"
    },
    {
      "inputs": [
        {
          "internalType": "address",
          "name": "",
          "type": "address"
        }
      ],
      "name": "userDetails",
      "outputs": [
        {
          "internalType": "uint256",
          "name": "_LPDeposited",
          "type": "uint256"
        },
        {
          "internalType": "uint256",
          "name": "_rewardDebt",
          "type": "uint256"
        }
      ],
      "stateMutability": "view",
      "type": "function"
    }
  ],
  "transactionHash": "0x86085b160fedac306dfd58eb660ca9681ab93edc9fcc01823bd32d48921c1387",
  "args": [
    "0x529De98dA7ba32e4de6F478EbA2387ad75561ec0",
    "0x7065DdA3f8Ec5F6C155648BdeE4420c0525D93C6",
    "0x08b3545337EfDe91c7d3767EE3A549ba197628d7",
    "20000000",
    "3600"
  ],
  "solcInputHash": "98a882d0dc281184015b53647ac9f23d",
  "bytecode": "0x608060405234801561001057600080fd5b50604051611172380380611172833981810160405260a081101561003357600080fd5b50805160208083015160408401516060850151608090950151600080546001600160a01b038088166001600160a01b0319928316179092556001805483871690831617905560028054928516929091169190911790559394919390926100a49043908390610a9b6100c5821b17901c565b600655506004555050600380546001600160a01b0319163317905550610126565b60008282018381101561011f576040805162461bcd60e51b815260206004820152601b60248201527f536166654d6174683a206164646974696f6e206f766572666c6f770000000000604482015290519081900360640190fd5b9392505050565b61103d806101356000396000f3fe608060405234801561001057600080fd5b506004361061010b5760003560e01c8063817b1cd2116100a2578063bb872b4a11610071578063bb872b4a14610225578063c819d38814610242578063e3161ddd1461024a578063e5da2cb214610252578063f2fde38b1461026f5761010b565b8063817b1cd2146102055780638ae39cac1461020d5780638da5cb5b14610215578063a9f8d1811461021d5761010b565b806347734892116100de578063477348921461019057806348dec2a7146101b65780635b1868a2146101f557806366666aa9146101fd5761010b565b8063011cee36146101105780630485d4db1461013457806331d7a2621461013c578063372500ab14610174575b600080fd5b610118610295565b604080516001600160a01b039092168252519081900360200190f35b6101186102a4565b6101626004803603602081101561015257600080fd5b50356001600160a01b03166102b3565b60408051918252519081900360200190f35b61017c610386565b604080519115158252519081900360200190f35b610162600480360360208110156101a657600080fd5b50356001600160a01b031661049f565b6101dc600480360360208110156101cc57600080fd5b50356001600160a01b03166104ba565b6040805192835260208301919091528051918290030190f35b6101626104d3565b6101186104d9565b6101626104e8565b6101626104ee565b6101186104f4565b610162610503565b61017c6004803603602081101561023b57600080fd5b5035610509565b61017c610561565b61017c6106c7565b61017c6004803603602081101561026857600080fd5b5035610834565b61017c6004803603602081101561028557600080fd5b50356001600160a01b03166109e1565b6000546001600160a01b031681565b6001546001600160a01b031681565b6001600160a01b0381166000908152600860205260408120600554600654431180156102e0575060075415155b1561034d5760006102fc60065443610afe90919063ffffffff16565b9050600061031560045483610b4090919063ffffffff16565b905061034861034160075461033b670de0b6b3a764000085610b4090919063ffffffff16565b90610b99565b8490610a9b565b925050505b61037e8260010154610378670de0b6b3a764000061033b858760000154610b4090919063ffffffff16565b90610afe565b949350505050565b60006103906106c7565b50336000908152600860205260408120600181015460055482549293926103ca929161037891670de0b6b3a76400009161033b9190610b40565b90506103f1670de0b6b3a764000061033b6005548560000154610b4090919063ffffffff16565b60018301558061043f576040805162461bcd60e51b81526020600482015260146024820152734e6f207265776172647320746f20636c61696d2160601b604482015290519081900360640190fd5b600154610456906001600160a01b03163383610bdb565b6040805133815260208101839052428183015290517fdacbdde355ba930696a362ea6738feb9f8bd52dfb3d81947558fd3217e23e3259181900360600190a16001925050505b90565b6001600160a01b031660009081526008602052604090205490565b6008602052600090815260409020805460019091015482565b60055481565b6002546001600160a01b031681565b60075481565b60045481565b6003546001600160a01b031681565b60065481565b6003546000906001600160a01b03163314610558576040805162461bcd60e51b815260206004820152600a6024820152694f776e6572206f6e6c7960b01b604482015290519081900360640190fd5b50600455600190565b600061056b6106c7565b5033600090815260086020526040902080546105c2576040805162461bcd60e51b81526020600482015260116024820152705573657220686173206e6f207374616b6560781b604482015290519081900360640190fd5b60006105f18260010154610378670de0b6b3a764000061033b6005548760000154610b4090919063ffffffff16565b8254600080855560018501556007549192509061060e9082610afe565b600755600054610628906001600160a01b03163383610bdb565b60015461063f906001600160a01b03163384610bdb565b6040805133815260208101839052428183015290517f0502837c293951f8cf960d168bcedcf3e4531ffd7010af47fe48bbff7917d9b49181900360600190a16040805133815260208101849052428183015290517fdacbdde355ba930696a362ea6738feb9f8bd52dfb3d81947558fd3217e23e3259181900360600190a16001935050505090565b600060065443116106da5750600161049c565b6007546106ed575043600655600161049c565b600061070460065443610afe90919063ffffffff16565b4360065560045490915060009061071c908390610b40565b905061074b61074260075461033b670de0b6b3a764000085610b4090919063ffffffff16565b60055490610a9b565b6005556001546040805163095ea7b360e01b81523060048201526024810184905290516001600160a01b039092169163095ea7b3916044808201926020929091908290030181600087803b1580156107a257600080fd5b505af11580156107b6573d6000803e3d6000fd5b505050506040513d60208110156107cc57600080fd5b50506002546001546107ec916001600160a01b0391821691163084610c32565b6040805183815260208101839052428183015290517f17b8644f386d1c7c7138ef98b3c8035622bbe94d7be9b26f71d2654a547c29439181900360600190a160019250505090565b600080821161088a576040805162461bcd60e51b815260206004820152601960248201527f43616e206e6f74207374616b652030204c5020746f6b656e7300000000000000604482015290519081900360640190fd5b6108926106c7565b503360009081526008602052604090208054156109395760006108d88260010154610378670de0b6b3a764000061033b6005548760000154610b4090919063ffffffff16565b90508015610937576001546108f7906001600160a01b03163383610bdb565b6040805133815260208101839052428183015290517fdacbdde355ba930696a362ea6738feb9f8bd52dfb3d81947558fd3217e23e3259181900360600190a15b505b600054610951906001600160a01b0316333086610c32565b805461095d9084610a9b565b815560075461096c9084610a9b565b600755600554815461098b91670de0b6b3a76400009161033b91610b40565b60018201558054604080513381526020810186905280820192909252426060830152517f0f392fab93032b655a2790a0aa9babb8772dad4d3bf28e0b2f7f3b6a2ae6fae39181900360800190a150600192915050565b6003546000906001600160a01b03163314610a30576040805162461bcd60e51b815260206004820152600a6024820152694f776e6572206f6e6c7960b01b604482015290519081900360640190fd5b600380546001600160a01b038481166001600160a01b031983161792839055604080519282168084529390911660208301524282820152517f30e048e48a73aeea72c325c17c7dec1889a58fef3848c2d5fbb81502c4702f319181900360600190a150600192915050565b600082820183811015610af5576040805162461bcd60e51b815260206004820152601b60248201527f536166654d6174683a206164646974696f6e206f766572666c6f770000000000604482015290519081900360640190fd5b90505b92915050565b6000610af583836040518060400160405280601e81526020017f536166654d6174683a207375627472616374696f6e206f766572666c6f770000815250610c92565b600082610b4f57506000610af8565b82820282848281610b5c57fe5b0414610af55760405162461bcd60e51b8152600401808060200182810382526021815260200180610fbd6021913960400191505060405180910390fd5b6000610af583836040518060400160405280601a81526020017f536166654d6174683a206469766973696f6e206279207a65726f000000000000815250610d29565b604080516001600160a01b038416602482015260448082018490528251808303909101815260649091019091526020810180516001600160e01b031663a9059cbb60e01b179052610c2d908490610d8e565b505050565b604080516001600160a01b0380861660248301528416604482015260648082018490528251808303909101815260849091019091526020810180516001600160e01b03166323b872dd60e01b179052610c8c908590610d8e565b50505050565b60008184841115610d215760405162461bcd60e51b81526004018080602001828103825283818151815260200191508051906020019080838360005b83811015610ce6578181015183820152602001610cce565b50505050905090810190601f168015610d135780820380516001836020036101000a031916815260200191505b509250505060405180910390fd5b505050900390565b60008183610d785760405162461bcd60e51b8152602060048201818152835160248401528351909283926044909101919085019080838360008315610ce6578181015183820152602001610cce565b506000838581610d8457fe5b0495945050505050565b6060610de3826040518060400160405280602081526020017f5361666545524332303a206c6f772d6c6576656c2063616c6c206661696c6564815250856001600160a01b0316610e3f9092919063ffffffff16565b805190915015610c2d57808060200190516020811015610e0257600080fd5b5051610c2d5760405162461bcd60e51b815260040180806020018281038252602a815260200180610fde602a913960400191505060405180910390fd5b606061037e84846000856060610e5485610fb6565b610ea5576040805162461bcd60e51b815260206004820152601d60248201527f416464726573733a2063616c6c20746f206e6f6e2d636f6e7472616374000000604482015290519081900360640190fd5b60006060866001600160a01b031685876040518082805190602001908083835b60208310610ee45780518252601f199092019160209182019101610ec5565b6001836020036101000a03801982511681845116808217855250505050505090500191505060006040518083038185875af1925050503d8060008114610f46576040519150601f19603f3d011682016040523d82523d6000602084013e610f4b565b606091505b50915091508115610f5f57915061037e9050565b805115610f6f5780518082602001fd5b60405162461bcd60e51b8152602060048201818152865160248401528651879391928392604401919085019080838360008315610ce6578181015183820152602001610cce565b3b15159056fe536166654d6174683a206d756c7469706c69636174696f6e206f766572666c6f775361666545524332303a204552433230206f7065726174696f6e20646964206e6f742073756363656564a2646970667358221220cc2f1e4392d0ad5733498cb7f0a60070a56bc94abbeb29e6ad73d7b5205479b264736f6c63430007050033",
  "devdoc": {
    "kind": "dev",
    "methods": {},
    "version": 1
  },
  "userdoc": {
    "kind": "user",
    "methods": {},
    "version": 1
  },
  "storageLayout": {
    "storage": [
      {
        "astId": 1170,
        "contract": "contracts/LP/TaoLPStaking.sol:TaoLPStaking",
        "label": "LPToken",
        "offset": 0,
        "slot": "0",
        "type": "t_contract(IERC20)1103"
      },
      {
        "astId": 1172,
        "contract": "contracts/LP/TaoLPStaking.sol:TaoLPStaking",
        "label": "TAOToken",
        "offset": 0,
        "slot": "1",
        "type": "t_contract(IERC20)1103"
      },
      {
        "astId": 1174,
        "contract": "contracts/LP/TaoLPStaking.sol:TaoLPStaking",
        "label": "rewardPool",
        "offset": 0,
        "slot": "2",
        "type": "t_address"
      },
      {
        "astId": 1176,
        "contract": "contracts/LP/TaoLPStaking.sol:TaoLPStaking",
        "label": "owner",
        "offset": 0,
        "slot": "3",
        "type": "t_address"
      },
      {
        "astId": 1178,
        "contract": "contracts/LP/TaoLPStaking.sol:TaoLPStaking",
        "label": "rewardPerBlock",
        "offset": 0,
        "slot": "4",
        "type": "t_uint256"
      },
      {
        "astId": 1180,
        "contract": "contracts/LP/TaoLPStaking.sol:TaoLPStaking",
        "label": "accTAOPerShare",
        "offset": 0,
        "slot": "5",
        "type": "t_uint256"
      },
      {
        "astId": 1182,
        "contract": "contracts/LP/TaoLPStaking.sol:TaoLPStaking",
        "label": "lastRewardBlock",
        "offset": 0,
        "slot": "6",
        "type": "t_uint256"
      },
      {
        "astId": 1184,
        "contract": "contracts/LP/TaoLPStaking.sol:TaoLPStaking",
        "label": "totalStaked",
        "offset": 0,
        "slot": "7",
        "type": "t_uint256"
      },
      {
        "astId": 1188,
        "contract": "contracts/LP/TaoLPStaking.sol:TaoLPStaking",
        "label": "userDetails",
        "offset": 0,
        "slot": "8",
        "type": "t_mapping(t_address,t_struct(User)1126_storage)"
      }
    ],
    "types": {
      "t_address": {
        "encoding": "inplace",
        "label": "address",
        "numberOfBytes": "20"
      },
      "t_contract(IERC20)1103": {
        "encoding": "inplace",
        "label": "contract IERC20",
        "numberOfBytes": "20"
      },
      "t_mapping(t_address,t_struct(User)1126_storage)": {
        "encoding": "mapping",
        "key": "t_address",
        "label": "mapping(address => struct TaoLPStaking.User)",
        "numberOfBytes": "32",
        "value": "t_struct(User)1126_storage"
      },
      "t_struct(User)1126_storage": {
        "encoding": "inplace",
        "label": "struct TaoLPStaking.User",
        "members": [
          {
            "astId": 1123,
            "contract": "contracts/LP/TaoLPStaking.sol:TaoLPStaking",
            "label": "_LPDeposited",
            "offset": 0,
            "slot": "0",
            "type": "t_uint256"
          },
          {
            "astId": 1125,
            "contract": "contracts/LP/TaoLPStaking.sol:TaoLPStaking",
            "label": "_rewardDebt",
            "offset": 0,
            "slot": "1",
            "type": "t_uint256"
          }
        ],
        "numberOfBytes": "64"
      },
      "t_uint256": {
        "encoding": "inplace",
        "label": "uint256",
        "numberOfBytes": "32"
      }
    }
  }
}