{
  "address": "0x4c6846C1B074852aBd18e2E6Cf0A2bC62AcEd5E7",
  "abi": [
    {
      "inputs": [
        {
          "internalType": "contract IERC20",
          "name": "_busd",
          "type": "address"
        }
      ],
      "stateMutability": "nonpayable",
      "type": "constructor"
    },
    {
      "anonymous": false,
      "inputs": [
        {
          "indexed": false,
          "internalType": "uint256",
          "name": "claimTimestamp",
          "type": "uint256"
        }
      ],
      "name": "ClaimUnlockedEvent",
      "type": "event"
    },
    {
      "anonymous": false,
      "inputs": [
        {
          "indexed": false,
          "internalType": "uint256",
          "name": "endTimestamp",
          "type": "uint256"
        }
      ],
      "name": "EndUnlockedEvent",
      "type": "event"
    },
    {
      "anonymous": false,
      "inputs": [
        {
          "indexed": true,
          "internalType": "address",
          "name": "previousOwner",
          "type": "address"
        },
        {
          "indexed": true,
          "internalType": "address",
          "name": "newOwner",
          "type": "address"
        }
      ],
      "name": "OwnershipTransferred",
      "type": "event"
    },
    {
      "anonymous": false,
      "inputs": [
        {
          "indexed": false,
          "internalType": "uint256",
          "name": "startTimestamp",
          "type": "uint256"
        }
      ],
      "name": "StartUnlockedEvent",
      "type": "event"
    },
    {
      "inputs": [],
      "name": "BUSD",
      "outputs": [
        {
          "internalType": "contract IERC20",
          "name": "",
          "type": "address"
        }
      ],
      "stateMutability": "view",
      "type": "function"
    },
    {
      "inputs": [],
      "name": "TAO",
      "outputs": [
        {
          "internalType": "contract IERC20",
          "name": "",
          "type": "address"
        }
      ],
      "stateMutability": "view",
      "type": "function"
    },
    {
      "inputs": [
        {
          "internalType": "address[]",
          "name": "_addresses",
          "type": "address[]"
        }
      ],
      "name": "addMultipleWhitelistedAddresses",
      "outputs": [],
      "stateMutability": "nonpayable",
      "type": "function"
    },
    {
      "inputs": [
        {
          "internalType": "address",
          "name": "_address",
          "type": "address"
        }
      ],
      "name": "addWhitelistedAddress",
      "outputs": [],
      "stateMutability": "nonpayable",
      "type": "function"
    },
    {
      "inputs": [
        {
          "internalType": "address",
          "name": "",
          "type": "address"
        }
      ],
      "name": "boughtTAO",
      "outputs": [
        {
          "internalType": "bool",
          "name": "",
          "type": "bool"
        }
      ],
      "stateMutability": "view",
      "type": "function"
    },
    {
      "inputs": [],
      "name": "busdRaised",
      "outputs": [
        {
          "internalType": "uint256",
          "name": "",
          "type": "uint256"
        }
      ],
      "stateMutability": "view",
      "type": "function"
    },
    {
      "inputs": [
        {
          "internalType": "uint256",
          "name": "_amountBUSD",
          "type": "uint256"
        }
      ],
      "name": "buy",
      "outputs": [
        {
          "internalType": "bool",
          "name": "",
          "type": "bool"
        }
      ],
      "stateMutability": "nonpayable",
      "type": "function"
    },
    {
      "inputs": [],
      "name": "claim",
      "outputs": [],
      "stateMutability": "nonpayable",
      "type": "function"
    },
    {
      "inputs": [],
      "name": "claimUnlocked",
      "outputs": [
        {
          "internalType": "bool",
          "name": "",
          "type": "bool"
        }
      ],
      "stateMutability": "view",
      "type": "function"
    },
    {
      "inputs": [
        {
          "internalType": "address",
          "name": "",
          "type": "address"
        }
      ],
      "name": "claimable",
      "outputs": [
        {
          "internalType": "uint256",
          "name": "",
          "type": "uint256"
        }
      ],
      "stateMutability": "view",
      "type": "function"
    },
    {
      "inputs": [
        {
          "internalType": "address",
          "name": "user",
          "type": "address"
        }
      ],
      "name": "claimableAmount",
      "outputs": [
        {
          "internalType": "uint256",
          "name": "",
          "type": "uint256"
        }
      ],
      "stateMutability": "view",
      "type": "function"
    },
    {
      "inputs": [
        {
          "internalType": "address",
          "name": "",
          "type": "address"
        }
      ],
      "name": "claimed",
      "outputs": [
        {
          "internalType": "uint256",
          "name": "",
          "type": "uint256"
        }
      ],
      "stateMutability": "view",
      "type": "function"
    },
    {
      "inputs": [
        {
          "internalType": "uint256",
          "name": "_amountToConvert",
          "type": "uint256"
        }
      ],
      "name": "convertBUSDToTAO",
      "outputs": [
        {
          "internalType": "bool",
          "name": "",
          "type": "bool"
        }
      ],
      "stateMutability": "nonpayable",
      "type": "function"
    },
    {
      "inputs": [],
      "name": "endUnlocked",
      "outputs": [
        {
          "internalType": "bool",
          "name": "",
          "type": "bool"
        }
      ],
      "stateMutability": "view",
      "type": "function"
    },
    {
      "inputs": [],
      "name": "getAllotmentPerBuyer",
      "outputs": [
        {
          "internalType": "uint256",
          "name": "",
          "type": "uint256"
        }
      ],
      "stateMutability": "view",
      "type": "function"
    },
    {
      "inputs": [
        {
          "internalType": "uint256",
          "name": "_taoTarget",
          "type": "uint256"
        },
        {
          "internalType": "uint256",
          "name": "_price",
          "type": "uint256"
        },
        {
          "internalType": "address",
          "name": "_vault",
          "type": "address"
        }
      ],
      "name": "initialize",
      "outputs": [
        {
          "internalType": "bool",
          "name": "",
          "type": "bool"
        }
      ],
      "stateMutability": "nonpayable",
      "type": "function"
    },
    {
      "inputs": [],
      "name": "isInitialized",
      "outputs": [
        {
          "internalType": "bool",
          "name": "",
          "type": "bool"
        }
      ],
      "stateMutability": "view",
      "type": "function"
    },
    {
      "inputs": [],
      "name": "isTaoSet",
      "outputs": [
        {
          "internalType": "bool",
          "name": "",
          "type": "bool"
        }
      ],
      "stateMutability": "view",
      "type": "function"
    },
    {
      "inputs": [],
      "name": "owner",
      "outputs": [
        {
          "internalType": "address",
          "name": "",
          "type": "address"
        }
      ],
      "stateMutability": "view",
      "type": "function"
    },
    {
      "inputs": [],
      "name": "price",
      "outputs": [
        {
          "internalType": "uint256",
          "name": "",
          "type": "uint256"
        }
      ],
      "stateMutability": "view",
      "type": "function"
    },
    {
      "inputs": [
        {
          "internalType": "address",
          "name": "_address",
          "type": "address"
        }
      ],
      "name": "removeWhitelistedAddress",
      "outputs": [],
      "stateMutability": "nonpayable",
      "type": "function"
    },
    {
      "inputs": [],
      "name": "renounceOwnership",
      "outputs": [],
      "stateMutability": "nonpayable",
      "type": "function"
    },
    {
      "inputs": [
        {
          "internalType": "uint256",
          "name": "_price",
          "type": "uint256"
        }
      ],
      "name": "setPrice",
      "outputs": [],
      "stateMutability": "nonpayable",
      "type": "function"
    },
    {
      "inputs": [
        {
          "internalType": "address",
          "name": "_tao",
          "type": "address"
        }
      ],
      "name": "setTao",
      "outputs": [],
      "stateMutability": "nonpayable",
      "type": "function"
    },
    {
      "inputs": [
        {
          "internalType": "uint256",
          "name": "_taoTarget",
          "type": "uint256"
        }
      ],
      "name": "setTaoTarget",
      "outputs": [],
      "stateMutability": "nonpayable",
      "type": "function"
    },
    {
      "inputs": [],
      "name": "startUnlocked",
      "outputs": [
        {
          "internalType": "bool",
          "name": "",
          "type": "bool"
        }
      ],
      "stateMutability": "view",
      "type": "function"
    },
    {
      "inputs": [],
      "name": "taoTarget",
      "outputs": [
        {
          "internalType": "uint256",
          "name": "",
          "type": "uint256"
        }
      ],
      "stateMutability": "view",
      "type": "function"
    },
    {
      "inputs": [],
      "name": "totalOwed",
      "outputs": [
        {
          "internalType": "uint256",
          "name": "",
          "type": "uint256"
        }
      ],
      "stateMutability": "view",
      "type": "function"
    },
    {
      "inputs": [],
      "name": "totalWhitelisted",
      "outputs": [
        {
          "internalType": "uint256",
          "name": "",
          "type": "uint256"
        }
      ],
      "stateMutability": "view",
      "type": "function"
    },
    {
      "inputs": [
        {
          "internalType": "address",
          "name": "newOwner",
          "type": "address"
        }
      ],
      "name": "transferOwnership",
      "outputs": [],
      "stateMutability": "nonpayable",
      "type": "function"
    },
    {
      "inputs": [],
      "name": "unlockClaim",
      "outputs": [],
      "stateMutability": "nonpayable",
      "type": "function"
    },
    {
      "inputs": [],
      "name": "unlockEnd",
      "outputs": [],
      "stateMutability": "nonpayable",
      "type": "function"
    },
    {
      "inputs": [],
      "name": "unlockStart",
      "outputs": [],
      "stateMutability": "nonpayable",
      "type": "function"
    },
    {
      "inputs": [],
      "name": "vault",
      "outputs": [
        {
          "internalType": "address",
          "name": "",
          "type": "address"
        }
      ],
      "stateMutability": "view",
      "type": "function"
    },
    {
      "inputs": [
        {
          "internalType": "address",
          "name": "",
          "type": "address"
        }
      ],
      "name": "whitelistedAddresses",
      "outputs": [
        {
          "internalType": "bool",
          "name": "",
          "type": "bool"
        }
      ],
      "stateMutability": "view",
      "type": "function"
    },
    {
      "inputs": [],
      "name": "withdrawRemainingBusd",
      "outputs": [
        {
          "internalType": "bool",
          "name": "",
          "type": "bool"
        }
      ],
      "stateMutability": "nonpayable",
      "type": "function"
    }
  ],
  "transactionHash": "0x59141554ddb8b0151612b54e1a70c253c9deb566279075927cbb44362bec2960",
  "args": [
    "0xe9e7CEA3DedcA5984780Bafc599bD69ADd087D56"
  ],
  "solcInputHash": "c364ca02b5d4306777d2b3874e90a46b",
  "bytecode": "0x608060405234801561001057600080fd5b506040516121a03803806121a08339818101604052602081101561003357600080fd5b5051600061003f6100b8565b600080546001600160a01b0319166001600160a01b0383169081178255604051929350917f8be0079c531659141344cd1fd0a4f28419497f9722a3daafe3b4186f6b6457e0908290a350600280546001600160a01b0319166001600160a01b03929092169190911790556000600a819055600b556100bc565b3390565b6120d5806100cb6000396000f3fe608060405234801561001057600080fd5b506004361061021c5760003560e01c8063731f04a311610125578063d0f3ca9a116100ad578063e7fa9f7d1161007c578063e7fa9f7d14610531578063f2fde38b14610539578063fbfa77cf1461055f578063fe1cce9c14610567578063feafaa6b1461056f5761021c565b8063d0f3ca9a146104e7578063d96a094a146104ef578063de31d5331461050c578063e6e25d10146105295761021c565b8063a035b1fe116100f4578063a035b1fe14610462578063a6ab36f21461046a578063ab7db8c11461049c578063b32cfa07146104b9578063c884ef83146104c15761021c565b8063731f04a31461040f57806389885049146104175780638da5cb5b1461043d57806391b7f5ed146104455761021c565b806345013546116101a857806350e497641161017757806350e4976414610345578063524c9aa41461034d578063530cd5ab146103bb5780636d64971c146103e1578063715018a6146104075761021c565b8063450135461461030757806346effad11461030f578063484f4ea9146103355780634e71d92d1461033d5761021c565b806329975b43116101ef57806329975b43146102a157806330297226146102c9578063392e53cd146102d1578063402914f5146102d957806341dfe803146102ff5761021c565b806304072b201461022157806306c933d81461023b57806316e17852146102755780631d8e59d914610299575b600080fd5b610229610577565b60408051918252519081900360200190f35b6102616004803603602081101561025157600080fd5b50356001600160a01b031661057d565b604080519115158252519081900360200190f35b61027d610592565b604080516001600160a01b039092168252519081900360200190f35b6102616105a1565b6102c7600480360360208110156102b757600080fd5b50356001600160a01b03166105af565b005b610229610649565b61026161064f565b610229600480360360208110156102ef57600080fd5b50356001600160a01b031661065f565b610261610671565b610261610681565b6102c76004803603602081101561032557600080fd5b50356001600160a01b031661068a565b61027d610774565b6102c7610783565b6102616109a7565b6102c76004803603602081101561036357600080fd5b810190602081018135600160201b81111561037d57600080fd5b82018360208201111561038f57600080fd5b803590602001918460208302840111600160201b831117156103b057600080fd5b5090925090506109b6565b6102c7600480360360208110156103d157600080fd5b50356001600160a01b0316610a83565b610261600480360360208110156103f757600080fd5b50356001600160a01b0316610b13565b6102c7610b28565b610229610bd4565b6102296004803603602081101561042d57600080fd5b50356001600160a01b0316610bda565b61027d610bf5565b6102c76004803603602081101561045b57600080fd5b5035610c04565b610229610cbe565b6102616004803603606081101561048057600080fd5b50803590602081013590604001356001600160a01b0316610cc4565b6102c7600480360360208110156104b257600080fd5b5035610d84565b610261610e3e565b610229600480360360208110156104d757600080fd5b50356001600160a01b0316611043565b610229611055565b6102616004803603602081101561050557600080fd5b50356110e1565b6102616004803603602081101561052257600080fd5b503561136b565b6102c76115cf565b6102296116cb565b6102c76004803603602081101561054f57600080fd5b50356001600160a01b03166116d1565b61027d6117d3565b6102c76117e2565b6102c7611937565b600c5481565b60046020526000908152604090205460ff1681565b6001546001600160a01b031681565b600d54610100900460ff1681565b6105b7611adf565b6001600160a01b03166105c8610bf5565b6001600160a01b031614610611576040805162461bcd60e51b81526020600482018190526024820152600080516020612056833981519152604482015290519081900360640190fd5b6001600160a01b0381166000908152600460205260409020805460ff19166001908117909155600c5461064391611ae3565b600c5550565b60095481565b600d546301000000900460ff1681565b60066020526000908152604090205481565b600d54600160201b900460ff1681565b600d5460ff1681565b610692611adf565b6001600160a01b03166106a3610bf5565b6001600160a01b0316146106ec576040805162461bcd60e51b81526020600482018190526024820152600080516020612056833981519152604482015290519081900360640190fd5b600d54600160201b900460ff161561073d576040805162461bcd60e51b815260206004820152600f60248201526e15185bc8185b1c9958591e481cd95d608a1b604482015290519081900360640190fd5b600180546001600160a01b039092166001600160a01b0319909216919091179055600d805464ff000000001916600160201b179055565b6002546001600160a01b031681565b600d5462010000900460ff166107db576040805162461bcd60e51b815260206004820152601860248201527718db185a5b5a5b99c81b9bdd08185b1b1bddd959081e595d60421b604482015290519081900360640190fd5b3360009081526004602052604090205460ff16151560011461083e576040805162461bcd60e51b81526020600482015260176024820152761e5bdd48185c99481b9bdd081dda1a5d195b1a5cdd1959604a1b604482015290519081900360640190fd5b33600090815260066020526040902054610892576040805162461bcd60e51b815260206004820152601060248201526f6e6f7468696e6720746f20636c61696d60801b604482015290519081900360640190fd5b3360009081526006602052604081208054919055600a546108b39082611b46565b600a55336000908152600760205260409020546108d09082611ae3565b33600081815260076020908152604080832094909455600154845163a9059cbb60e01b815260048101949094526024840186905293516001600160a01b039094169363a9059cbb93604480820194918390030190829087803b15801561093557600080fd5b505af1158015610949573d6000803e3d6000fd5b505050506040513d602081101561095f57600080fd5b50516109a4576040805162461bcd60e51b815260206004820152600f60248201526e6661696c656420746f20636c61696d60881b604482015290519081900360640190fd5b50565b600d5462010000900460ff1681565b6109be611adf565b6001600160a01b03166109cf610bf5565b6001600160a01b031614610a18576040805162461bcd60e51b81526020600482018190526024820152600080516020612056833981519152604482015290519081900360640190fd5b60005b81811015610a6e57600160046000858585818110610a3557fe5b602090810292909201356001600160a01b0316835250810191909152604001600020805460ff1916911515919091179055600101610a1b565b50600c54610a7c9082611ae3565b600c555050565b610a8b611adf565b6001600160a01b0316610a9c610bf5565b6001600160a01b031614610ae5576040805162461bcd60e51b81526020600482018190526024820152600080516020612056833981519152604482015290519081900360640190fd5b6001600160a01b0381166000908152600460205260409020805460ff19169055600c54610643906001611b46565b60056020526000908152604090205460ff1681565b610b30611adf565b6001600160a01b0316610b41610bf5565b6001600160a01b031614610b8a576040805162461bcd60e51b81526020600482018190526024820152600080516020612056833981519152604482015290519081900360640190fd5b600080546040516001600160a01b03909116907f8be0079c531659141344cd1fd0a4f28419497f9722a3daafe3b4186f6b6457e0908390a3600080546001600160a01b0319169055565b600b5481565b6001600160a01b031660009081526006602052604090205490565b6000546001600160a01b031690565b610c0c611adf565b6001600160a01b0316610c1d610bf5565b6001600160a01b031614610c66576040805162461bcd60e51b81526020600482018190526024820152600080516020612056833981519152604482015290519081900360640190fd5b600d5460ff1615610cb9576040805162461bcd60e51b815260206004820152601860248201527750726573616c6520616c726561647920737461727465642160401b604482015290519081900360640190fd5b600855565b60085481565b6000610cce611adf565b6001600160a01b0316610cdf610bf5565b6001600160a01b031614610d28576040805162461bcd60e51b81526020600482018190526024820152600080516020612056833981519152604482015290519081900360640190fd5b600d546301000000900460ff1615610d3f57600080fd5b5060098390556008829055600d805463ff00000019166301000000179055600380546001600160a01b0383166001600160a01b031990911617905560015b9392505050565b610d8c611adf565b6001600160a01b0316610d9d610bf5565b6001600160a01b031614610de6576040805162461bcd60e51b81526020600482018190526024820152600080516020612056833981519152604482015290519081900360640190fd5b600d5460ff1615610e39576040805162461bcd60e51b815260206004820152601860248201527750726573616c6520616c726561647920737461727465642160401b604482015290519081900360640190fd5b600955565b6000610e48611adf565b6001600160a01b0316610e59610bf5565b6001600160a01b031614610ea2576040805162461bcd60e51b81526020600482018190526024820152600080516020612056833981519152604482015290519081900360640190fd5b600d5460ff16610ef9576040805162461bcd60e51b815260206004820152601860248201527f70726573616c6520686173206e6f742073746172746564210000000000000000604482015290519081900360640190fd5b600d54610100900460ff16610f55576040805162461bcd60e51b815260206004820152601a60248201527f70726573616c6520686173206e6f742079657420656e64656421000000000000604482015290519081900360640190fd5b600d5462010000900460ff16610fad576040805162461bcd60e51b815260206004820152601860248201527718db185a5b5a5b99c81b9bdd08185b1b1bddd959081e595d60421b604482015290519081900360640190fd5b600254604080516370a0823160e01b8152306004820152905161103d9233926001600160a01b03909116916370a0823191602480820192602092909190829003018186803b158015610ffe57600080fd5b505afa158015611012573d6000803e3d6000fd5b505050506040513d602081101561102857600080fd5b50516002546001600160a01b03169190611ba3565b50600190565b60076020526000908152604090205481565b600080600c54116110a5576040805162461bcd60e51b8152602060048201526015602482015274139bd89bd91e481a5cc815da1a5d195b1a5cdd1959605a1b604482015290519081900360640190fd5b6110dc633b9aca006110d06008546110d6600c546110d0600a54600954611b4690919063ffffffff16565b90611bfa565b90611c61565b905090565b600d5460009060ff1661113b576040805162461bcd60e51b815260206004820152601b60248201527f70726573616c6520686173206e6f742079657420737461727465640000000000604482015290519081900360640190fd5b600d54610100900460ff1615611190576040805162461bcd60e51b81526020600482015260156024820152741c1c995cd85b1948185b1c9958591e48195b991959605a1b604482015290519081900360640190fd5b3360009081526004602052604090205460ff1615156001146111f3576040805162461bcd60e51b81526020600482015260176024820152761e5bdd48185c99481b9bdd081dda1a5d195b1a5cdd1959604a1b604482015290519081900360640190fd5b3360009081526005602052604090205460ff161561124f576040805162461bcd60e51b8152602060048201526014602482015273105b1c9958591e4814185c9d1a58da5c185d195960621b604482015290519081900360640190fd5b611257611055565b82111561129f576040805162461bcd60e51b8152602060048201526011602482015270135bdc99481d1a185b88185b1b1bdd1959607a1b604482015290519081900360640190fd5b336000818152600560205260409020805460ff191660011790556002546112d4916001600160a01b0391909116903085611cba565b61130a633b9aca006110d66112f460085486611bfa90919063ffffffff16565b3360009081526006602052604090205490611ae3565b3360009081526006602052604090205560085461133f9061133690633b9aca00906110d6908690611bfa565b600a5490611ae3565b600a55600b5461134f9083611ae3565b600b55600c54611360906001611b46565b600c55506001919050565b6000611375611adf565b6001600160a01b0316611386610bf5565b6001600160a01b0316146113cf576040805162461bcd60e51b81526020600482018190526024820152600080516020612056833981519152604482015290519081900360640190fd5b600d5460ff16611426576040805162461bcd60e51b815260206004820152601b60248201527f70726573616c6520686173206e6f742079657420737461727465640000000000604482015290519081900360640190fd5b600d54610100900460ff1661147b576040805162461bcd60e51b815260206004820152601660248201527550726573616c6520686173206e6f7420656e6465642160501b604482015290519081900360640190fd5b600d54600160201b900460ff166114c8576040805162461bcd60e51b815260206004820152600c60248201526b54616f204e6f74205365742160a01b604482015290519081900360640190fd5b6002546003546040805163095ea7b360e01b81526001600160a01b039283166004820152602481018690529051919092169163095ea7b39160448083019260209291908290030181600087803b15801561152157600080fd5b505af1158015611535573d6000803e3d6000fd5b505050506040513d602081101561154b57600080fd5b505060035460408051637750446f60e01b81526004810185905290516001600160a01b0390921691637750446f916024808201926020929091908290030181600087803b15801561159b57600080fd5b505af11580156115af573d6000803e3d6000fd5b505050506040513d60208110156115c557600080fd5b5060019392505050565b6115d7611adf565b6001600160a01b03166115e8610bf5565b6001600160a01b031614611631576040805162461bcd60e51b81526020600482018190526024820152600080516020612056833981519152604482015290519081900360640190fd5b600d54610100900460ff1615611687576040805162461bcd60e51b815260206004820152601660248201527550726573616c6520616c726561647920656e6465642160501b604482015290519081900360640190fd5b600d805461ff0019166101001790556040805142815290517fdbb898b65754de938e81c6a509625c23cc027521dca30ed62fce6f2e8f838c7a9181900360200190a1565b600a5481565b6116d9611adf565b6001600160a01b03166116ea610bf5565b6001600160a01b031614611733576040805162461bcd60e51b81526020600482018190526024820152600080516020612056833981519152604482015290519081900360640190fd5b6001600160a01b0381166117785760405162461bcd60e51b8152600401808060200182810382526026815260200180611fe96026913960400191505060405180910390fd5b600080546040516001600160a01b03808516939216917f8be0079c531659141344cd1fd0a4f28419497f9722a3daafe3b4186f6b6457e091a3600080546001600160a01b0319166001600160a01b0392909216919091179055565b6003546001600160a01b031681565b6117ea611adf565b6001600160a01b03166117fb610bf5565b6001600160a01b031614611844576040805162461bcd60e51b81526020600482018190526024820152600080516020612056833981519152604482015290519081900360640190fd5b600d5460ff1615611897576040805162461bcd60e51b815260206004820152601860248201527750726573616c6520616c726561647920737461727465642160401b604482015290519081900360640190fd5b600d546301000000900460ff166118f5576040805162461bcd60e51b815260206004820152601a60248201527f50726573616c65206973206e6f7420496e697469616c697a6564000000000000604482015290519081900360640190fd5b600d805460ff191660011790556040805142815290517f84e9d69e36bf0400bf55f47df29cb3bf3b4e5a1579629eadc03e106b95cf74269181900360200190a1565b61193f611adf565b6001600160a01b0316611950610bf5565b6001600160a01b031614611999576040805162461bcd60e51b81526020600482018190526024820152600080516020612056833981519152604482015290519081900360640190fd5b600d54610100900460ff166119ee576040805162461bcd60e51b815260206004820152601660248201527550726573616c6520686173206e6f7420656e6465642160501b604482015290519081900360640190fd5b600d5462010000900460ff1615611a4c576040805162461bcd60e51b815260206004820152601760248201527f436c61696d20616c726561647920756e6c6f636b656421000000000000000000604482015290519081900360640190fd5b600d54600160201b900460ff16611a99576040805162461bcd60e51b815260206004820152600c60248201526b54616f204e6f74205365742160a01b604482015290519081900360640190fd5b600d805462ff00001916620100001790556040805142815290517fbf01c8d8fad1389764a49c6e5e5adf4be677b9063611e7354ffa2c3b342c76009181900360200190a1565b3390565b600082820183811015611b3d576040805162461bcd60e51b815260206004820152601b60248201527f536166654d6174683a206164646974696f6e206f766572666c6f770000000000604482015290519081900360640190fd5b90505b92915050565b600082821115611b9d576040805162461bcd60e51b815260206004820152601e60248201527f536166654d6174683a207375627472616374696f6e206f766572666c6f770000604482015290519081900360640190fd5b50900390565b604080516001600160a01b038416602482015260448082018490528251808303909101815260649091019091526020810180516001600160e01b031663a9059cbb60e01b179052611bf5908490611d1a565b505050565b6000808211611c50576040805162461bcd60e51b815260206004820152601a60248201527f536166654d6174683a206469766973696f6e206279207a65726f000000000000604482015290519081900360640190fd5b818381611c5957fe5b049392505050565b600082611c7057506000611b40565b82820282848281611c7d57fe5b0414611b3d5760405162461bcd60e51b81526004018080602001828103825260218152602001806120356021913960400191505060405180910390fd5b604080516001600160a01b0380861660248301528416604482015260648082018490528251808303909101815260849091019091526020810180516001600160e01b03166323b872dd60e01b179052611d14908590611d1a565b50505050565b6060611d6f826040518060400160405280602081526020017f5361666545524332303a206c6f772d6c6576656c2063616c6c206661696c6564815250856001600160a01b0316611dcb9092919063ffffffff16565b805190915015611bf557808060200190516020811015611d8e57600080fd5b5051611bf55760405162461bcd60e51b815260040180806020018281038252602a815260200180612076602a913960400191505060405180910390fd5b6060611dda8484600085611de2565b949350505050565b606082471015611e235760405162461bcd60e51b815260040180806020018281038252602681526020018061200f6026913960400191505060405180910390fd5b611e2c85611f3e565b611e7d576040805162461bcd60e51b815260206004820152601d60248201527f416464726573733a2063616c6c20746f206e6f6e2d636f6e7472616374000000604482015290519081900360640190fd5b60006060866001600160a01b031685876040518082805190602001908083835b60208310611ebc5780518252601f199092019160209182019101611e9d565b6001836020036101000a03801982511681845116808217855250505050505090500191505060006040518083038185875af1925050503d8060008114611f1e576040519150601f19603f3d011682016040523d82523d6000602084013e611f23565b606091505b5091509150611f33828286611f44565b979650505050505050565b3b151590565b60608315611f53575081610d7d565b825115611f635782518084602001fd5b8160405162461bcd60e51b81526004018080602001828103825283818151815260200191508051906020019080838360005b83811015611fad578181015183820152602001611f95565b50505050905090810190601f168015611fda5780820380516001836020036101000a031916815260200191505b509250505060405180910390fdfe4f776e61626c653a206e6577206f776e657220697320746865207a65726f2061646472657373416464726573733a20696e73756666696369656e742062616c616e636520666f722063616c6c536166654d6174683a206d756c7469706c69636174696f6e206f766572666c6f774f776e61626c653a2063616c6c6572206973206e6f7420746865206f776e65725361666545524332303a204552433230206f7065726174696f6e20646964206e6f742073756363656564a264697066735822122010bbefbbd33c1d2b4e4d1148118f09ee510e207e4b00e5b2843c03c9ba77ad8c64736f6c63430007050033",
  "devdoc": {
    "kind": "dev",
    "methods": {
      "owner()": {
        "details": "Returns the address of the current owner."
      },
      "renounceOwnership()": {
        "details": "Leaves the contract without owner. It will not be possible to call `onlyOwner` functions anymore. Can only be called by the current owner. NOTE: Renouncing ownership will leave the contract without an owner, thereby removing any functionality that is only available to the owner."
      },
      "transferOwnership(address)": {
        "details": "Transfers ownership of the contract to a new account (`newOwner`). Can only be called by the current owner."
      }
    },
    "version": 1
  },
  "userdoc": {
    "kind": "user",
    "methods": {},
    "version": 1
  },
  "storageLayout": {
    "storage": [
      {
        "astId": 10,
        "contract": "contracts/TaoPresale.sol:TaoPresale",
        "label": "_owner",
        "offset": 0,
        "slot": "0",
        "type": "t_address"
      },
      {
        "astId": 1113,
        "contract": "contracts/TaoPresale.sol:TaoPresale",
        "label": "TAO",
        "offset": 0,
        "slot": "1",
        "type": "t_contract(IERC20)545"
      },
      {
        "astId": 1115,
        "contract": "contracts/TaoPresale.sol:TaoPresale",
        "label": "BUSD",
        "offset": 0,
        "slot": "2",
        "type": "t_contract(IERC20)545"
      },
      {
        "astId": 1117,
        "contract": "contracts/TaoPresale.sol:TaoPresale",
        "label": "vault",
        "offset": 0,
        "slot": "3",
        "type": "t_address"
      },
      {
        "astId": 1121,
        "contract": "contracts/TaoPresale.sol:TaoPresale",
        "label": "whitelistedAddresses",
        "offset": 0,
        "slot": "4",
        "type": "t_mapping(t_address,t_bool)"
      },
      {
        "astId": 1125,
        "contract": "contracts/TaoPresale.sol:TaoPresale",
        "label": "boughtTAO",
        "offset": 0,
        "slot": "5",
        "type": "t_mapping(t_address,t_bool)"
      },
      {
        "astId": 1129,
        "contract": "contracts/TaoPresale.sol:TaoPresale",
        "label": "claimable",
        "offset": 0,
        "slot": "6",
        "type": "t_mapping(t_address,t_uint256)"
      },
      {
        "astId": 1133,
        "contract": "contracts/TaoPresale.sol:TaoPresale",
        "label": "claimed",
        "offset": 0,
        "slot": "7",
        "type": "t_mapping(t_address,t_uint256)"
      },
      {
        "astId": 1135,
        "contract": "contracts/TaoPresale.sol:TaoPresale",
        "label": "price",
        "offset": 0,
        "slot": "8",
        "type": "t_uint256"
      },
      {
        "astId": 1137,
        "contract": "contracts/TaoPresale.sol:TaoPresale",
        "label": "taoTarget",
        "offset": 0,
        "slot": "9",
        "type": "t_uint256"
      },
      {
        "astId": 1139,
        "contract": "contracts/TaoPresale.sol:TaoPresale",
        "label": "totalOwed",
        "offset": 0,
        "slot": "10",
        "type": "t_uint256"
      },
      {
        "astId": 1141,
        "contract": "contracts/TaoPresale.sol:TaoPresale",
        "label": "busdRaised",
        "offset": 0,
        "slot": "11",
        "type": "t_uint256"
      },
      {
        "astId": 1143,
        "contract": "contracts/TaoPresale.sol:TaoPresale",
        "label": "totalWhitelisted",
        "offset": 0,
        "slot": "12",
        "type": "t_uint256"
      },
      {
        "astId": 1145,
        "contract": "contracts/TaoPresale.sol:TaoPresale",
        "label": "startUnlocked",
        "offset": 0,
        "slot": "13",
        "type": "t_bool"
      },
      {
        "astId": 1147,
        "contract": "contracts/TaoPresale.sol:TaoPresale",
        "label": "endUnlocked",
        "offset": 1,
        "slot": "13",
        "type": "t_bool"
      },
      {
        "astId": 1149,
        "contract": "contracts/TaoPresale.sol:TaoPresale",
        "label": "claimUnlocked",
        "offset": 2,
        "slot": "13",
        "type": "t_bool"
      },
      {
        "astId": 1151,
        "contract": "contracts/TaoPresale.sol:TaoPresale",
        "label": "isInitialized",
        "offset": 3,
        "slot": "13",
        "type": "t_bool"
      },
      {
        "astId": 1153,
        "contract": "contracts/TaoPresale.sol:TaoPresale",
        "label": "isTaoSet",
        "offset": 4,
        "slot": "13",
        "type": "t_bool"
      }
    ],
    "types": {
      "t_address": {
        "encoding": "inplace",
        "label": "address",
        "numberOfBytes": "20"
      },
      "t_bool": {
        "encoding": "inplace",
        "label": "bool",
        "numberOfBytes": "1"
      },
      "t_contract(IERC20)545": {
        "encoding": "inplace",
        "label": "contract IERC20",
        "numberOfBytes": "20"
      },
      "t_mapping(t_address,t_bool)": {
        "encoding": "mapping",
        "key": "t_address",
        "label": "mapping(address => bool)",
        "numberOfBytes": "32",
        "value": "t_bool"
      },
      "t_mapping(t_address,t_uint256)": {
        "encoding": "mapping",
        "key": "t_address",
        "label": "mapping(address => uint256)",
        "numberOfBytes": "32",
        "value": "t_uint256"
      },
      "t_uint256": {
        "encoding": "inplace",
        "label": "uint256",
        "numberOfBytes": "32"
      }
    }
  }
}