{
  "address": "0x8E4BE6ec6bA8C76c7Dc6c80Bb4858aC5BBcED3f4",
  "abi": [
    {
      "anonymous": false,
      "inputs": [
        {
          "indexed": true,
          "internalType": "address",
          "name": "previousOwner",
          "type": "address"
        },
        {
          "indexed": true,
          "internalType": "address",
          "name": "newOwner",
          "type": "address"
        }
      ],
      "name": "OwnershipTransferred",
      "type": "event"
    },
    {
      "inputs": [],
      "name": "DAOShare",
      "outputs": [
        {
          "internalType": "uint256",
          "name": "",
          "type": "uint256"
        }
      ],
      "stateMutability": "view",
      "type": "function"
    },
    {
      "inputs": [],
      "name": "DAOWallet",
      "outputs": [
        {
          "internalType": "address",
          "name": "",
          "type": "address"
        }
      ],
      "stateMutability": "view",
      "type": "function"
    },
    {
      "inputs": [],
      "name": "LPShare",
      "outputs": [
        {
          "internalType": "uint256",
          "name": "",
          "type": "uint256"
        }
      ],
      "stateMutability": "view",
      "type": "function"
    },
    {
      "inputs": [],
      "name": "RewardPool",
      "outputs": [
        {
          "internalType": "address",
          "name": "",
          "type": "address"
        }
      ],
      "stateMutability": "view",
      "type": "function"
    },
    {
      "inputs": [],
      "name": "TAO",
      "outputs": [
        {
          "internalType": "address",
          "name": "",
          "type": "address"
        }
      ],
      "stateMutability": "view",
      "type": "function"
    },
    {
      "inputs": [],
      "name": "bondCalculator",
      "outputs": [
        {
          "internalType": "address",
          "name": "",
          "type": "address"
        }
      ],
      "stateMutability": "view",
      "type": "function"
    },
    {
      "inputs": [],
      "name": "bondControlVariable",
      "outputs": [
        {
          "internalType": "uint256",
          "name": "",
          "type": "uint256"
        }
      ],
      "stateMutability": "view",
      "type": "function"
    },
    {
      "inputs": [
        {
          "internalType": "uint256",
          "name": "amountToDeposit_",
          "type": "uint256"
        }
      ],
      "name": "calculateBondInterest",
      "outputs": [
        {
          "internalType": "uint256",
          "name": "_interestDue",
          "type": "uint256"
        }
      ],
      "stateMutability": "view",
      "type": "function"
    },
    {
      "inputs": [
        {
          "internalType": "address",
          "name": "depositor_",
          "type": "address"
        }
      ],
      "name": "calculatePendingPayout",
      "outputs": [
        {
          "internalType": "uint256",
          "name": "_pendingPayout",
          "type": "uint256"
        }
      ],
      "stateMutability": "view",
      "type": "function"
    },
    {
      "inputs": [
        {
          "internalType": "address",
          "name": "depositor_",
          "type": "address"
        }
      ],
      "name": "calculatePercentVested",
      "outputs": [
        {
          "internalType": "uint256",
          "name": "_percentVested",
          "type": "uint256"
        }
      ],
      "stateMutability": "view",
      "type": "function"
    },
    {
      "inputs": [],
      "name": "calculatePremium",
      "outputs": [
        {
          "internalType": "uint256",
          "name": "_premium",
          "type": "uint256"
        }
      ],
      "stateMutability": "view",
      "type": "function"
    },
    {
      "inputs": [
        {
          "internalType": "uint256",
          "name": "amountToDeposit_",
          "type": "uint256"
        }
      ],
      "name": "depositBondPrinciple",
      "outputs": [
        {
          "internalType": "bool",
          "name": "",
          "type": "bool"
        }
      ],
      "stateMutability": "nonpayable",
      "type": "function"
    },
    {
      "inputs": [
        {
          "internalType": "uint256",
          "name": "amountToDeposit_",
          "type": "uint256"
        },
        {
          "internalType": "uint256",
          "name": "deadline",
          "type": "uint256"
        },
        {
          "internalType": "uint8",
          "name": "v",
          "type": "uint8"
        },
        {
          "internalType": "bytes32",
          "name": "r",
          "type": "bytes32"
        },
        {
          "internalType": "bytes32",
          "name": "s",
          "type": "bytes32"
        }
      ],
      "name": "depositBondPrincipleWithPermit",
      "outputs": [
        {
          "internalType": "bool",
          "name": "",
          "type": "bool"
        }
      ],
      "stateMutability": "nonpayable",
      "type": "function"
    },
    {
      "inputs": [
        {
          "internalType": "address",
          "name": "",
          "type": "address"
        }
      ],
      "name": "depositorInfo",
      "outputs": [
        {
          "internalType": "uint256",
          "name": "principleValue",
          "type": "uint256"
        },
        {
          "internalType": "uint256",
          "name": "payoutRemaining",
          "type": "uint256"
        },
        {
          "internalType": "uint256",
          "name": "lastBlock",
          "type": "uint256"
        },
        {
          "internalType": "uint256",
          "name": "vestingPeriod",
          "type": "uint256"
        }
      ],
      "stateMutability": "view",
      "type": "function"
    },
    {
      "inputs": [
        {
          "internalType": "address",
          "name": "depositorAddress_",
          "type": "address"
        }
      ],
      "name": "getDepositorInfo",
      "outputs": [
        {
          "internalType": "uint256",
          "name": "_principleValue",
          "type": "uint256"
        },
        {
          "internalType": "uint256",
          "name": "_payoutRemaining",
          "type": "uint256"
        },
        {
          "internalType": "uint256",
          "name": "_lastBlock",
          "type": "uint256"
        },
        {
          "internalType": "uint256",
          "name": "_vestingPeriod",
          "type": "uint256"
        }
      ],
      "stateMutability": "view",
      "type": "function"
    },
    {
      "inputs": [
        {
          "internalType": "address",
          "name": "principleToken_",
          "type": "address"
        },
        {
          "internalType": "address",
          "name": "TAO_",
          "type": "address"
        }
      ],
      "name": "initialize",
      "outputs": [
        {
          "internalType": "bool",
          "name": "",
          "type": "bool"
        }
      ],
      "stateMutability": "nonpayable",
      "type": "function"
    },
    {
      "inputs": [],
      "name": "isInitialized",
      "outputs": [
        {
          "internalType": "bool",
          "name": "",
          "type": "bool"
        }
      ],
      "stateMutability": "view",
      "type": "function"
    },
    {
      "inputs": [],
      "name": "minPremium",
      "outputs": [
        {
          "internalType": "uint256",
          "name": "",
          "type": "uint256"
        }
      ],
      "stateMutability": "view",
      "type": "function"
    },
    {
      "inputs": [],
      "name": "owner",
      "outputs": [
        {
          "internalType": "address",
          "name": "",
          "type": "address"
        }
      ],
      "stateMutability": "view",
      "type": "function"
    },
    {
      "inputs": [],
      "name": "principleToken",
      "outputs": [
        {
          "internalType": "address",
          "name": "",
          "type": "address"
        }
      ],
      "stateMutability": "view",
      "type": "function"
    },
    {
      "inputs": [],
      "name": "redeemBond",
      "outputs": [
        {
          "internalType": "bool",
          "name": "",
          "type": "bool"
        }
      ],
      "stateMutability": "nonpayable",
      "type": "function"
    },
    {
      "inputs": [],
      "name": "renounceOwnership",
      "outputs": [],
      "stateMutability": "nonpayable",
      "type": "function"
    },
    {
      "inputs": [
        {
          "internalType": "address",
          "name": "bondCalculator_",
          "type": "address"
        },
        {
          "internalType": "address",
          "name": "treasury_",
          "type": "address"
        },
        {
          "internalType": "address",
          "name": "stakingContract_",
          "type": "address"
        },
        {
          "internalType": "address",
          "name": "RewardPool_",
          "type": "address"
        },
        {
          "internalType": "address",
          "name": "DAOWallet_",
          "type": "address"
        },
        {
          "internalType": "uint256",
          "name": "DAOShare_",
          "type": "uint256"
        },
        {
          "internalType": "uint256",
          "name": "LPShare_",
          "type": "uint256"
        }
      ],
      "name": "setAddresses",
      "outputs": [
        {
          "internalType": "bool",
          "name": "",
          "type": "bool"
        }
      ],
      "stateMutability": "nonpayable",
      "type": "function"
    },
    {
      "inputs": [
        {
          "internalType": "uint256",
          "name": "bondControlVariable_",
          "type": "uint256"
        },
        {
          "internalType": "uint256",
          "name": "vestingPeriodInBlocks_",
          "type": "uint256"
        },
        {
          "internalType": "uint256",
          "name": "minPremium_",
          "type": "uint256"
        }
      ],
      "name": "setBondTerms",
      "outputs": [
        {
          "internalType": "bool",
          "name": "",
          "type": "bool"
        }
      ],
      "stateMutability": "nonpayable",
      "type": "function"
    },
    {
      "inputs": [],
      "name": "stakingContract",
      "outputs": [
        {
          "internalType": "address",
          "name": "",
          "type": "address"
        }
      ],
      "stateMutability": "view",
      "type": "function"
    },
    {
      "inputs": [],
      "name": "totalDebt",
      "outputs": [
        {
          "internalType": "uint256",
          "name": "",
          "type": "uint256"
        }
      ],
      "stateMutability": "view",
      "type": "function"
    },
    {
      "inputs": [
        {
          "internalType": "address",
          "name": "newOwner_",
          "type": "address"
        }
      ],
      "name": "transferOwnership",
      "outputs": [],
      "stateMutability": "nonpayable",
      "type": "function"
    },
    {
      "inputs": [],
      "name": "treasury",
      "outputs": [
        {
          "internalType": "address",
          "name": "",
          "type": "address"
        }
      ],
      "stateMutability": "view",
      "type": "function"
    },
    {
      "inputs": [],
      "name": "vestingPeriodInBlocks",
      "outputs": [
        {
          "internalType": "uint256",
          "name": "",
          "type": "uint256"
        }
      ],
      "stateMutability": "view",
      "type": "function"
    }
  ],
  "transactionHash": "0x0fc6e0c9ee7cd888f4e755f06948b399f55f489860b77ab12afe69e7c852120a",
  "args": [],
  "solcInputHash": "655617fea8a064d9290fa3c2991f9de6",
  "bytecode": "0x608060405234801561001057600080fd5b50600080546001600160a01b03191633178082556040516001600160a01b039190911691907f8be0079c531659141344cd1fd0a4f28419497f9722a3daafe3b4186f6b6457e0908290a3611ab4806100696000396000f3fe608060405234801561001057600080fd5b50600436106101cf5760003560e01c806361d027b311610104578063cd3a2a3c116100a2578063ee99205c11610071578063ee99205c14610469578063eedb9ed514610471578063f2fde38b14610479578063fc7b9c181461049f576101cf565b8063cd3a2a3c14610434578063da6b5ab01461043c578063dfdb5ae414610444578063e08a01b41461044c576101cf565b80638b276c2c116100de5780638b276c2c146103d55780638da5cb5b146103fe578063c2ed626f14610406578063c5332b7c1461042c576101cf565b806361d027b3146103bb5780636fd6be35146103c3578063715018a6146103cb576101cf565b80633a709d2211610171578063485cc9551161014b578063485cc955146103455780635049b278146103735780635f20ac691461037b57806361cb2175146103b3576101cf565b80633a709d221461029f5780633d19d66b146102a757806343de6367146102f3576101cf565b806319c934bb116101ad57806319c934bb146102435780631bf6ba9f1461024b57806322d6357a14610271578063392e53cd14610297576101cf565b8063013f2beb146101d45780630897821f146101ee57806316e178521461021f575b600080fd5b6101dc6104a7565b60408051918252519081900360200190f35b61020b6004803603602081101561020457600080fd5b50356104ad565b604080519115158252519081900360200190f35b6102276104c1565b604080516001600160a01b039092168252519081900360200190f35b6102276104d0565b6101dc6004803603602081101561026157600080fd5b50356001600160a01b03166104df565b6101dc6004803603602081101561028757600080fd5b50356001600160a01b03166104f0565b61020b610548565b6101dc610551565b6102cd600480360360208110156102bd57600080fd5b50356001600160a01b0316610560565b604080519485526020850193909352838301919091526060830152519081900360800190f35b61020b600480360360e081101561030957600080fd5b506001600160a01b0381358116916020810135821691604082013581169160608101358216916080820135169060a08101359060c00135610588565b61020b6004803603604081101561035b57600080fd5b506001600160a01b0381358116916020013516610644565b61020b6106e2565b61020b600480360360a081101561039157600080fd5b5080359060208101359060ff60408201351690606081013590608001356108c2565b6101dc610966565b61022761096c565b61022761097b565b6103d361098a565b005b61020b600480360360608110156103eb57600080fd5b5080359060208101359060400135610a21565b610227610a81565b6102cd6004803603602081101561041c57600080fd5b50356001600160a01b0316610a90565b610227610af7565b6101dc610b06565b6101dc610b0c565b610227610b12565b6101dc6004803603602081101561046257600080fd5b5035610b21565b610227610bcb565b6101dc610bda565b6103d36004803603602081101561048f57600080fd5b50356001600160a01b0316610be0565b6101dc610ccd565b600e5481565b60006104b882610cd3565b50600192915050565b6008546001600160a01b031681565b600c546001600160a01b031681565b60006104ea8261100d565b92915050565b6000806104fc8361100d565b6001600160a01b0384166000908152600160208190526040909120015490915061053261271061052c838561107c565b906110d5565b92506127108210610541578092505b5050919050565b600f5460ff1681565b600061055b611117565b905090565b6001602081905260009182526040909120805491810154600282015460039092015490919084565b600080546001600160a01b031633146105d6576040805162461bcd60e51b81526020600482018190526024820152600080516020611a35833981519152604482015290519081900360640190fd5b50600680546001600160a01b03199081166001600160a01b03998a161790915560058054821697891697909717909655600a8054871695881695909517909455600c8054861693871693909317909255600b8054909416941693909317909155600d91909155600e55600190565b600080546001600160a01b03163314610692576040805162461bcd60e51b81526020600482018190526024820152600080516020611a35833981519152604482015290519081900360640190fd5b600f5460ff16156106a257600080fd5b50600780546001600160a01b039384166001600160a01b03199182161790915560088054929093169116179055600f805460ff1916600190811790915590565b3360009081526001602081905260408220015480610747576040805162461bcd60e51b815260206004820152601f60248201527f53656e646572206973206e6f742064756520616e7920696e7465726573742e00604482015290519081900360640190fd5b336000908152600160205260408120805460029091015490919061076c904390611155565b336000818152600160205260408120600301549293509061078c9061100d565b905061271081106107f457336000818152600160208190526040822082815590810182905560028101829055600301556008546107d5916001600160a01b039091169087611197565b6009546107e29085611155565b60095550600194506108bf9350505050565b600061080661271061052c888561107c565b600854909150610820906001600160a01b03163383611197565b600061083261271061052c888661107c565b6009549091506108429082611155565b60095560408051608081019091528061085b8884611155565b815260200161086a8985611155565b815243602082015260400161087f8688611155565b9052336000908152600160208181526040928390208451815590840151818301559183015160028301556060909201516003909101559750505050505050505b90565b6007546040805163d505accf60e01b8152336004820152306024820152604481018890526064810187905260ff8616608482015260a4810185905260c4810184905290516000926001600160a01b03169163d505accf9160e4808301928692919082900301818387803b15801561093857600080fd5b505af115801561094c573d6000803e3d6000fd5b5050505061095986610cd3565b5060019695505050505050565b600d5481565b6005546001600160a01b031681565b6007546001600160a01b031681565b6000546001600160a01b031633146109d7576040805162461bcd60e51b81526020600482018190526024820152600080516020611a35833981519152604482015290519081900360640190fd5b600080546040516001600160a01b03909116907f8be0079c531659141344cd1fd0a4f28419497f9722a3daafe3b4186f6b6457e0908390a3600080546001600160a01b0319169055565b600080546001600160a01b03163314610a6f576040805162461bcd60e51b81526020600482018190526024820152600080516020611a35833981519152604482015290519081900360640190fd5b50600292909255600355600455600190565b6000546001600160a01b031690565b600080600080610a9e61198d565b505050506001600160a01b03919091166000908152600160208181526040928390208351608081018552815480825293820154928101839052600282015494810185905260039091015460609091018190529194909350565b6006546001600160a01b031681565b60035481565b60025481565b600b546001600160a01b031681565b6006546007546040805163fb452dc160e01b81526001600160a01b0392831660048201526024810185905290516000938493610bb993633b9aca0093919092169163fb452dc1916044808301926020929190829003018186803b158015610b8757600080fd5b505afa158015610b9b573d6000803e3d6000fd5b505050506040513d6020811015610bb157600080fd5b5051906110d5565b9050610bc4816111ee565b9392505050565b600a546001600160a01b031681565b60045481565b6000546001600160a01b03163314610c2d576040805162461bcd60e51b81526020600482018190526024820152600080516020611a35833981519152604482015290519081900360640190fd5b6001600160a01b038116610c725760405162461bcd60e51b81526004018080602001828103825260268152602001806119c86026913960400191505060405180910390fd5b600080546040516001600160a01b03808516939216917f8be0079c531659141344cd1fd0a4f28419497f9722a3daafe3b4186f6b6457e091a3600080546001600160a01b0319166001600160a01b0392909216919091179055565b60095481565b600754600090610cee906001600160a01b0316333085611214565b6006546007546040805163fb452dc160e01b81526001600160a01b039283166004820152602481018690529051600093610d5193633b9aca009391169163fb452dc191604480820192602092909190829003018186803b158015610b8757600080fd5b90506000610d5e826111ee565b905062989680811015610da9576040805162461bcd60e51b815260206004820152600e60248201526d109bdb99081d1bdbc81cdb585b1b60921b604482015290519081900360640190fd5b600954610db69083611274565b6009556000610dc58383611155565b90506000610ddd610dd883600d546112ce565b611445565b6001600160701b031690506000610df9610dd884600e546112ce565b6001600160701b031690506000610e1a82610e148686611155565b90611155565b6007546005546040805163095ea7b360e01b81526001600160a01b039283166004820152602481018d9052905193945091169163095ea7b3916044808201926020929091908290030181600087803b158015610e7557600080fd5b505af1158015610e89573d6000803e3d6000fd5b505050506040513d6020811015610e9f57600080fd5b5050600554604080516354b6dced60e01b8152600481018b905290516001600160a01b03909216916354b6dced916024808201926020929091908290030181600087803b158015610eef57600080fd5b505af1158015610f03573d6000803e3d6000fd5b505050506040513d6020811015610f1957600080fd5b5050600a54600854610f38916001600160a01b03918216911683611197565b600b54600854610f55916001600160a01b03918216911685611197565b600c54600854610f72916001600160a01b03918216911684611197565b60408051608081018252336000908152600160205291909120548190610f989089611274565b81523360009081526001602081815260409092200154910190610fbb9088611274565b8152436020808301919091526003805460409384015233600090815260018084529084902085518155928501518382015592840151600283015560609093015192019190915598975050505050505050565b6001600160a01b0381166000908152600160205260408120600201548190611036904390611155565b6001600160a01b03841660009081526001602052604090206003015490915080156110725761106b8161052c8461271061107c565b9250610541565b5060009392505050565b60008261108b575060006104ea565b8282028284828161109857fe5b0414610bc45760405162461bcd60e51b8152600401808060200182810382526021815260200180611a146021913960400191505060405180910390fd5b6000610bc483836040518060400160405280601a81526020017f536166654d6174683a206469766973696f6e206279207a65726f000000000000815250611455565b60006111426298968061052c633b9aca0061113c6111336114f7565b6002549061107c565b90611274565b90506004548110156108bf575060045490565b6000610bc483836040518060400160405280601e81526020017f536166654d6174683a207375627472616374696f6e206f766572666c6f7700008152506115a3565b604080516001600160a01b038416602482015260448082018490528251808303909101815260649091019091526020810180516001600160e01b031663a9059cbb60e01b1790526111e99084906115fd565b505050565b60006104ea662386f26fc1000061052c61120f8561120a611117565b6112ce565b6116ae565b604080516001600160a01b0380861660248301528416604482015260648082018490528251808303909101815260849091019091526020810180516001600160e01b03166323b872dd60e01b17905261126e9085906115fd565b50505050565b600082820183811015610bc4576040805162461bcd60e51b815260206004820152601b60248201527f536166654d6174683a206164646974696f6e206f766572666c6f770000000000604482015290519081900360640190fd5b6112d66119b5565b600082116113155760405162461bcd60e51b81526004018080602001828103825260268152602001806119ee6026913960400191505060405180910390fd5b8261132f57506040805160208101909152600081526104ea565b71ffffffffffffffffffffffffffffffffffff83116113d657600082607085901b8161135757fe5b0490506001600160e01b038111156113b6576040805162461bcd60e51b815260206004820152601e60248201527f4669786564506f696e743a3a6672616374696f6e3a206f766572666c6f770000604482015290519081900360640190fd5b6040518060200160405280826001600160e01b03168152509150506104ea565b60006113e784600160701b856116c6565b90506001600160e01b038111156113b6576040805162461bcd60e51b815260206004820152601e60248201527f4669786564506f696e743a3a6672616374696f6e3a206f766572666c6f770000604482015290519081900360640190fd5b5160701c6001600160701b031690565b600081836114e15760405162461bcd60e51b81526004018080602001828103825283818151815260200191508051906020019080838360005b838110156114a657818101518382015260200161148e565b50505050905090810190601f1680156114d35780820380516001836020036101000a031916815260200191505b509250505060405180910390fd5b5060008385816114ed57fe5b0495945050505050565b600061055b670de0b6b3a764000061052c61120f611524633b9aca0060095461107c90919063ffffffff16565b600860009054906101000a90046001600160a01b03166001600160a01b03166318160ddd6040518163ffffffff1660e01b815260040160206040518083038186803b15801561157257600080fd5b505afa158015611586573d6000803e3d6000fd5b505050506040513d602081101561159c57600080fd5b50516112ce565b600081848411156115f55760405162461bcd60e51b81526020600482018181528351602484015283519092839260449091019190850190808383600083156114a657818101518382015260200161148e565b505050900390565b6060611652826040518060400160405280602081526020017f5361666545524332303a206c6f772d6c6576656c2063616c6c206661696c6564815250856001600160a01b03166117669092919063ffffffff16565b8051909150156111e95780806020019051602081101561167157600080fd5b50516111e95760405162461bcd60e51b815260040180806020018281038252602a815260200180611a55602a913960400191505060405180910390fd5b516612725dd1d243ab6001600160e01b039091160490565b60008060006116d5868661177d565b91509150600084806116e357fe5b8688099050828111156116f7576001820391505b8083039250848210611750576040805162461bcd60e51b815260206004820152601a60248201527f46756c6c4d6174683a3a6d756c4469763a206f766572666c6f77000000000000604482015290519081900360640190fd5b61175b8383876117aa565b979650505050505050565b6060611775848460008561181a565b949350505050565b60008080600019848609905083850292508281039150828110156117a2576001820391505b509250929050565b600081810382168083816117ba57fe5b0492508085816117c657fe5b0494508081600003816117d557fe5b60028581038087028203028087028203028087028203028087028203028087028203028087028203029586029003909402930460010193909302939093010292915050565b606061182585611987565b611876576040805162461bcd60e51b815260206004820152601d60248201527f416464726573733a2063616c6c20746f206e6f6e2d636f6e7472616374000000604482015290519081900360640190fd5b60006060866001600160a01b031685876040518082805190602001908083835b602083106118b55780518252601f199092019160209182019101611896565b6001836020036101000a03801982511681845116808217855250505050505090500191505060006040518083038185875af1925050503d8060008114611917576040519150601f19603f3d011682016040523d82523d6000602084013e61191c565b606091505b509150915081156119305791506117759050565b8051156119405780518082602001fd5b60405162461bcd60e51b81526020600482018181528651602484015286518793919283926044019190850190808383600083156114a657818101518382015260200161148e565b3b151590565b6040518060800160405280600081526020016000815260200160008152602001600081525090565b6040805160208101909152600081529056fe4f776e61626c653a206e6577206f776e657220697320746865207a65726f20616464726573734669786564506f696e743a3a6672616374696f6e3a206469766973696f6e206279207a65726f536166654d6174683a206d756c7469706c69636174696f6e206f766572666c6f774f776e61626c653a2063616c6c6572206973206e6f7420746865206f776e65725361666545524332303a204552433230206f7065726174696f6e20646964206e6f742073756363656564a26469706673582212208e66a140558da9b16f0601f54c2b2181e3f078e361c84446aa5c552f10d4c6b264736f6c63430007040033",
  "devdoc": {
    "kind": "dev",
    "methods": {},
    "version": 1
  },
  "userdoc": {
    "kind": "user",
    "methods": {},
    "version": 1
  },
  "storageLayout": {
    "storage": [
      {
        "astId": 19,
        "contract": "contracts/Bonding/TAOPrincipleDepository.sol:TAOPrincipleDepository",
        "label": "_owner",
        "offset": 0,
        "slot": "0",
        "type": "t_address"
      },
      {
        "astId": 3451,
        "contract": "contracts/Bonding/TAOPrincipleDepository.sol:TAOPrincipleDepository",
        "label": "depositorInfo",
        "offset": 0,
        "slot": "1",
        "type": "t_mapping(t_address,t_struct(DepositInfo)3447_storage)"
      },
      {
        "astId": 3453,
        "contract": "contracts/Bonding/TAOPrincipleDepository.sol:TAOPrincipleDepository",
        "label": "bondControlVariable",
        "offset": 0,
        "slot": "2",
        "type": "t_uint256"
      },
      {
        "astId": 3455,
        "contract": "contracts/Bonding/TAOPrincipleDepository.sol:TAOPrincipleDepository",
        "label": "vestingPeriodInBlocks",
        "offset": 0,
        "slot": "3",
        "type": "t_uint256"
      },
      {
        "astId": 3457,
        "contract": "contracts/Bonding/TAOPrincipleDepository.sol:TAOPrincipleDepository",
        "label": "minPremium",
        "offset": 0,
        "slot": "4",
        "type": "t_uint256"
      },
      {
        "astId": 3459,
        "contract": "contracts/Bonding/TAOPrincipleDepository.sol:TAOPrincipleDepository",
        "label": "treasury",
        "offset": 0,
        "slot": "5",
        "type": "t_address"
      },
      {
        "astId": 3461,
        "contract": "contracts/Bonding/TAOPrincipleDepository.sol:TAOPrincipleDepository",
        "label": "bondCalculator",
        "offset": 0,
        "slot": "6",
        "type": "t_address"
      },
      {
        "astId": 3463,
        "contract": "contracts/Bonding/TAOPrincipleDepository.sol:TAOPrincipleDepository",
        "label": "principleToken",
        "offset": 0,
        "slot": "7",
        "type": "t_address"
      },
      {
        "astId": 3465,
        "contract": "contracts/Bonding/TAOPrincipleDepository.sol:TAOPrincipleDepository",
        "label": "TAO",
        "offset": 0,
        "slot": "8",
        "type": "t_address"
      },
      {
        "astId": 3467,
        "contract": "contracts/Bonding/TAOPrincipleDepository.sol:TAOPrincipleDepository",
        "label": "totalDebt",
        "offset": 0,
        "slot": "9",
        "type": "t_uint256"
      },
      {
        "astId": 3469,
        "contract": "contracts/Bonding/TAOPrincipleDepository.sol:TAOPrincipleDepository",
        "label": "stakingContract",
        "offset": 0,
        "slot": "10",
        "type": "t_address"
      },
      {
        "astId": 3471,
        "contract": "contracts/Bonding/TAOPrincipleDepository.sol:TAOPrincipleDepository",
        "label": "DAOWallet",
        "offset": 0,
        "slot": "11",
        "type": "t_address"
      },
      {
        "astId": 3473,
        "contract": "contracts/Bonding/TAOPrincipleDepository.sol:TAOPrincipleDepository",
        "label": "RewardPool",
        "offset": 0,
        "slot": "12",
        "type": "t_address"
      },
      {
        "astId": 3475,
        "contract": "contracts/Bonding/TAOPrincipleDepository.sol:TAOPrincipleDepository",
        "label": "DAOShare",
        "offset": 0,
        "slot": "13",
        "type": "t_uint256"
      },
      {
        "astId": 3477,
        "contract": "contracts/Bonding/TAOPrincipleDepository.sol:TAOPrincipleDepository",
        "label": "LPShare",
        "offset": 0,
        "slot": "14",
        "type": "t_uint256"
      },
      {
        "astId": 3479,
        "contract": "contracts/Bonding/TAOPrincipleDepository.sol:TAOPrincipleDepository",
        "label": "isInitialized",
        "offset": 0,
        "slot": "15",
        "type": "t_bool"
      }
    ],
    "types": {
      "t_address": {
        "encoding": "inplace",
        "label": "address",
        "numberOfBytes": "20"
      },
      "t_bool": {
        "encoding": "inplace",
        "label": "bool",
        "numberOfBytes": "1"
      },
      "t_mapping(t_address,t_struct(DepositInfo)3447_storage)": {
        "encoding": "mapping",
        "key": "t_address",
        "label": "mapping(address => struct TAOPrincipleDepository.DepositInfo)",
        "numberOfBytes": "32",
        "value": "t_struct(DepositInfo)3447_storage"
      },
      "t_struct(DepositInfo)3447_storage": {
        "encoding": "inplace",
        "label": "struct TAOPrincipleDepository.DepositInfo",
        "members": [
          {
            "astId": 3440,
            "contract": "contracts/Bonding/TAOPrincipleDepository.sol:TAOPrincipleDepository",
            "label": "principleValue",
            "offset": 0,
            "slot": "0",
            "type": "t_uint256"
          },
          {
            "astId": 3442,
            "contract": "contracts/Bonding/TAOPrincipleDepository.sol:TAOPrincipleDepository",
            "label": "payoutRemaining",
            "offset": 0,
            "slot": "1",
            "type": "t_uint256"
          },
          {
            "astId": 3444,
            "contract": "contracts/Bonding/TAOPrincipleDepository.sol:TAOPrincipleDepository",
            "label": "lastBlock",
            "offset": 0,
            "slot": "2",
            "type": "t_uint256"
          },
          {
            "astId": 3446,
            "contract": "contracts/Bonding/TAOPrincipleDepository.sol:TAOPrincipleDepository",
            "label": "vestingPeriod",
            "offset": 0,
            "slot": "3",
            "type": "t_uint256"
          }
        ],
        "numberOfBytes": "128"
      },
      "t_uint256": {
        "encoding": "inplace",
        "label": "uint256",
        "numberOfBytes": "32"
      }
    }
  }
}