{
  "address": "0x7065DdA3f8Ec5F6C155648BdeE4420c0525D93C6",
  "abi": [
    {
      "inputs": [
        {
          "internalType": "uint128",
          "name": "_rebaseAmount",
          "type": "uint128"
        },
        {
          "internalType": "address",
          "name": "_uniswapV2Factory",
          "type": "address"
        },
        {
          "internalType": "address",
          "name": "_pairToken",
          "type": "address"
        }
      ],
      "stateMutability": "nonpayable",
      "type": "constructor"
    },
    {
      "anonymous": false,
      "inputs": [
        {
          "indexed": true,
          "internalType": "address",
          "name": "owner",
          "type": "address"
        },
        {
          "indexed": true,
          "internalType": "address",
          "name": "spender",
          "type": "address"
        },
        {
          "indexed": false,
          "internalType": "uint256",
          "name": "value",
          "type": "uint256"
        }
      ],
      "name": "Approval",
      "type": "event"
    },
    {
      "anonymous": false,
      "inputs": [
        {
          "indexed": true,
          "internalType": "address",
          "name": "previousOwner",
          "type": "address"
        },
        {
          "indexed": true,
          "internalType": "address",
          "name": "newOwner",
          "type": "address"
        }
      ],
      "name": "OwnershipTransferred",
      "type": "event"
    },
    {
      "anonymous": false,
      "inputs": [
        {
          "indexed": false,
          "internalType": "uint256",
          "name": "previousTWAPEpochPeriod",
          "type": "uint256"
        },
        {
          "indexed": false,
          "internalType": "uint256",
          "name": "newTWAPEpochPeriod",
          "type": "uint256"
        }
      ],
      "name": "TWAPEpochChanged",
      "type": "event"
    },
    {
      "anonymous": false,
      "inputs": [
        {
          "indexed": true,
          "internalType": "address",
          "name": "previousTWAPOracle",
          "type": "address"
        },
        {
          "indexed": true,
          "internalType": "address",
          "name": "newTWAPOracle",
          "type": "address"
        }
      ],
      "name": "TWAPOracleChanged",
      "type": "event"
    },
    {
      "anonymous": false,
      "inputs": [
        {
          "indexed": true,
          "internalType": "address",
          "name": "newTWAPSource",
          "type": "address"
        }
      ],
      "name": "TWAPSourceAdded",
      "type": "event"
    },
    {
      "anonymous": false,
      "inputs": [
        {
          "indexed": true,
          "internalType": "address",
          "name": "removedTWAPSource",
          "type": "address"
        }
      ],
      "name": "TWAPSourceRemoved",
      "type": "event"
    },
    {
      "anonymous": false,
      "inputs": [
        {
          "indexed": true,
          "internalType": "address",
          "name": "from",
          "type": "address"
        },
        {
          "indexed": true,
          "internalType": "address",
          "name": "to",
          "type": "address"
        },
        {
          "indexed": false,
          "internalType": "uint256",
          "name": "value",
          "type": "uint256"
        }
      ],
      "name": "Transfer",
      "type": "event"
    },
    {
      "inputs": [],
      "name": "CHECK_BLOCKS",
      "outputs": [
        {
          "internalType": "uint8",
          "name": "",
          "type": "uint8"
        }
      ],
      "stateMutability": "view",
      "type": "function"
    },
    {
      "inputs": [],
      "name": "DOMAIN_SEPARATOR",
      "outputs": [
        {
          "internalType": "bytes32",
          "name": "",
          "type": "bytes32"
        }
      ],
      "stateMutability": "view",
      "type": "function"
    },
    {
      "inputs": [],
      "name": "PERMIT_TYPEHASH",
      "outputs": [
        {
          "internalType": "bytes32",
          "name": "",
          "type": "bytes32"
        }
      ],
      "stateMutability": "view",
      "type": "function"
    },
    {
      "inputs": [],
      "name": "REBASE_CHECK_BLOCKS",
      "outputs": [
        {
          "internalType": "uint8",
          "name": "",
          "type": "uint8"
        }
      ],
      "stateMutability": "view",
      "type": "function"
    },
    {
      "inputs": [],
      "name": "Staking",
      "outputs": [
        {
          "internalType": "address",
          "name": "",
          "type": "address"
        }
      ],
      "stateMutability": "view",
      "type": "function"
    },
    {
      "inputs": [],
      "name": "TRADES_PER_BLOCK_LIMIT",
      "outputs": [
        {
          "internalType": "uint8",
          "name": "",
          "type": "uint8"
        }
      ],
      "stateMutability": "view",
      "type": "function"
    },
    {
      "inputs": [
        {
          "internalType": "address",
          "name": "account_",
          "type": "address"
        },
        {
          "internalType": "uint256",
          "name": "amount_",
          "type": "uint256"
        }
      ],
      "name": "_burnFrom",
      "outputs": [],
      "stateMutability": "nonpayable",
      "type": "function"
    },
    {
      "inputs": [
        {
          "internalType": "address",
          "name": "newTWAPSourceDexPool_",
          "type": "address"
        }
      ],
      "name": "addTWAPSource",
      "outputs": [],
      "stateMutability": "nonpayable",
      "type": "function"
    },
    {
      "inputs": [
        {
          "internalType": "address",
          "name": "owner",
          "type": "address"
        },
        {
          "internalType": "address",
          "name": "spender",
          "type": "address"
        }
      ],
      "name": "allowance",
      "outputs": [
        {
          "internalType": "uint256",
          "name": "",
          "type": "uint256"
        }
      ],
      "stateMutability": "view",
      "type": "function"
    },
    {
      "inputs": [
        {
          "internalType": "address",
          "name": "spender",
          "type": "address"
        },
        {
          "internalType": "uint256",
          "name": "amount",
          "type": "uint256"
        }
      ],
      "name": "approve",
      "outputs": [
        {
          "internalType": "bool",
          "name": "",
          "type": "bool"
        }
      ],
      "stateMutability": "nonpayable",
      "type": "function"
    },
    {
      "inputs": [
        {
          "internalType": "address",
          "name": "account",
          "type": "address"
        }
      ],
      "name": "balanceOf",
      "outputs": [
        {
          "internalType": "uint256",
          "name": "",
          "type": "uint256"
        }
      ],
      "stateMutability": "view",
      "type": "function"
    },
    {
      "inputs": [
        {
          "internalType": "uint256",
          "name": "amount",
          "type": "uint256"
        }
      ],
      "name": "burn",
      "outputs": [],
      "stateMutability": "nonpayable",
      "type": "function"
    },
    {
      "inputs": [
        {
          "internalType": "address",
          "name": "account_",
          "type": "address"
        },
        {
          "internalType": "uint256",
          "name": "amount_",
          "type": "uint256"
        }
      ],
      "name": "burnFrom",
      "outputs": [],
      "stateMutability": "nonpayable",
      "type": "function"
    },
    {
      "inputs": [
        {
          "internalType": "uint256",
          "name": "newTWAPEpochPeriod_",
          "type": "uint256"
        }
      ],
      "name": "changeTWAPEpochPeriod",
      "outputs": [],
      "stateMutability": "nonpayable",
      "type": "function"
    },
    {
      "inputs": [
        {
          "internalType": "address",
          "name": "newTWAPOracle_",
          "type": "address"
        }
      ],
      "name": "changeTWAPOracle",
      "outputs": [],
      "stateMutability": "nonpayable",
      "type": "function"
    },
    {
      "inputs": [
        {
          "internalType": "address",
          "name": "",
          "type": "address"
        },
        {
          "internalType": "uint256",
          "name": "",
          "type": "uint256"
        }
      ],
      "name": "checkedInBlock",
      "outputs": [
        {
          "internalType": "bool",
          "name": "",
          "type": "bool"
        }
      ],
      "stateMutability": "view",
      "type": "function"
    },
    {
      "inputs": [],
      "name": "decimals",
      "outputs": [
        {
          "internalType": "uint8",
          "name": "",
          "type": "uint8"
        }
      ],
      "stateMutability": "view",
      "type": "function"
    },
    {
      "inputs": [
        {
          "internalType": "address",
          "name": "spender",
          "type": "address"
        },
        {
          "internalType": "uint256",
          "name": "subtractedValue",
          "type": "uint256"
        }
      ],
      "name": "decreaseAllowance",
      "outputs": [
        {
          "internalType": "bool",
          "name": "",
          "type": "bool"
        }
      ],
      "stateMutability": "nonpayable",
      "type": "function"
    },
    {
      "inputs": [],
      "name": "disableProtection",
      "outputs": [],
      "stateMutability": "nonpayable",
      "type": "function"
    },
    {
      "inputs": [
        {
          "internalType": "address",
          "name": "spender",
          "type": "address"
        },
        {
          "internalType": "uint256",
          "name": "addedValue",
          "type": "uint256"
        }
      ],
      "name": "increaseAllowance",
      "outputs": [
        {
          "internalType": "bool",
          "name": "",
          "type": "bool"
        }
      ],
      "stateMutability": "nonpayable",
      "type": "function"
    },
    {
      "inputs": [
        {
          "internalType": "address",
          "name": "account_",
          "type": "address"
        },
        {
          "internalType": "uint256",
          "name": "amount_",
          "type": "uint256"
        }
      ],
      "name": "mint",
      "outputs": [],
      "stateMutability": "nonpayable",
      "type": "function"
    },
    {
      "inputs": [],
      "name": "name",
      "outputs": [
        {
          "internalType": "string",
          "name": "",
          "type": "string"
        }
      ],
      "stateMutability": "view",
      "type": "function"
    },
    {
      "inputs": [
        {
          "internalType": "address",
          "name": "owner",
          "type": "address"
        }
      ],
      "name": "nonces",
      "outputs": [
        {
          "internalType": "uint256",
          "name": "",
          "type": "uint256"
        }
      ],
      "stateMutability": "view",
      "type": "function"
    },
    {
      "inputs": [],
      "name": "owner",
      "outputs": [
        {
          "internalType": "address",
          "name": "",
          "type": "address"
        }
      ],
      "stateMutability": "view",
      "type": "function"
    },
    {
      "inputs": [
        {
          "internalType": "address",
          "name": "owner",
          "type": "address"
        },
        {
          "internalType": "address",
          "name": "spender",
          "type": "address"
        },
        {
          "internalType": "uint256",
          "name": "amount",
          "type": "uint256"
        },
        {
          "internalType": "uint256",
          "name": "deadline",
          "type": "uint256"
        },
        {
          "internalType": "uint8",
          "name": "v",
          "type": "uint8"
        },
        {
          "internalType": "bytes32",
          "name": "r",
          "type": "bytes32"
        },
        {
          "internalType": "bytes32",
          "name": "s",
          "type": "bytes32"
        }
      ],
      "name": "permit",
      "outputs": [],
      "stateMutability": "nonpayable",
      "type": "function"
    },
    {
      "inputs": [],
      "name": "protected",
      "outputs": [
        {
          "internalType": "bool",
          "name": "",
          "type": "bool"
        }
      ],
      "stateMutability": "view",
      "type": "function"
    },
    {
      "inputs": [
        {
          "internalType": "address",
          "name": "",
          "type": "address"
        }
      ],
      "name": "rebase",
      "outputs": [
        {
          "internalType": "uint256",
          "name": "",
          "type": "uint256"
        }
      ],
      "stateMutability": "view",
      "type": "function"
    },
    {
      "inputs": [],
      "name": "rebaseAmount",
      "outputs": [
        {
          "internalType": "uint128",
          "name": "",
          "type": "uint128"
        }
      ],
      "stateMutability": "view",
      "type": "function"
    },
    {
      "inputs": [
        {
          "internalType": "uint256",
          "name": "",
          "type": "uint256"
        }
      ],
      "name": "rebaseInBlockCount",
      "outputs": [
        {
          "internalType": "uint8",
          "name": "",
          "type": "uint8"
        }
      ],
      "stateMutability": "view",
      "type": "function"
    },
    {
      "inputs": [
        {
          "internalType": "address",
          "name": "twapSourceToRemove_",
          "type": "address"
        }
      ],
      "name": "removeTWAPSource",
      "outputs": [],
      "stateMutability": "nonpayable",
      "type": "function"
    },
    {
      "inputs": [],
      "name": "renounceOwnership",
      "outputs": [],
      "stateMutability": "nonpayable",
      "type": "function"
    },
    {
      "inputs": [],
      "name": "sTaoCheckBlock",
      "outputs": [
        {
          "internalType": "uint96",
          "name": "",
          "type": "uint96"
        }
      ],
      "stateMutability": "view",
      "type": "function"
    },
    {
      "inputs": [
        {
          "internalType": "address",
          "name": "vault_",
          "type": "address"
        }
      ],
      "name": "setVault",
      "outputs": [
        {
          "internalType": "bool",
          "name": "",
          "type": "bool"
        }
      ],
      "stateMutability": "nonpayable",
      "type": "function"
    },
    {
      "inputs": [],
      "name": "symbol",
      "outputs": [
        {
          "internalType": "string",
          "name": "",
          "type": "string"
        }
      ],
      "stateMutability": "view",
      "type": "function"
    },
    {
      "inputs": [],
      "name": "totalSupply",
      "outputs": [
        {
          "internalType": "uint256",
          "name": "",
          "type": "uint256"
        }
      ],
      "stateMutability": "view",
      "type": "function"
    },
    {
      "inputs": [
        {
          "internalType": "address",
          "name": "recipient",
          "type": "address"
        },
        {
          "internalType": "uint256",
          "name": "amount",
          "type": "uint256"
        }
      ],
      "name": "transfer",
      "outputs": [
        {
          "internalType": "bool",
          "name": "",
          "type": "bool"
        }
      ],
      "stateMutability": "nonpayable",
      "type": "function"
    },
    {
      "inputs": [
        {
          "internalType": "address",
          "name": "sender",
          "type": "address"
        },
        {
          "internalType": "address",
          "name": "recipient",
          "type": "address"
        },
        {
          "internalType": "uint256",
          "name": "amount",
          "type": "uint256"
        }
      ],
      "name": "transferFrom",
      "outputs": [
        {
          "internalType": "bool",
          "name": "",
          "type": "bool"
        }
      ],
      "stateMutability": "nonpayable",
      "type": "function"
    },
    {
      "inputs": [
        {
          "internalType": "address",
          "name": "newOwner_",
          "type": "address"
        }
      ],
      "name": "transferOwnership",
      "outputs": [],
      "stateMutability": "nonpayable",
      "type": "function"
    },
    {
      "inputs": [],
      "name": "twapEpochPeriod",
      "outputs": [
        {
          "internalType": "uint256",
          "name": "",
          "type": "uint256"
        }
      ],
      "stateMutability": "view",
      "type": "function"
    },
    {
      "inputs": [],
      "name": "twapOracle",
      "outputs": [
        {
          "internalType": "contract ITWAPOracle",
          "name": "",
          "type": "address"
        }
      ],
      "stateMutability": "view",
      "type": "function"
    },
    {
      "inputs": [],
      "name": "vault",
      "outputs": [
        {
          "internalType": "address",
          "name": "",
          "type": "address"
        }
      ],
      "stateMutability": "view",
      "type": "function"
    }
  ],
  "transactionHash": "0x05159b413ebf7dd38f9a8f609c857b9c892e6afa906593152dc2b66bcf422db9",
  "args": [
    "2000",
    "0xcA143Ce32Fe78f1f7019d7d551a6402fC5350c73",
    "0xe9e7CEA3DedcA5984780Bafc599bD69ADd087D56"
  ],
  "solcInputHash": "f0796e953cdded528589da43a92839b3",
  "bytecode": "0x60806040526013805460ff191660011790553480156200001e57600080fd5b5060405162002ca638038062002ca6833981810160405260608110156200004457600080fd5b50805160208083015160409384015184518086018652600781526654616f2044616f60c81b818501528551808701909652600386526254414f60e81b868501529394919390928592906009908390839083908390839083908c908c90620000ba908390839030906200136762000243821b17901c565b600080546001600160a01b0319166001600160a01b039290921691909117905550508251620000f190600490602086019062000494565b5081516200010790600590602085019062000494565b506006805460ff191660ff92909216919091179055504690507f8b73c3c69bb8fe3d512ecc4cf759cc79239f7b179b0ffacaa9a75d522b39400f6200014b62000317565b805160209182012060408051808201825260018152603160f81b90840152805180840194909452838101919091527fc89efdaa54c0f20c7adf612882df0950f5a951637e0307cdcb4c672f298b8bc6606084015260808301939093523060a0808401919091528351808403909101815260c0909201928390528151910120600855600980546001600160a01b0319163317908190556001600160a01b0316906000907f8be0079c531659141344cd1fd0a4f28419497f9722a3daafe3b4186f6b6457e0908290a35050600f80546001600160801b0319166001600160801b039690961695909517909455506200054095505050505050565b60008080620002538585620003b1565b604080516001600160601b0319606094851b811660208084019190915293851b81166034830152825160288184030181526048830184528051908501207fff0000000000000000000000000000000000000000000000000000000000000060688401529a90941b9093166069840152607d8301989098527f96e8ac4277198ff8b6f785478aa9a39f403cb768dd02cbee326c3e7da348845f609d808401919091528851808403909101815260bd909201909752805196019590952095945050505050565b60048054604080516020601f6002600019610100600188161502019095169490940493840181900481028201810190925282815260609390929091830182828015620003a75780601f106200037b57610100808354040283529160200191620003a7565b820191906000526020600020905b8154815290600101906020018083116200038957829003601f168201915b5050505050905090565b600080826001600160a01b0316846001600160a01b03161415620004075760405162461bcd60e51b815260040180806020018281038252602581526020018062002c816025913960400191505060405180910390fd5b826001600160a01b0316846001600160a01b031610620004295782846200042c565b83835b90925090506001600160a01b0382166200048d576040805162461bcd60e51b815260206004820152601e60248201527f556e697377617056324c6962726172793a205a45524f5f414444524553530000604482015290519081900360640190fd5b9250929050565b828054600181600116156101000203166002900490600052602060002090601f016020900481019282620004cc576000855562000517565b82601f10620004e757805160ff191683800117855562000517565b8280016001018555821562000517579182015b8281111562000517578251825591602001919060010190620004fa565b506200052592915062000529565b5090565b5b808211156200052557600081556001016200052a565b61273180620005506000396000f3fe608060405234801561001057600080fd5b50600436106102535760003560e01c8063715018a611610146578063baee865e116100c3578063dd62ed3e11610087578063dd62ed3e146106dd578063efa058b11461070b578063f2fde38b14610731578063f31714b914610757578063f57df22e1461077b578063fbfa77cf1461078357610253565b8063baee865e14610614578063c18230ec14610638578063c5bc70021461065e578063d0df137414610666578063d505accf1461068c57610253565b80639043292a1161010a5780639043292a1461058057806395d89b4114610588578063a22b35ce14610590578063a457c2d7146105bc578063a9059cbb146105e857610253565b8063715018a6146104fa57806379cc6790146105025780637ecebe001461052e578063834d8185146105545780638da5cb5b1461055c57610253565b80633644e515116101d45780634daff8a3116101985780634daff8a31461048957806357ad72d1146104a65780635ce49f01146102d55780636817031b146104ae57806370a08231146104d457610253565b80633644e51514610404578063395093511461040c57806340c10f1914610438578063421dd7c71461046457806342966c681461046c57610253565b806318160ddd1161021b57806318160ddd1461037c57806323b872dd1461039657806330adf81f146103cc578063313ce567146103d45780633144fdf6146103dc57610253565b806306fdde0314610258578063070332ff146102d557806307f2c3dd146102f3578063095ea7b3146103335780630b70487f1461035f575b600080fd5b61026061078b565b6040805160208082528351818301528351919283929083019185019080838360005b8381101561029a578181015183820152602001610282565b50505050905090810190601f1680156102c75780820380516001836020036101000a031916815260200191505b509250505060405180910390f35b6102dd610821565b6040805160ff9092168252519081900360200190f35b61031f6004803603604081101561030957600080fd5b506001600160a01b038135169060200135610826565b604080519115158252519081900360200190f35b61031f6004803603604081101561034957600080fd5b506001600160a01b03813516906020013561085f565b6102dd6004803603602081101561037557600080fd5b5035610876565b6103846108a0565b60408051918252519081900360200190f35b61031f600480360360608110156103ac57600080fd5b506001600160a01b038135811691602081013590911690604001356108a6565b61038461090f565b6102dd610933565b610402600480360360208110156103f257600080fd5b50356001600160a01b031661093c565b005b6103846109e5565b61031f6004803603604081101561042257600080fd5b506001600160a01b0381351690602001356109eb565b6104026004803603604081101561044e57600080fd5b506001600160a01b038135169060200135610a21565b610402610a78565b6104026004803603602081101561048257600080fd5b5035610ad1565b6104026004803603602081101561049f57600080fd5b5035610ade565b6102dd610bac565b61031f600480360360208110156104c457600080fd5b50356001600160a01b0316610bb1565b610384600480360360208110156104ea57600080fd5b50356001600160a01b0316610c25565b610402610c40565b6104026004803603604081101561051857600080fd5b506001600160a01b038135169060200135610cd7565b6103846004803603602081101561054457600080fd5b50356001600160a01b0316610ce1565b61031f610d02565b610564610d0b565b604080516001600160a01b039092168252519081900360200190f35b610564610d1a565b610260610d29565b610402600480360360408110156105a657600080fd5b506001600160a01b038135169060200135610d8a565b61031f600480360360408110156105d257600080fd5b506001600160a01b038135169060200135610dd6565b61031f600480360360408110156105fe57600080fd5b506001600160a01b038135169060200135610e25565b61061c610e32565b604080516001600160801b039092168252519081900360200190f35b6104026004803603602081101561064e57600080fd5b50356001600160a01b0316610e41565b610384610f0b565b6103846004803603602081101561067c57600080fd5b50356001600160a01b0316610f11565b610402600480360360e08110156106a257600080fd5b506001600160a01b03813581169160208101359091169060408101359060608101359060ff6080820135169060a08101359060c00135610f23565b610384600480360360408110156106f357600080fd5b506001600160a01b0381358116916020013516611150565b6104026004803603602081101561072157600080fd5b50356001600160a01b031661117b565b6104026004803603602081101561074757600080fd5b50356001600160a01b0316611245565b61075f611333565b604080516001600160601b039092168252519081900360200190f35b610564611349565b610564611358565b60048054604080516020601f60026000196101006001881615020190951694909404938401819004810282018101909252828152606093909290918301828280156108175780601f106107ec57610100808354040283529160200191610817565b820191906000526020600020905b8154815290600101906020018083116107fa57829003601f168201915b5050505050905090565b600581565b6011602052816000526040600020816005811061084257600080fd5b602081049091015460ff601f9092166101000a9004169150829050565b600061086c338484611427565b5060015b92915050565b6012816005811061088657600080fd5b60209182820401919006915054906101000a900460ff1681565b60035490565b60006108b3848484611513565b610905843361090085604051806060016040528060288152602001612573602891396001600160a01b038a1660009081526002602090815260408083203384529091529020549190611670565b611427565b5060019392505050565b7f6e71edae12b1b97f4d1f60370fef10105fa2faae0126114a169c64845d6126c981565b60065460ff1690565b6009546001600160a01b03163314610989576040805162461bcd60e51b815260206004820181905260248201526000805160206125be833981519152604482015290519081900360640190fd5b600d546040516001600160a01b038084169216907f04d449efb9af82ca8fd89ca047e3c023180cac06245c5ace8ecf96c7f637c00a90600090a3600d80546001600160a01b0319166001600160a01b0392909216919091179055565b60085481565b3360008181526002602090815260408083206001600160a01b0387168452909152812054909161086c9185906109009086611707565b600a546001600160a01b03163314610a6a5760405162461bcd60e51b815260040180806020018281038252602381526020018061259b6023913960400191505060405180910390fd5b610a748282611768565b5050565b6009546001600160a01b03163314610ac5576040805162461bcd60e51b815260206004820181905260248201526000805160206125be833981519152604482015290519081900360640190fd5b6013805460ff19169055565b610adb338261185a565b50565b6009546001600160a01b03163314610b2b576040805162461bcd60e51b815260206004820181905260248201526000805160206125be833981519152604482015290519081900360640190fd5b60008111610b6a5760405162461bcd60e51b815260040180806020018281038252603c81526020018061247a603c913960400191505060405180910390fd5b600e54604080519182526020820183905280517fcddeab46bd7c7fa32f59b80523bce21904a7f2031ac8fbefa3f9c2ba24cc0e9f9281900390910190a1600e55565b600f81565b6009546000906001600160a01b03163314610c01576040805162461bcd60e51b815260206004820181905260248201526000805160206125be833981519152604482015290519081900360640190fd5b50600a80546001600160a01b0319166001600160a01b03831617905560015b919050565b6001600160a01b031660009081526001602052604090205490565b6009546001600160a01b03163314610c8d576040805162461bcd60e51b815260206004820181905260248201526000805160206125be833981519152604482015290519081900360640190fd5b6009546040516000916001600160a01b0316907f8be0079c531659141344cd1fd0a4f28419497f9722a3daafe3b4186f6b6457e0908390a3600980546001600160a01b0319169055565b610a748282610d8a565b6001600160a01b038116600090815260076020526040812061087090611956565b60135460ff1681565b6009546001600160a01b031690565b600d546001600160a01b031681565b60058054604080516020601f60026000196101006001881615020190951694909404938401819004810282018101909252828152606093909290918301828280156108175780601f106107ec57610100808354040283529160200191610817565b6000610dba826040518060600160405280602481526020016125de60249139610db38633611150565b9190611670565b9050610dc7833383611427565b610dd1838361185a565b505050565b600061086c3384610900856040518060600160405280602581526020016126b0602591393360009081526002602090815260408083206001600160a01b038d1684529091529020549190611670565b600061086c338484611513565b600f546001600160801b031681565b6009546001600160a01b03163314610e8e576040805162461bcd60e51b815260206004820181905260248201526000805160206125be833981519152604482015290519081900360640190fd5b610e99600b8261195a565b610ed45760405162461bcd60e51b815260040180806020018281038252602a815260200180612549602a913960400191505060405180910390fd5b6040516001600160a01b038216907fb702ce677d2c4388aab38b10f96ca003dbe3dadb46fbf858cb7d55cba6bebc4690600090a250565b600e5481565b60106020526000908152604090205481565b83421115610f78576040805162461bcd60e51b815260206004820152601860248201527f5065726d69743a206578706972656420646561646c696e650000000000000000604482015290519081900360640190fd5b6001600160a01b03871660009081526007602052604081207f6e71edae12b1b97f4d1f60370fef10105fa2faae0126114a169c64845d6126c990899089908990610fc190611956565b604080516020808201979097526001600160a01b0395861681830152939094166060840152608083019190915260a082015260c08082018990528251808303909101815260e08201835280519084012060085461190160f01b610100840152610102830152610122808301829052835180840390910181526101428301808552815191860191909120600091829052610162840180865281905260ff8a166101828501526101a284018990526101c28401889052935191955092936001926101e280820193601f1981019281900390910190855afa1580156110a7573d6000803e3d6000fd5b5050604051601f1901519150506001600160a01b038116158015906110dd5750896001600160a01b0316816001600160a01b0316145b6111185760405162461bcd60e51b81526004018080602001828103825260218152602001806125286021913960400191505060405180910390fd5b6001600160a01b038a1660009081526007602052604090206111399061196f565b6111448a8a8a611427565b50505050505050505050565b6001600160a01b03918216600090815260026020908152604080832093909416825291909152205490565b6009546001600160a01b031633146111c8576040805162461bcd60e51b815260206004820181905260248201526000805160206125be833981519152604482015290519081900360640190fd5b6111d3600b82611978565b61120e5760405162461bcd60e51b81526004018080602001828103825260278152602001806124b66027913960400191505060405180910390fd5b6040516001600160a01b038216907f677b09947a451559cdf8756f4cb518daf9620feb88ad8f3434a77f4cbfc73bc990600090a250565b6009546001600160a01b03163314611292576040805162461bcd60e51b815260206004820181905260248201526000805160206125be833981519152604482015290519081900360640190fd5b6001600160a01b0381166112d75760405162461bcd60e51b81526004018080602001828103825260268152602001806124326026913960400191505060405180910390fd5b6009546040516001600160a01b038084169216907f8be0079c531659141344cd1fd0a4f28419497f9722a3daafe3b4186f6b6457e090600090a3600980546001600160a01b0319166001600160a01b0392909216919091179055565b600054600160a01b90046001600160601b031681565b6000546001600160a01b031681565b600a546001600160a01b031690565b6000806000611376858561198d565b604080516bffffffffffffffffffffffff19606094851b811660208084019190915293851b81166034830152825160288184030181526048830184528051908501206001600160f81b031960688401529a90941b9093166069840152607d8301989098527f96e8ac4277198ff8b6f785478aa9a39f403cb768dd02cbee326c3e7da348845f609d808401919091528851808403909101815260bd909201909752805196019590952095945050505050565b6001600160a01b03831661146c5760405162461bcd60e51b81526004018080602001828103825260248152602001806126486024913960400191505060405180910390fd5b6001600160a01b0382166114b15760405162461bcd60e51b81526004018080602001828103825260228152602001806124586022913960400191505060405180910390fd5b6001600160a01b03808416600081815260026020908152604080832094871680845294825291829020859055815185815291517f8c5be1e5ebec7d5bd14f71427d1e84f3dd0314c0f7b2291e5b200ac8c7c3b9259281900390910190a3505050565b6001600160a01b0383166115585760405162461bcd60e51b81526004018080602001828103825260258152602001806126236025913960400191505060405180910390fd5b6001600160a01b03821661159d5760405162461bcd60e51b81526004018080602001828103825260238152602001806123ed6023913960400191505060405180910390fd5b6115a8838383611a6b565b6115e5816040518060600160405280602681526020016124dd602691396001600160a01b0386166000908152600160205260409020549190611670565b6001600160a01b0380851660009081526001602052604080822093909355908416815220546116149082611707565b6001600160a01b0380841660008181526001602090815260409182902094909455805185815290519193928716927fddf252ad1be2c89b69c2b068fc378daa952ba7f163c4a11628f55a4df523b3ef92918290030190a3505050565b600081848411156116ff5760405162461bcd60e51b81526004018080602001828103825283818151815260200191508051906020019080838360005b838110156116c45781810151838201526020016116ac565b50505050905090810190601f1680156116f15780820380516001836020036101000a031916815260200191505b509250505060405180910390fd5b505050900390565b600082820183811015611761576040805162461bcd60e51b815260206004820152601b60248201527f536166654d6174683a206164646974696f6e206f766572666c6f770000000000604482015290519081900360640190fd5b9392505050565b6001600160a01b0382166117c3576040805162461bcd60e51b815260206004820152601f60248201527f45524332303a206d696e7420746f20746865207a65726f206164647265737300604482015290519081900360640190fd5b6117ce308383611a6b565b6003546117db9082611707565b6003556001600160a01b0382166000908152600160205260409020546118019082611707565b6001600160a01b0383166000818152600160209081526040918290209390935580518481529051919230927fddf252ad1be2c89b69c2b068fc378daa952ba7f163c4a11628f55a4df523b3ef9281900390910190a35050565b6001600160a01b03821661189f5760405162461bcd60e51b81526004018080602001828103825260218152602001806126026021913960400191505060405180910390fd5b6118ab82600083611a6b565b6118e881604051806060016040528060228152602001612410602291396001600160a01b0385166000908152600160205260409020549190611670565b6001600160a01b03831660009081526001602052604090205560035461190e9082611a97565b6003556040805182815290516000916001600160a01b038516917fddf252ad1be2c89b69c2b068fc378daa952ba7f163c4a11628f55a4df523b3ef9181900360200190a35050565b5490565b6000611761836001600160a01b038416611ad9565b80546001019055565b6000611761836001600160a01b038416611b23565b600080826001600160a01b0316846001600160a01b031614156119e15760405162461bcd60e51b81526004018080602001828103825260258152602001806125036025913960400191505060405180910390fd5b826001600160a01b0316846001600160a01b031610611a01578284611a04565b83835b90925090506001600160a01b038216611a64576040805162461bcd60e51b815260206004820152601e60248201527f556e697377617056324c6962726172793a205a45524f5f414444524553530000604482015290519081900360640190fd5b9250929050565b611a76838383611be9565b60135460ff1615610dd157611a8c838383611c26565b610dd1838383612078565b600061176183836040518060400160405280601e81526020017f536166654d6174683a207375627472616374696f6e206f766572666c6f770000815250611670565b6000611ae58383612226565b611b1b57508154600181810184556000848152602080822090930184905584548482528286019093526040902091909155610870565b506000610870565b60008181526001830160205260408120548015611bdf5783546000198083019190810190600090879083908110611b5657fe5b9060005260206000200154905080876000018481548110611b7357fe5b600091825260208083209091019290925582815260018981019092526040902090840190558654879080611ba357fe5b60019003818190600052602060002001600090559055866001016000878152602001908152602001600020600090556001945050505050610870565b6000915050610870565b611bf4600b8461223e565b15611c0a57611c0583600e54612253565b610dd1565b611c15600b8361223e565b15610dd157610dd182600e54612253565b611c318383836122e9565b60008054611c4e90600160a01b90046001600160601b031661235b565b600054909150600590611c7090600160a01b90046001600160601b031661235b565b1015611ea2576000546001600160a01b038581169116148015611ca157506000546001600160a01b03848116911614155b8015611cb757506103e8836001600160a01b0316115b8015611cc35750600082115b15611d79576001600160a01b03831660009081526011602052604090206001908260058110611cee57fe5b602091828204019190066101000a81548160ff02191690831515021790555060ff801660128260058110611d1e57fe5b602081049091015460ff601f9092166101000a9004161015611d745760128160058110611d4757fe5b60208104919091018054601f9092166101000a60ff81810219841693829004811660010116029190911790555b611ea2565b6000546001600160a01b03858116911614801590611da457506000546001600160a01b038481169116145b8015611dba57506103e8846001600160a01b0316115b8015611dc65750600082115b15611ea257600060128260058110611dda57fe5b602081049091015460ff601f9092166101000a9004161115611ea2576001600160a01b03841660009081526011602052604090206001908260058110611e1c57fe5b602091828204019190066101000a81548160ff02191690831515021790555060ff801660128260058110611e4c57fe5b602081049091015460ff601f9092166101000a9004161015611ea25760128160058110611e7557fe5b60208104919091018054601f9092166101000a60ff81810219841693829004811660010116029190911790555b611eaa6123c7565b6040805160a081019182905290601290600590826000855b825461010083900a900460ff16815260206001928301818104948501949093039092029101808411611ec257905050505050509050611eff6123c7565b6001600160a01b038616600090815260116020526040808220815160a08101928390529290916005918390855b825461010083900a900460ff161515815260206001928301818104948501949093039092029101808411611f2c5790505050505050905060005b600581101561206f57600f838260058110611f7d57fe5b602002015160ff16118015611f9f5750818160058110611f9957fe5b60200201515b1561206757611fac610d0b565b6001600160a01b0316866001600160a01b031614611ffb5760405162461bcd60e51b81526004018080602001828103825260278152602001806126d56027913960400191505060405180910390fd5b8461200588610c25565b146120415760405162461bcd60e51b815260040180806020018281038252602381526020018061266c6023913960400191505060405180910390fd5b6001600160a01b0387166000908152601160205260408120612062916123e5565b61206f565b600101611f66565b50505050505050565b6120838383836122e9565b6000546005906120a290600160a01b90046001600160601b031661235b565b101561212b576000546001600160a01b0384811691161480156120d357506000546001600160a01b03838116911614155b80156120e957506103e8826001600160a01b0316115b1561212b576001600160a01b0382166000908152601060205260409020546121119082611707565b6001600160a01b0383166000908152601060205260409020555b600f546001600160a01b0384166000908152601060205260409020546001600160801b0390911611610dd15761215f610d0b565b6001600160a01b0316826001600160a01b0316146121ae5760405162461bcd60e51b815260040180806020018281038252602181526020018061268f6021913960400191505060405180910390fd5b806121b884610c25565b1461220a576040805162461bcd60e51b815260206004820152601d60248201527f7354616f436865636b3a206d7573742072656261736520697420616c6c000000604482015290519081900360640190fd5b50506001600160a01b0316600090815260106020526040812055565b60009081526001919091016020526040902054151590565b6000611761836001600160a01b038416612226565b61225e600b8361223e565b15610a7457600d54604080516377a8d4c160e11b81526001600160a01b038581166004830152602482018590529151919092169163ef51a9829160448083019260209291908290030181600087803b1580156122b957600080fd5b505af11580156122cd573d6000803e3d6000fd5b505050506040513d60208110156122e357600080fd5b50505050565b600054600160a01b90046001600160601b031615801561231657506000546001600160a01b038381169116145b80156123225750600081115b15610dd15761233043612373565b600060146101000a8154816001600160601b0302191690836001600160601b03160217905550505050565b60004382111561236d57506000610c20565b50430390565b60006001600160601b038211156123c3576040805162461bcd60e51b815260206004820152600f60248201526e75696e743936206f766572666c6f7760881b604482015290519081900360640190fd5b5090565b6040518060a001604052806005906020820280368337509192915050565b506000905556fe45524332303a207472616e7366657220746f20746865207a65726f206164647265737345524332303a206275726e20616d6f756e7420657863656564732062616c616e63654f776e61626c653a206e6577206f776e657220697320746865207a65726f206164647265737345524332303a20617070726f766520746f20746865207a65726f2061646472657373545741504f7261636c65557064617465723a20545741502045706f636820706572696f64206d7573742062652067726561746572207468616e20302e4231324552433230544f6b656e3a205457415020736f75726365206e6f742070726573656e742e45524332303a207472616e7366657220616d6f756e7420657863656564732062616c616e6365556e697377617056324c6962726172793a204944454e544943414c5f4144445245535345535a65726f537761705065726d69743a20496e76616c6964207369676e61747572654231324552433230544f6b656e3a205457415020536f7572636520616c72656164792073746f7265642e45524332303a207472616e7366657220616d6f756e74206578636565647320616c6c6f77616e63655661756c744f776e65643a2063616c6c6572206973206e6f7420746865205661756c744f776e61626c653a2063616c6c6572206973206e6f7420746865206f776e657245524332303a206275726e20616d6f756e74206578636565647320616c6c6f77616e636545524332303a206275726e2066726f6d20746865207a65726f206164647265737345524332303a207472616e736665722066726f6d20746865207a65726f206164647265737345524332303a20617070726f76652066726f6d20746865207a65726f20616464726573737354616f526562617365436865636b3a206d7573742072656261736520697420616c6c7354616f436865636b3a206d7573742072656261736520746f206f776e6572282945524332303a2064656372656173656420616c6c6f77616e63652062656c6f77207a65726f7354616f526562617365436865636b3a206d7573742072656261736520746f206f776e65722829a26469706673582212204a2ea4adec7d910fa5533fe955401be5fd3708aef34efb1eca9fdd5d922b376e64736f6c63430007050033556e697377617056324c6962726172793a204944454e544943414c5f414444524553534553",
  "devdoc": {
    "kind": "dev",
    "methods": {
      "allowance(address,address)": {
        "details": "See {IERC20-allowance}."
      },
      "approve(address,uint256)": {
        "details": "See {IERC20-approve}. Requirements: - `spender` cannot be the zero address."
      },
      "balanceOf(address)": {
        "details": "See {IERC20-balanceOf}."
      },
      "burn(uint256)": {
        "details": "Destroys `amount` tokens from the caller. See {ERC20-_burn}."
      },
      "decimals()": {
        "details": "Returns the number of decimals used to get its user representation. For example, if `decimals` equals `2`, a balance of `505` tokens should be displayed to a user as `5,05` (`505 / 10 ** 2`). Tokens usually opt for a value of 18, imitating the relationship between Ether and Wei. This is the value {ERC20} uses, unless {_setupDecimals} is called. NOTE: This information is only used for _display_ purposes: it in no way affects any of the arithmetic of the contract, including {IERC20-balanceOf} and {IERC20-transfer}."
      },
      "decreaseAllowance(address,uint256)": {
        "details": "Atomically decreases the allowance granted to `spender` by the caller. This is an alternative to {approve} that can be used as a mitigation for problems described in {IERC20-approve}. Emits an {Approval} event indicating the updated allowance. Requirements: - `spender` cannot be the zero address. - `spender` must have allowance for the caller of at least `subtractedValue`."
      },
      "increaseAllowance(address,uint256)": {
        "details": "Atomically increases the allowance granted to `spender` by the caller. This is an alternative to {approve} that can be used as a mitigation for problems described in {IERC20-approve}. Emits an {Approval} event indicating the updated allowance. Requirements: - `spender` cannot be the zero address."
      },
      "name()": {
        "details": "Returns the name of the token."
      },
      "nonces(address)": {
        "details": "See {IERC2612Permit-nonces}."
      },
      "owner()": {
        "details": "Returns the address of the current owner."
      },
      "permit(address,address,uint256,uint256,uint8,bytes32,bytes32)": {
        "details": "See {IERC2612Permit-permit}."
      },
      "renounceOwnership()": {
        "details": "Leaves the contract without owner. It will not be possible to call `onlyOwner` functions anymore. Can only be called by the current owner. NOTE: Renouncing ownership will leave the contract without an owner, thereby removing any functionality that is only available to the owner."
      },
      "symbol()": {
        "details": "Returns the symbol of the token, usually a shorter version of the name."
      },
      "totalSupply()": {
        "details": "See {IERC20-totalSupply}."
      },
      "transfer(address,uint256)": {
        "details": "See {IERC20-transfer}. Requirements: - `recipient` cannot be the zero address. - the caller must have a balance of at least `amount`."
      },
      "transferFrom(address,address,uint256)": {
        "details": "See {IERC20-transferFrom}. Emits an {Approval} event indicating the updated allowance. This is not required by the EIP. See the note at the beginning of {ERC20}. Requirements: - `sender` and `recipient` cannot be the zero address. - `sender` must have a balance of at least `amount`. - the caller must have allowance for ``sender``'s tokens of at least `amount`."
      },
      "transferOwnership(address)": {
        "details": "Transfers ownership of the contract to a new account (`newOwner`). Can only be called by the current owner."
      },
      "vault()": {
        "details": "Returns the address of the current vault."
      }
    },
    "version": 1
  },
  "userdoc": {
    "kind": "user",
    "methods": {},
    "version": 1
  },
  "storageLayout": {
    "storage": [
      {
        "astId": 363,
        "contract": "contracts/TaoToken.sol:TaoToken",
        "label": "Staking",
        "offset": 0,
        "slot": "0",
        "type": "t_address"
      },
      {
        "astId": 411,
        "contract": "contracts/TaoToken.sol:TaoToken",
        "label": "sTaoCheckBlock",
        "offset": 20,
        "slot": "0",
        "type": "t_uint96"
      },
      {
        "astId": 2246,
        "contract": "contracts/TaoToken.sol:TaoToken",
        "label": "_balances",
        "offset": 0,
        "slot": "1",
        "type": "t_mapping(t_address,t_uint256)"
      },
      {
        "astId": 2252,
        "contract": "contracts/TaoToken.sol:TaoToken",
        "label": "_allowances",
        "offset": 0,
        "slot": "2",
        "type": "t_mapping(t_address,t_mapping(t_address,t_uint256))"
      },
      {
        "astId": 2254,
        "contract": "contracts/TaoToken.sol:TaoToken",
        "label": "_totalSupply",
        "offset": 0,
        "slot": "3",
        "type": "t_uint256"
      },
      {
        "astId": 2256,
        "contract": "contracts/TaoToken.sol:TaoToken",
        "label": "_name",
        "offset": 0,
        "slot": "4",
        "type": "t_string_storage"
      },
      {
        "astId": 2258,
        "contract": "contracts/TaoToken.sol:TaoToken",
        "label": "_symbol",
        "offset": 0,
        "slot": "5",
        "type": "t_string_storage"
      },
      {
        "astId": 2260,
        "contract": "contracts/TaoToken.sol:TaoToken",
        "label": "_decimals",
        "offset": 0,
        "slot": "6",
        "type": "t_uint8"
      },
      {
        "astId": 2883,
        "contract": "contracts/TaoToken.sol:TaoToken",
        "label": "_nonces",
        "offset": 0,
        "slot": "7",
        "type": "t_mapping(t_address,t_struct(Counter)2729_storage)"
      },
      {
        "astId": 2888,
        "contract": "contracts/TaoToken.sol:TaoToken",
        "label": "DOMAIN_SEPARATOR",
        "offset": 0,
        "slot": "8",
        "type": "t_bytes32"
      },
      {
        "astId": 3055,
        "contract": "contracts/TaoToken.sol:TaoToken",
        "label": "_owner",
        "offset": 0,
        "slot": "9",
        "type": "t_address"
      },
      {
        "astId": 3159,
        "contract": "contracts/TaoToken.sol:TaoToken",
        "label": "_vault",
        "offset": 0,
        "slot": "10",
        "type": "t_address"
      },
      {
        "astId": 3227,
        "contract": "contracts/TaoToken.sol:TaoToken",
        "label": "_dexPoolsTWAPSources",
        "offset": 0,
        "slot": "11",
        "type": "t_struct(AddressSet)1262_storage"
      },
      {
        "astId": 3229,
        "contract": "contracts/TaoToken.sol:TaoToken",
        "label": "twapOracle",
        "offset": 0,
        "slot": "13",
        "type": "t_contract(ITWAPOracle)712"
      },
      {
        "astId": 3231,
        "contract": "contracts/TaoToken.sol:TaoToken",
        "label": "twapEpochPeriod",
        "offset": 0,
        "slot": "14",
        "type": "t_uint256"
      },
      {
        "astId": 262,
        "contract": "contracts/TaoToken.sol:TaoToken",
        "label": "rebaseAmount",
        "offset": 0,
        "slot": "15",
        "type": "t_uint128"
      },
      {
        "astId": 266,
        "contract": "contracts/TaoToken.sol:TaoToken",
        "label": "rebase",
        "offset": 0,
        "slot": "16",
        "type": "t_mapping(t_address,t_uint256)"
      },
      {
        "astId": 466,
        "contract": "contracts/TaoToken.sol:TaoToken",
        "label": "checkedInBlock",
        "offset": 0,
        "slot": "17",
        "type": "t_mapping(t_address,t_array(t_bool)5_storage)"
      },
      {
        "astId": 470,
        "contract": "contracts/TaoToken.sol:TaoToken",
        "label": "rebaseInBlockCount",
        "offset": 0,
        "slot": "18",
        "type": "t_array(t_uint8)5_storage"
      },
      {
        "astId": 13,
        "contract": "contracts/TaoToken.sol:TaoToken",
        "label": "protected",
        "offset": 0,
        "slot": "19",
        "type": "t_bool"
      }
    ],
    "types": {
      "t_address": {
        "encoding": "inplace",
        "label": "address",
        "numberOfBytes": "20"
      },
      "t_array(t_bool)5_storage": {
        "base": "t_bool",
        "encoding": "inplace",
        "label": "bool[5]",
        "numberOfBytes": "32"
      },
      "t_array(t_bytes32)dyn_storage": {
        "base": "t_bytes32",
        "encoding": "dynamic_array",
        "label": "bytes32[]",
        "numberOfBytes": "32"
      },
      "t_array(t_uint8)5_storage": {
        "base": "t_uint8",
        "encoding": "inplace",
        "label": "uint8[5]",
        "numberOfBytes": "32"
      },
      "t_bool": {
        "encoding": "inplace",
        "label": "bool",
        "numberOfBytes": "1"
      },
      "t_bytes32": {
        "encoding": "inplace",
        "label": "bytes32",
        "numberOfBytes": "32"
      },
      "t_contract(ITWAPOracle)712": {
        "encoding": "inplace",
        "label": "contract ITWAPOracle",
        "numberOfBytes": "20"
      },
      "t_mapping(t_address,t_array(t_bool)5_storage)": {
        "encoding": "mapping",
        "key": "t_address",
        "label": "mapping(address => bool[5])",
        "numberOfBytes": "32",
        "value": "t_array(t_bool)5_storage"
      },
      "t_mapping(t_address,t_mapping(t_address,t_uint256))": {
        "encoding": "mapping",
        "key": "t_address",
        "label": "mapping(address => mapping(address => uint256))",
        "numberOfBytes": "32",
        "value": "t_mapping(t_address,t_uint256)"
      },
      "t_mapping(t_address,t_struct(Counter)2729_storage)": {
        "encoding": "mapping",
        "key": "t_address",
        "label": "mapping(address => struct Counters.Counter)",
        "numberOfBytes": "32",
        "value": "t_struct(Counter)2729_storage"
      },
      "t_mapping(t_address,t_uint256)": {
        "encoding": "mapping",
        "key": "t_address",
        "label": "mapping(address => uint256)",
        "numberOfBytes": "32",
        "value": "t_uint256"
      },
      "t_mapping(t_bytes32,t_uint256)": {
        "encoding": "mapping",
        "key": "t_bytes32",
        "label": "mapping(bytes32 => uint256)",
        "numberOfBytes": "32",
        "value": "t_uint256"
      },
      "t_string_storage": {
        "encoding": "bytes",
        "label": "string",
        "numberOfBytes": "32"
      },
      "t_struct(AddressSet)1262_storage": {
        "encoding": "inplace",
        "label": "struct EnumerableSet.AddressSet",
        "members": [
          {
            "astId": 1261,
            "contract": "contracts/TaoToken.sol:TaoToken",
            "label": "_inner",
            "offset": 0,
            "slot": "0",
            "type": "t_struct(Set)720_storage"
          }
        ],
        "numberOfBytes": "64"
      },
      "t_struct(Counter)2729_storage": {
        "encoding": "inplace",
        "label": "struct Counters.Counter",
        "members": [
          {
            "astId": 2728,
            "contract": "contracts/TaoToken.sol:TaoToken",
            "label": "_value",
            "offset": 0,
            "slot": "0",
            "type": "t_uint256"
          }
        ],
        "numberOfBytes": "32"
      },
      "t_struct(Set)720_storage": {
        "encoding": "inplace",
        "label": "struct EnumerableSet.Set",
        "members": [
          {
            "astId": 715,
            "contract": "contracts/TaoToken.sol:TaoToken",
            "label": "_values",
            "offset": 0,
            "slot": "0",
            "type": "t_array(t_bytes32)dyn_storage"
          },
          {
            "astId": 719,
            "contract": "contracts/TaoToken.sol:TaoToken",
            "label": "_indexes",
            "offset": 0,
            "slot": "1",
            "type": "t_mapping(t_bytes32,t_uint256)"
          }
        ],
        "numberOfBytes": "64"
      },
      "t_uint128": {
        "encoding": "inplace",
        "label": "uint128",
        "numberOfBytes": "16"
      },
      "t_uint256": {
        "encoding": "inplace",
        "label": "uint256",
        "numberOfBytes": "32"
      },
      "t_uint8": {
        "encoding": "inplace",
        "label": "uint8",
        "numberOfBytes": "1"
      },
      "t_uint96": {
        "encoding": "inplace",
        "label": "uint96",
        "numberOfBytes": "12"
      }
    }
  }
}