{
  "address": "0xD99D1c33F9fC3444f8101754aBC46c52416550D1",
  "contractName": "Router",
  "abi": [
    {
      "inputs": [
        {
          "internalType": "address",
          "name": "tokenA",
          "type": "address"
        },
        {
          "internalType": "address",
          "name": "tokenB",
          "type": "address"
        },
        {
          "internalType": "uint256",
          "name": "amountADesired",
          "type": "uint256"
        },
        {
          "internalType": "uint256",
          "name": "amountBDesired",
          "type": "uint256"
        },
        {
          "internalType": "uint256",
          "name": "amountAMin",
          "type": "uint256"
        },
        {
          "internalType": "uint256",
          "name": "amountBMin",
          "type": "uint256"
        },
        {
          "internalType": "address",
          "name": "to",
          "type": "address"
        },
        {
          "internalType": "uint256",
          "name": "deadline",
          "type": "uint256"
        }
      ],
      "name": "addLiquidity",
      "outputs": [
        {
          "internalType": "uint256",
          "name": "amountA",
          "type": "uint256"
        },
        {
          "internalType": "uint256",
          "name": "amountB",
          "type": "uint256"
        },
        {
          "internalType": "uint256",
          "name": "liquidity",
          "type": "uint256"
        }
      ],
      "stateMutability": "nonpayable",
      "type": "function"
    }
  ],
  "bytecode": "0x608060405234801561001057600080fd5b5060e68061001f6000396000f3fe6080604052348015600f57600080fd5b506004361060285760003560e01c8063e8e3370014602d575b600080fd5b607f6004803603610100811015604257600080fd5b506001600160a01b038135811691602081013582169160408201359160608101359160808201359160a08101359160c0820135169060e00135609d565b60408051938452602084019290925282820152519081900360600190f35b600080600098509850989550505050505056fea2646970667358221220205cb7cb586b20eb2b85da16baaf021489c7088479c6c5489cab46663422509864736f6c63430007050033",
  "linkReferences": {},
  "deployedLinkReferences": {}
}