{
  "address": "0xb8e1E6A5B6ba384EfA681e2D4282d52997fe1F7E",
  "abi": [
    {
      "anonymous": false,
      "inputs": [
        {
          "indexed": false,
          "internalType": "uint256",
          "name": "k_",
          "type": "uint256"
        },
        {
          "indexed": false,
          "internalType": "uint256",
          "name": "amountDeposited_",
          "type": "uint256"
        },
        {
          "indexed": false,
          "internalType": "uint256",
          "name": "totalSupplyOfTokenDeposited_",
          "type": "uint256"
        },
        {
          "indexed": false,
          "internalType": "uint256",
          "name": "pendingDebtDue_",
          "type": "uint256"
        },
        {
          "indexed": false,
          "internalType": "uint256",
          "name": "managedTokenTotalSupply_",
          "type": "uint256"
        },
        {
          "indexed": false,
          "internalType": "uint256",
          "name": "bondScalingValue_",
          "type": "uint256"
        },
        {
          "indexed": false,
          "internalType": "uint256",
          "name": "interestDue_",
          "type": "uint256"
        }
      ],
      "name": "BondInterest",
      "type": "event"
    },
    {
      "anonymous": false,
      "inputs": [
        {
          "indexed": false,
          "internalType": "uint256",
          "name": "debtRatio_",
          "type": "uint256"
        },
        {
          "indexed": false,
          "internalType": "uint256",
          "name": "bondScalingValue_",
          "type": "uint256"
        },
        {
          "indexed": false,
          "internalType": "uint256",
          "name": "premium_",
          "type": "uint256"
        }
      ],
      "name": "BondPremium",
      "type": "event"
    },
    {
      "anonymous": false,
      "inputs": [
        {
          "indexed": false,
          "internalType": "uint256",
          "name": "k_",
          "type": "uint256"
        },
        {
          "indexed": false,
          "internalType": "uint256",
          "name": "amountDeposited_",
          "type": "uint256"
        },
        {
          "indexed": false,
          "internalType": "uint256",
          "name": "totalSupplyOfTokenDeposited_",
          "type": "uint256"
        },
        {
          "indexed": false,
          "internalType": "uint256",
          "name": "principleValuation_",
          "type": "uint256"
        }
      ],
      "name": "PrincipleValuation",
      "type": "event"
    },
    {
      "inputs": [
        {
          "internalType": "uint256",
          "name": "debtRatio_",
          "type": "uint256"
        },
        {
          "internalType": "uint256",
          "name": "bondScalingValue_",
          "type": "uint256"
        }
      ],
      "name": "calcBondPremium",
      "outputs": [
        {
          "internalType": "uint256",
          "name": "premium_",
          "type": "uint256"
        }
      ],
      "stateMutability": "pure",
      "type": "function"
    },
    {
      "inputs": [
        {
          "internalType": "uint256",
          "name": "pendingDebtDue_",
          "type": "uint256"
        },
        {
          "internalType": "uint256",
          "name": "managedTokenTotalSupply_",
          "type": "uint256"
        }
      ],
      "name": "calcDebtRatio",
      "outputs": [
        {
          "internalType": "uint256",
          "name": "debtRatio_",
          "type": "uint256"
        }
      ],
      "stateMutability": "pure",
      "type": "function"
    },
    {
      "inputs": [
        {
          "internalType": "uint256",
          "name": "k_",
          "type": "uint256"
        },
        {
          "internalType": "uint256",
          "name": "amountDeposited_",
          "type": "uint256"
        },
        {
          "internalType": "uint256",
          "name": "totalSupplyOfTokenDeposited_",
          "type": "uint256"
        }
      ],
      "name": "calcPrincipleValuation",
      "outputs": [
        {
          "internalType": "uint256",
          "name": "principleValuation_",
          "type": "uint256"
        }
      ],
      "stateMutability": "pure",
      "type": "function"
    },
    {
      "inputs": [
        {
          "internalType": "address",
          "name": "treasury_",
          "type": "address"
        },
        {
          "internalType": "address",
          "name": "principleTokenAddress_",
          "type": "address"
        },
        {
          "internalType": "uint256",
          "name": "amountDeposited_",
          "type": "uint256"
        },
        {
          "internalType": "uint256",
          "name": "bondScalingValue_",
          "type": "uint256"
        }
      ],
      "name": "calculateBondInterest",
      "outputs": [
        {
          "internalType": "uint256",
          "name": "interestDue_",
          "type": "uint256"
        }
      ],
      "stateMutability": "nonpayable",
      "type": "function"
    },
    {
      "inputs": [
        {
          "internalType": "address",
          "name": "principleTokenAddress_",
          "type": "address"
        },
        {
          "internalType": "uint256",
          "name": "amountDeposited_",
          "type": "uint256"
        }
      ],
      "name": "principleValuation",
      "outputs": [
        {
          "internalType": "uint256",
          "name": "principleValuation_",
          "type": "uint256"
        }
      ],
      "stateMutability": "view",
      "type": "function"
    }
  ],
  "transactionHash": "0x4972718ef9204a3290d51276bff9f76d524a2e6cdf38287a027a0fe5f2c4f370",
  "args": [],
  "solcInputHash": "a608473174dba90444465c62f045a20c",
  "bytecode": "0x608060405234801561001057600080fd5b50610b42806100206000396000f3fe608060405234801561001057600080fd5b50600436106100575760003560e01c80630221e7161461005c5780636be06f14146100915780636c9c7cb6146100b4578063f1ee451d146100dd578063fb452dc114610119575b600080fd5b61007f6004803603604081101561007257600080fd5b5080359060200135610145565b60408051918252519081900360200190f35b61007f600480360360408110156100a757600080fd5b5080359060200135610158565b61007f600480360360608110156100ca57600080fd5b5080359060208101359060400135610164565b61007f600480360360808110156100f357600080fd5b506001600160a01b03813581169160208101359091169060408101359060600135610179565b61007f6004803603604081101561012f57600080fd5b506001600160a01b038135169060200135610364565b600061015183836103ef565b9392505050565b60006101518383610416565b6000610171848484610443565b949350505050565b60008061018585610477565b90506000856001600160a01b03166318160ddd6040518163ffffffff1660e01b815260040160206040518083038186803b1580156101c257600080fd5b505afa1580156101d6573d6000803e3d6000fd5b505050506040513d60208110156101ec57600080fd5b5051604080516376f9fa3d60e01b815290519192506000916001600160a01b038a16916376f9fa3d91600480830192602092919082900301818787803b15801561023557600080fd5b505af1158015610249573d6000803e3d6000fd5b505050506040513d602081101561025f57600080fd5b5051604080516318160ddd60e01b815290519192506000916001600160a01b038416916318160ddd916004808301926020929190829003018186803b1580156102a757600080fd5b505afa1580156102bb573d6000803e3d6000fd5b505050506040513d60208110156102d157600080fd5b505160408051631c2e50c160e11b815290519192506000916001600160a01b038c169163385ca18291600480830192602092919082900301818787803b15801561031a57600080fd5b505af115801561032e573d6000803e3d6000fd5b505050506040513d602081101561034457600080fd5b5051905061035685898684868c61050a565b9a9950505050505050505050565b60008061037084610477565b90506000846001600160a01b03166318160ddd6040518163ffffffff1660e01b815260040160206040518083038186803b1580156103ad57600080fd5b505afa1580156103c1573d6000803e3d6000fd5b505050506040513d60208110156103d757600080fd5b505190506103e6828583610443565b95945050505050565b600061015162989680610410633c33608061040a86886105c9565b9061062b565b90610685565b6000610151670de0b6b3a764000061041061043e61043887633b9aca006105c9565b866106c7565b61083e565b6000610171610469600a6104636402540be40061041061043e89896106c7565b906105c9565b61046360026104638861085a565b6000806000836001600160a01b0316630902f1ac6040518163ffffffff1660e01b815260040160606040518083038186803b1580156104b557600080fd5b505afa1580156104c9573d6000803e3d6000fd5b505050506040513d60608110156104df57600080fd5b5080516020909101516001600160701b039182169350169050610171633b9aca0061041084846105c9565b600080610518888888610443565b905060006105268686610416565b9050600061053482866103ef565b905061055c606461054d61054886856106c7565b6108c4565b6001600160701b031690610685565b604080518c8152602081018c90528082018b9052606081018a90526080810189905260a0810188905260c0810183905290519195507f3a269f8b7a14b50e5e96327a1e2888aa70caf27d3fe04d3d47b401e8e78489e1919081900360e00190a15050509695505050505050565b6000826105d857506000610625565b828202828482816105e557fe5b04146106225760405162461bcd60e51b8152600401808060200182810382526021815260200180610aec6021913960400191505060405180910390fd5b90505b92915050565b600082820183811015610622576040805162461bcd60e51b815260206004820152601b60248201527f536166654d6174683a206164646974696f6e206f766572666c6f770000000000604482015290519081900360640190fd5b600061015183836040518060400160405280601a81526020017f536166654d6174683a206469766973696f6e206279207a65726f0000000000008152506108d4565b6106cf610ab3565b6000821161070e5760405162461bcd60e51b8152600401808060200182810382526026815260200180610ac66026913960400191505060405180910390fd5b826107285750604080516020810190915260008152610625565b71ffffffffffffffffffffffffffffffffffff83116107cf57600082607085901b8161075057fe5b0490506001600160e01b038111156107af576040805162461bcd60e51b815260206004820152601e60248201527f4669786564506f696e743a3a6672616374696f6e3a206f766572666c6f770000604482015290519081900360640190fd5b6040518060200160405280826001600160e01b0316815250915050610625565b60006107e084600160701b85610976565b90506001600160e01b038111156107af576040805162461bcd60e51b815260206004820152601e60248201527f4669786564506f696e743a3a6672616374696f6e3a206f766572666c6f770000604482015290519081900360640190fd5b80516612725dd1d243ab6001600160e01b03909116045b919050565b600060038211156108b6575080600061087e610877836002610685565b600161062b565b90505b818110156108b0578091506108a96108a261089c8584610685565b8361062b565b6002610685565b9050610881565b50610855565b811561085557506001919050565b5160701c6001600160701b031690565b600081836109605760405162461bcd60e51b81526004018080602001828103825283818151815260200191508051906020019080838360005b8381101561092557818101518382015260200161090d565b50505050905090810190601f1680156109525780820380516001836020036101000a031916815260200191505b509250505060405180910390fd5b50600083858161096c57fe5b0495945050505050565b60008060006109858686610a16565b915091506000848061099357fe5b8688099050828111156109a7576001820391505b8083039250848210610a00576040805162461bcd60e51b815260206004820152601a60248201527f46756c6c4d6174683a3a6d756c4469763a206f766572666c6f77000000000000604482015290519081900360640190fd5b610a0b838387610a43565b979650505050505050565b6000808060001984860990508385029250828103915082811015610a3b576001820391505b509250929050565b60008181038216808381610a5357fe5b049250808581610a5f57fe5b049450808160000381610a6e57fe5b60028581038087028203028087028203028087028203028087028203028087028203028087028203029586029003909402930460010193909302939093010292915050565b6040805160208101909152600081529056fe4669786564506f696e743a3a6672616374696f6e3a206469766973696f6e206279207a65726f536166654d6174683a206d756c7469706c69636174696f6e206f766572666c6f77a26469706673582212208b2e3f9370b97bdd0d2b90b7d0b10fee844ca7b3b277762a7136f40d31914d3064736f6c63430007050033",
  "devdoc": {
    "kind": "dev",
    "methods": {},
    "version": 1
  },
  "userdoc": {
    "kind": "user",
    "methods": {},
    "version": 1
  },
  "storageLayout": {
    "storage": [],
    "types": null
  }
}