{
  "address": "0x578204cC792a8bd9fF97EeF9044730da1054C455",
  "abi": [
    {
      "anonymous": false,
      "inputs": [
        {
          "indexed": true,
          "internalType": "address",
          "name": "previousOwner",
          "type": "address"
        },
        {
          "indexed": true,
          "internalType": "address",
          "name": "newOwner",
          "type": "address"
        }
      ],
      "name": "OwnershipTransferred",
      "type": "event"
    },
    {
      "inputs": [],
      "name": "epochLengthInBlocks",
      "outputs": [
        {
          "internalType": "uint256",
          "name": "",
          "type": "uint256"
        }
      ],
      "stateMutability": "view",
      "type": "function"
    },
    {
      "inputs": [
        {
          "internalType": "address",
          "name": "taoTokenAddress_",
          "type": "address"
        },
        {
          "internalType": "address",
          "name": "sTAO_",
          "type": "address"
        },
        {
          "internalType": "uint32",
          "name": "epochLengthInBlocks_",
          "type": "uint32"
        }
      ],
      "name": "initialize",
      "outputs": [],
      "stateMutability": "nonpayable",
      "type": "function"
    },
    {
      "inputs": [],
      "name": "isInitialized",
      "outputs": [
        {
          "internalType": "bool",
          "name": "",
          "type": "bool"
        }
      ],
      "stateMutability": "view",
      "type": "function"
    },
    {
      "inputs": [],
      "name": "owner",
      "outputs": [
        {
          "internalType": "address",
          "name": "",
          "type": "address"
        }
      ],
      "stateMutability": "view",
      "type": "function"
    },
    {
      "inputs": [],
      "name": "renounceOwnership",
      "outputs": [],
      "stateMutability": "nonpayable",
      "type": "function"
    },
    {
      "inputs": [],
      "name": "sTAO",
      "outputs": [
        {
          "internalType": "address",
          "name": "",
          "type": "address"
        }
      ],
      "stateMutability": "view",
      "type": "function"
    },
    {
      "inputs": [
        {
          "internalType": "uint256",
          "name": "newEpochLengthInBlocks_",
          "type": "uint256"
        }
      ],
      "name": "setEpochLengthintBlock",
      "outputs": [],
      "stateMutability": "nonpayable",
      "type": "function"
    },
    {
      "inputs": [
        {
          "internalType": "uint256",
          "name": "amountToStake_",
          "type": "uint256"
        }
      ],
      "name": "stakeTAO",
      "outputs": [
        {
          "internalType": "bool",
          "name": "",
          "type": "bool"
        }
      ],
      "stateMutability": "nonpayable",
      "type": "function"
    },
    {
      "inputs": [
        {
          "internalType": "uint256",
          "name": "amountToStake_",
          "type": "uint256"
        },
        {
          "internalType": "uint256",
          "name": "deadline_",
          "type": "uint256"
        },
        {
          "internalType": "uint8",
          "name": "v_",
          "type": "uint8"
        },
        {
          "internalType": "bytes32",
          "name": "r_",
          "type": "bytes32"
        },
        {
          "internalType": "bytes32",
          "name": "s_",
          "type": "bytes32"
        }
      ],
      "name": "stakeTAOWithPermit",
      "outputs": [],
      "stateMutability": "nonpayable",
      "type": "function"
    },
    {
      "inputs": [],
      "name": "tao",
      "outputs": [
        {
          "internalType": "address",
          "name": "",
          "type": "address"
        }
      ],
      "stateMutability": "view",
      "type": "function"
    },
    {
      "inputs": [],
      "name": "taoToDistributeNextEpoch",
      "outputs": [
        {
          "internalType": "uint256",
          "name": "",
          "type": "uint256"
        }
      ],
      "stateMutability": "view",
      "type": "function"
    },
    {
      "inputs": [
        {
          "internalType": "address",
          "name": "newOwner_",
          "type": "address"
        }
      ],
      "name": "transferOwnership",
      "outputs": [],
      "stateMutability": "nonpayable",
      "type": "function"
    },
    {
      "inputs": [
        {
          "internalType": "uint256",
          "name": "amountToWithdraw_",
          "type": "uint256"
        }
      ],
      "name": "unstakeTAO",
      "outputs": [
        {
          "internalType": "bool",
          "name": "",
          "type": "bool"
        }
      ],
      "stateMutability": "nonpayable",
      "type": "function"
    },
    {
      "inputs": [
        {
          "internalType": "uint256",
          "name": "amountToWithdraw_",
          "type": "uint256"
        },
        {
          "internalType": "uint256",
          "name": "deadline_",
          "type": "uint256"
        },
        {
          "internalType": "uint8",
          "name": "v_",
          "type": "uint8"
        },
        {
          "internalType": "bytes32",
          "name": "r_",
          "type": "bytes32"
        },
        {
          "internalType": "bytes32",
          "name": "s_",
          "type": "bytes32"
        }
      ],
      "name": "unstakeTAOWithPermit",
      "outputs": [],
      "stateMutability": "nonpayable",
      "type": "function"
    }
  ],
  "transactionHash": "0x9622162baf6efd3406c9e48cc74afaa8a836f4e19360690c6f75741e24656ff9",
  "args": [],
  "solcInputHash": "ded6cd9de29d907528b7656801bd17ff",
  "bytecode": "0x608060405234801561001057600080fd5b50600080546001600160a01b03191633178082556040516001600160a01b039190911691907f8be0079c531659141344cd1fd0a4f28419497f9722a3daafe3b4186f6b6457e0908290a3610d86806100696000396000f3fe608060405234801561001057600080fd5b50600436106100ea5760003560e01c80638da5cb5b1161008c578063b83ca0db11610066578063b83ca0db14610242578063cf665f7d1461024a578063f2fde38b14610267578063fdc54c441461028d576100ea565b80638da5cb5b146101f957806397f86b741461021d578063b1232ac01461023a576100ea565b8063392e53cd116100c8578063392e53cd1461017e5780636ecf2b221461019a5780636f6fa8ec146101d7578063715018a6146101f1576100ea565b806306888338146100ef5780632b137cd5146101295780633528a01e14610161575b600080fd5b610127600480360360a081101561010557600080fd5b5080359060208101359060ff6040820135169060608101359060800135610295565b005b610127600480360360a081101561013f57600080fd5b5080359060208101359060ff6040820135169060608101359060800135610334565b6101276004803603602081101561017757600080fd5b50356103cc565b61018661041e565b604080519115158252519081900360200190f35b610127600480360360608110156101b057600080fd5b5080356001600160a01b03908116916020810135909116906040013563ffffffff16610427565b6101df6104ce565b60408051918252519081900360200190f35b6101276104d4565b61020161056b565b604080516001600160a01b039092168252519081900360200190f35b6101866004803603602081101561023357600080fd5b503561057a565b61020161058d565b61020161059c565b6101866004803603602081101561026057600080fd5b50356105ab565b6101276004803603602081101561027d57600080fd5b50356001600160a01b03166105b6565b6101df6106a3565b6002546040805163d505accf60e01b8152336004820152306024820152604481018890526064810187905260ff8616608482015260a4810185905260c4810184905290516001600160a01b039092169163d505accf9160e48082019260009290919082900301818387803b15801561030c57600080fd5b505af1158015610320573d6000803e3d6000fd5b5050505061032d856106a9565b5050505050565b6003546040805163d505accf60e01b8152336004820152306024820152604481018890526064810187905260ff8616608482015260a4810185905260c4810184905290516001600160a01b039092169163d505accf9160e48082019260009290919082900301818387803b1580156103ab57600080fd5b505af11580156103bf573d6000803e3d6000fd5b5050505061032d856106e3565b6000546001600160a01b03163314610419576040805162461bcd60e51b81526020600482018190526024820152600080516020610d07833981519152604482015290519081900360640190fd5b600155565b60065460ff1681565b6000546001600160a01b03163314610474576040805162461bcd60e51b81526020600482018190526024820152600080516020610d07833981519152604482015290519081900360640190fd5b60065460ff161561048457600080fd5b600280546001600160a01b039485166001600160a01b031991821617909155600380549390941692169190911790915563ffffffff1660019081556006805460ff19169091179055565b60045481565b6000546001600160a01b03163314610521576040805162461bcd60e51b81526020600482018190526024820152600080516020610d07833981519152604482015290519081900360640190fd5b600080546040516001600160a01b03909116907f8be0079c531659141344cd1fd0a4f28419497f9722a3daafe3b4186f6b6457e0908390a3600080546001600160a01b0319169055565b6000546001600160a01b031690565b6000610585826106a9565b506001919050565b6003546001600160a01b031681565b6002546001600160a01b031681565b6000610585826106e3565b6000546001600160a01b03163314610603576040805162461bcd60e51b81526020600482018190526024820152600080516020610d07833981519152604482015290519081900360640190fd5b6001600160a01b0381166106485760405162461bcd60e51b8152600401808060200182810382526026815260200180610ce16026913960400191505060405180910390fd5b600080546040516001600160a01b03808516939216917f8be0079c531659141344cd1fd0a4f28419497f9722a3daafe3b4186f6b6457e091a3600080546001600160a01b0319166001600160a01b0392909216919091179055565b60015481565b6106b161071a565b6002546106c9906001600160a01b03163330846108b4565b6003546106e0906001600160a01b03163383610914565b50565b6106eb61071a565b600354610703906001600160a01b03163330846108b4565b6002546106e0906001600160a01b03163383610914565b43600554116108b257600354600480546040805163bc4f2d6d60e01b815292830191909152516001600160a01b039092169163bc4f2d6d916024808201926020929091908290030181600087803b15801561077457600080fd5b505af1158015610788573d6000803e3d6000fd5b505050506040513d602081101561079e57600080fd5b5050600254604080516370a0823160e01b815230600482015290516000926001600160a01b0316916370a08231916024808301926020929190829003018186803b1580156107eb57600080fd5b505afa1580156107ff573d6000803e3d6000fd5b505050506040513d602081101561081557600080fd5b505160035460408051639358928b60e01b815290519293506000926001600160a01b0390921691639358928b91600480820192602092909190829003018186803b15801561086257600080fd5b505afa158015610876573d6000803e3d6000fd5b505050506040513d602081101561088c57600080fd5b5051905061089a828261096b565b6004556001546005546108ac916109b4565b60055550505b565b604080516001600160a01b0380861660248301528416604482015260648082018490528251808303909101815260849091019091526020810180516001600160e01b03166323b872dd60e01b17905261090e908590610a0e565b50505050565b604080516001600160a01b038416602482015260448082018490528251808303909101815260649091019091526020810180516001600160e01b031663a9059cbb60e01b179052610966908490610a0e565b505050565b60006109ad83836040518060400160405280601e81526020017f536166654d6174683a207375627472616374696f6e206f766572666c6f770000815250610abf565b9392505050565b6000828201838110156109ad576040805162461bcd60e51b815260206004820152601b60248201527f536166654d6174683a206164646974696f6e206f766572666c6f770000000000604482015290519081900360640190fd5b6060610a63826040518060400160405280602081526020017f5361666545524332303a206c6f772d6c6576656c2063616c6c206661696c6564815250856001600160a01b0316610b569092919063ffffffff16565b80519091501561096657808060200190516020811015610a8257600080fd5b50516109665760405162461bcd60e51b815260040180806020018281038252602a815260200180610d27602a913960400191505060405180910390fd5b60008184841115610b4e5760405162461bcd60e51b81526004018080602001828103825283818151815260200191508051906020019080838360005b83811015610b13578181015183820152602001610afb565b50505050905090810190601f168015610b405780820380516001836020036101000a031916815260200191505b509250505060405180910390fd5b505050900390565b6060610b658484600085610b6d565b949350505050565b6060610b7885610cda565b610bc9576040805162461bcd60e51b815260206004820152601d60248201527f416464726573733a2063616c6c20746f206e6f6e2d636f6e7472616374000000604482015290519081900360640190fd5b60006060866001600160a01b031685876040518082805190602001908083835b60208310610c085780518252601f199092019160209182019101610be9565b6001836020036101000a03801982511681845116808217855250505050505090500191505060006040518083038185875af1925050503d8060008114610c6a576040519150601f19603f3d011682016040523d82523d6000602084013e610c6f565b606091505b50915091508115610c83579150610b659050565b805115610c935780518082602001fd5b60405162461bcd60e51b8152602060048201818152865160248401528651879391928392604401919085019080838360008315610b13578181015183820152602001610afb565b3b15159056fe4f776e61626c653a206e6577206f776e657220697320746865207a65726f20616464726573734f776e61626c653a2063616c6c6572206973206e6f7420746865206f776e65725361666545524332303a204552433230206f7065726174696f6e20646964206e6f742073756363656564a264697066735822122025bccfc0320fbb4022633817a74ed191dcc0f3ffb21660c4fa99352127507bc664736f6c63430007050033",
  "devdoc": {
    "kind": "dev",
    "methods": {
      "owner()": {
        "details": "Returns the address of the current owner."
      },
      "renounceOwnership()": {
        "details": "Leaves the contract without owner. It will not be possible to call `onlyOwner` functions anymore. Can only be called by the current owner. NOTE: Renouncing ownership will leave the contract without an owner, thereby removing any functionality that is only available to the owner."
      },
      "transferOwnership(address)": {
        "details": "Transfers ownership of the contract to a new account (`newOwner`). Can only be called by the current owner."
      }
    },
    "version": 1
  },
  "userdoc": {
    "kind": "user",
    "methods": {},
    "version": 1
  },
  "storageLayout": {
    "storage": [
      {
        "astId": 392,
        "contract": "contracts/Staking/TaoStaking.sol:TaoStaking",
        "label": "_owner",
        "offset": 0,
        "slot": "0",
        "type": "t_address"
      },
      {
        "astId": 1354,
        "contract": "contracts/Staking/TaoStaking.sol:TaoStaking",
        "label": "epochLengthInBlocks",
        "offset": 0,
        "slot": "1",
        "type": "t_uint256"
      },
      {
        "astId": 1356,
        "contract": "contracts/Staking/TaoStaking.sol:TaoStaking",
        "label": "tao",
        "offset": 0,
        "slot": "2",
        "type": "t_address"
      },
      {
        "astId": 1358,
        "contract": "contracts/Staking/TaoStaking.sol:TaoStaking",
        "label": "sTAO",
        "offset": 0,
        "slot": "3",
        "type": "t_address"
      },
      {
        "astId": 1360,
        "contract": "contracts/Staking/TaoStaking.sol:TaoStaking",
        "label": "taoToDistributeNextEpoch",
        "offset": 0,
        "slot": "4",
        "type": "t_uint256"
      },
      {
        "astId": 1362,
        "contract": "contracts/Staking/TaoStaking.sol:TaoStaking",
        "label": "nextEpochBlock",
        "offset": 0,
        "slot": "5",
        "type": "t_uint256"
      },
      {
        "astId": 1364,
        "contract": "contracts/Staking/TaoStaking.sol:TaoStaking",
        "label": "isInitialized",
        "offset": 0,
        "slot": "6",
        "type": "t_bool"
      }
    ],
    "types": {
      "t_address": {
        "encoding": "inplace",
        "label": "address",
        "numberOfBytes": "20"
      },
      "t_bool": {
        "encoding": "inplace",
        "label": "bool",
        "numberOfBytes": "1"
      },
      "t_uint256": {
        "encoding": "inplace",
        "label": "uint256",
        "numberOfBytes": "32"
      }
    }
  }
}