{
  "address": "0x7F970cd42cdc84E0EdFAbD0C51A1d8c73409B710",
  "abi": [
    {
      "inputs": [],
      "stateMutability": "nonpayable",
      "type": "constructor"
    },
    {
      "inputs": [],
      "name": "BUSD",
      "outputs": [
        {
          "internalType": "address",
          "name": "",
          "type": "address"
        }
      ],
      "stateMutability": "view",
      "type": "function"
    },
    {
      "inputs": [],
      "name": "DAO",
      "outputs": [
        {
          "internalType": "address",
          "name": "",
          "type": "address"
        }
      ],
      "stateMutability": "view",
      "type": "function"
    },
    {
      "inputs": [],
      "name": "TAO",
      "outputs": [
        {
          "internalType": "address",
          "name": "",
          "type": "address"
        }
      ],
      "stateMutability": "view",
      "type": "function"
    },
    {
      "inputs": [],
      "name": "blocksInEpoch",
      "outputs": [
        {
          "internalType": "uint256",
          "name": "",
          "type": "uint256"
        }
      ],
      "stateMutability": "view",
      "type": "function"
    },
    {
      "inputs": [
        {
          "internalType": "uint256",
          "name": "_amountToConvert",
          "type": "uint256"
        }
      ],
      "name": "convertBUSDToTAO",
      "outputs": [
        {
          "internalType": "bool",
          "name": "",
          "type": "bool"
        }
      ],
      "stateMutability": "nonpayable",
      "type": "function"
    },
    {
      "inputs": [],
      "name": "distribute",
      "outputs": [
        {
          "internalType": "bool",
          "name": "",
          "type": "bool"
        }
      ],
      "stateMutability": "nonpayable",
      "type": "function"
    },
    {
      "inputs": [],
      "name": "getCurrentRewardForNextEpoch",
      "outputs": [
        {
          "internalType": "uint256",
          "name": "",
          "type": "uint256"
        }
      ],
      "stateMutability": "view",
      "type": "function"
    },
    {
      "inputs": [
        {
          "internalType": "uint256",
          "name": "_nextEpochBlock",
          "type": "uint256"
        },
        {
          "internalType": "uint256",
          "name": "_blocksInEpoch",
          "type": "uint256"
        },
        {
          "internalType": "uint256",
          "name": "_rewardRate",
          "type": "uint256"
        },
        {
          "internalType": "address",
          "name": "_vault",
          "type": "address"
        },
        {
          "internalType": "address",
          "name": "_stakingContract",
          "type": "address"
        },
        {
          "internalType": "address",
          "name": "_TAO",
          "type": "address"
        },
        {
          "internalType": "address",
          "name": "_BUSD",
          "type": "address"
        },
        {
          "internalType": "address",
          "name": "_DAO",
          "type": "address"
        }
      ],
      "name": "initialize",
      "outputs": [
        {
          "internalType": "bool",
          "name": "",
          "type": "bool"
        }
      ],
      "stateMutability": "nonpayable",
      "type": "function"
    },
    {
      "inputs": [],
      "name": "isInitialized",
      "outputs": [
        {
          "internalType": "bool",
          "name": "",
          "type": "bool"
        }
      ],
      "stateMutability": "view",
      "type": "function"
    },
    {
      "inputs": [],
      "name": "nextEpochBlock",
      "outputs": [
        {
          "internalType": "uint256",
          "name": "",
          "type": "uint256"
        }
      ],
      "stateMutability": "view",
      "type": "function"
    },
    {
      "inputs": [],
      "name": "owner",
      "outputs": [
        {
          "internalType": "address",
          "name": "",
          "type": "address"
        }
      ],
      "stateMutability": "view",
      "type": "function"
    },
    {
      "inputs": [],
      "name": "rewardRate",
      "outputs": [
        {
          "internalType": "uint256",
          "name": "",
          "type": "uint256"
        }
      ],
      "stateMutability": "view",
      "type": "function"
    },
    {
      "inputs": [
        {
          "internalType": "uint256",
          "name": "_blocksInEpoch",
          "type": "uint256"
        }
      ],
      "name": "setBlocksInEpoch",
      "outputs": [
        {
          "internalType": "bool",
          "name": "",
          "type": "bool"
        }
      ],
      "stateMutability": "nonpayable",
      "type": "function"
    },
    {
      "inputs": [
        {
          "internalType": "uint256",
          "name": "_rewardRate",
          "type": "uint256"
        }
      ],
      "name": "setRewardRate",
      "outputs": [
        {
          "internalType": "bool",
          "name": "",
          "type": "bool"
        }
      ],
      "stateMutability": "nonpayable",
      "type": "function"
    },
    {
      "inputs": [
        {
          "internalType": "address",
          "name": "_staking",
          "type": "address"
        }
      ],
      "name": "setStaking",
      "outputs": [
        {
          "internalType": "bool",
          "name": "",
          "type": "bool"
        }
      ],
      "stateMutability": "nonpayable",
      "type": "function"
    },
    {
      "inputs": [
        {
          "internalType": "address",
          "name": "_vault",
          "type": "address"
        }
      ],
      "name": "setVault",
      "outputs": [
        {
          "internalType": "bool",
          "name": "",
          "type": "bool"
        }
      ],
      "stateMutability": "nonpayable",
      "type": "function"
    },
    {
      "inputs": [],
      "name": "stakingContract",
      "outputs": [
        {
          "internalType": "address",
          "name": "",
          "type": "address"
        }
      ],
      "stateMutability": "view",
      "type": "function"
    },
    {
      "inputs": [],
      "name": "transferBUSDToDAO",
      "outputs": [
        {
          "internalType": "bool",
          "name": "",
          "type": "bool"
        }
      ],
      "stateMutability": "nonpayable",
      "type": "function"
    },
    {
      "inputs": [
        {
          "internalType": "address",
          "name": "_owner",
          "type": "address"
        }
      ],
      "name": "transferOwnership",
      "outputs": [
        {
          "internalType": "bool",
          "name": "",
          "type": "bool"
        }
      ],
      "stateMutability": "nonpayable",
      "type": "function"
    },
    {
      "inputs": [],
      "name": "transferTAOToDAO",
      "outputs": [
        {
          "internalType": "bool",
          "name": "",
          "type": "bool"
        }
      ],
      "stateMutability": "nonpayable",
      "type": "function"
    },
    {
      "inputs": [],
      "name": "vault",
      "outputs": [
        {
          "internalType": "address",
          "name": "",
          "type": "address"
        }
      ],
      "stateMutability": "view",
      "type": "function"
    }
  ],
  "transactionHash": "0x482049c32b5d979424528e6ac5f48783f3ad1a57496b51efc9b8c61e06a12d25",
  "args": [],
  "solcInputHash": "3a95ab78de39ed3485f061359a8e7b5e",
  "bytecode": "0x608060405234801561001057600080fd5b50600080546001600160a01b03191633179055610e0d806100326000396000f3fe608060405234801561001057600080fd5b50600436106101365760003560e01c806398fabd3a116100b8578063de31d5331161007c578063de31d533146102ae578063e4fc6b6d146102cb578063ee99205c146102d3578063f1a9a733146102db578063f2fde38b146102e3578063fbfa77cf1461030957610136565b806398fabd3a146102095780639e447fc614610211578063b41364cb1461022e578063c4e34aba14610289578063d3c6d9f61461029157610136565b80636817031b116100ff5780636817031b146101a55780637b0a47ee146101cb5780638b2390b0146101d35780638da5cb5b146101db5780638ff39099146101e357610136565b8062640c2e1461013b57806316e17852146101555780633087be0b14610179578063392e53cd14610195578063484f4ea91461019d575b600080fd5b610143610311565b60408051918252519081900360200190f35b61015d610317565b604080516001600160a01b039092168252519081900360200190f35b610181610326565b604080519115158252519081900360200190f35b6101816103da565b61015d6103e3565b610181600480360360208110156101bb57600080fd5b50356001600160a01b03166103f2565b61014361042d565b610181610433565b61015d6104e1565b610181600480360360208110156101f957600080fd5b50356001600160a01b03166104f0565b61015d61052d565b6101816004803603602081101561022757600080fd5b503561053c565b610181600480360361010081101561024557600080fd5b508035906020810135906040810135906001600160a01b036060820135811691608081013582169160a082013581169160c081013582169160e0909101351661055d565b610143610600565b610181600480360360208110156102a757600080fd5b5035610606565b610181600480360360208110156102c457600080fd5b5035610627565b610181610746565b61015d61089e565b6101436108ad565b610181600480360360208110156102f957600080fd5b50356001600160a01b031661090e565b61015d61094b565b60065481565b6002546001600160a01b031681565b600080546001600160a01b0316331461033e57600080fd5b60048054600354604080516370a0823160e01b81523094810194909452516103d4936001600160a01b0393841693909216916370a08231916024808301926020929190829003018186803b15801561039557600080fd5b505afa1580156103a9573d6000803e3d6000fd5b505050506040513d60208110156103bf57600080fd5b50516003546001600160a01b0316919061095a565b50600190565b60095460ff1681565b6003546001600160a01b031681565b600080546001600160a01b0316331461040a57600080fd5b50600180546001600160a01b0383166001600160a01b0319909116178155919050565b60085481565b600080546001600160a01b0316331461044b57600080fd5b60048054600254604080516370a0823160e01b81523094810194909452516103d4936001600160a01b0393841693909216916370a08231916024808301926020929190829003018186803b1580156104a257600080fd5b505afa1580156104b6573d6000803e3d6000fd5b505050506040513d60208110156104cc57600080fd5b50516002546001600160a01b0316919061095a565b6000546001600160a01b031681565b600080546001600160a01b0316331461050857600080fd5b50600580546001600160a01b0383166001600160a01b03199091161790556001919050565b6004546001600160a01b031681565b600080546001600160a01b0316331461055457600080fd5b50600855600190565b600080546001600160a01b0316331461057557600080fd5b60095460ff161561058557600080fd5b50600688905560078790556008869055600180546001600160a01b038088166001600160a01b031992831617835560058054888316908416179055600280548783169084161790556003805486831690841617905560048054918516919092161790556009805460ff19168217905598975050505050505050565b60075481565b600080546001600160a01b0316331461061e57600080fd5b50600755600190565b600080546001600160a01b0316331461063f57600080fd5b6003546001546040805163095ea7b360e01b81526001600160a01b039283166004820152602481018690529051919092169163095ea7b39160448083019260209291908290030181600087803b15801561069857600080fd5b505af11580156106ac573d6000803e3d6000fd5b505050506040513d60208110156106c257600080fd5b505060015460408051637750446f60e01b81526004810185905290516001600160a01b0390921691637750446f916024808201926020929091908290030181600087803b15801561071257600080fd5b505af1158015610726573d6000803e3d6000fd5b505050506040513d602081101561073c57600080fd5b5060019392505050565b600060065443106103d457600754600654610760916109b1565b60068190555060006107fa6127106107f4600854600260009054906101000a90046001600160a01b03166001600160a01b03166318160ddd6040518163ffffffff1660e01b815260040160206040518083038186803b1580156107c257600080fd5b505afa1580156107d6573d6000803e3d6000fd5b505050506040513d60208110156107ec57600080fd5b505190610a14565b90610a6d565b60055460025491925061081a916001600160a01b0390811691168361095a565b600554604080516325fe1add60e21b815260006004820181905291516001600160a01b03909316926397f86b7492602480840193602093929083900390910190829087803b15801561086b57600080fd5b505af115801561087f573d6000803e3d6000fd5b505050506040513d602081101561089557600080fd5b50505050600190565b6005546001600160a01b031681565b60006109096127106107f4600854600260009054906101000a90046001600160a01b03166001600160a01b03166318160ddd6040518163ffffffff1660e01b815260040160206040518083038186803b1580156107c257600080fd5b905090565b600080546001600160a01b0316331461092657600080fd5b50600080546001600160a01b0383166001600160a01b03199091161790556001919050565b6001546001600160a01b031681565b604080516001600160a01b038416602482015260448082018490528251808303909101815260649091019091526020810180516001600160e01b031663a9059cbb60e01b1790526109ac908490610aaf565b505050565b600082820183811015610a0b576040805162461bcd60e51b815260206004820152601b60248201527f536166654d6174683a206164646974696f6e206f766572666c6f770000000000604482015290519081900360640190fd5b90505b92915050565b600082610a2357506000610a0e565b82820282848281610a3057fe5b0414610a0b5760405162461bcd60e51b8152600401808060200182810382526021815260200180610d8d6021913960400191505060405180910390fd5b6000610a0b83836040518060400160405280601a81526020017f536166654d6174683a206469766973696f6e206279207a65726f000000000000815250610b60565b6060610b04826040518060400160405280602081526020017f5361666545524332303a206c6f772d6c6576656c2063616c6c206661696c6564815250856001600160a01b0316610c029092919063ffffffff16565b8051909150156109ac57808060200190516020811015610b2357600080fd5b50516109ac5760405162461bcd60e51b815260040180806020018281038252602a815260200180610dae602a913960400191505060405180910390fd5b60008183610bec5760405162461bcd60e51b81526004018080602001828103825283818151815260200191508051906020019080838360005b83811015610bb1578181015183820152602001610b99565b50505050905090810190601f168015610bde5780820380516001836020036101000a031916815260200191505b509250505060405180910390fd5b506000838581610bf857fe5b0495945050505050565b6060610c118484600085610c19565b949350505050565b6060610c2485610d86565b610c75576040805162461bcd60e51b815260206004820152601d60248201527f416464726573733a2063616c6c20746f206e6f6e2d636f6e7472616374000000604482015290519081900360640190fd5b60006060866001600160a01b031685876040518082805190602001908083835b60208310610cb45780518252601f199092019160209182019101610c95565b6001836020036101000a03801982511681845116808217855250505050505090500191505060006040518083038185875af1925050503d8060008114610d16576040519150601f19603f3d011682016040523d82523d6000602084013e610d1b565b606091505b50915091508115610d2f579150610c119050565b805115610d3f5780518082602001fd5b60405162461bcd60e51b8152602060048201818152865160248401528651879391928392604401919085019080838360008315610bb1578181015183820152602001610b99565b3b15159056fe536166654d6174683a206d756c7469706c69636174696f6e206f766572666c6f775361666545524332303a204552433230206f7065726174696f6e20646964206e6f742073756363656564a264697066735822122029f4e9fe6242ad184369fc93b5d76072fdfb0cbbb0d2b0f2c34fe866f922101564736f6c63430007040033",
  "devdoc": {
    "kind": "dev",
    "methods": {},
    "version": 1
  },
  "userdoc": {
    "kind": "user",
    "methods": {},
    "version": 1
  },
  "storageLayout": {
    "storage": [
      {
        "astId": 1126,
        "contract": "contracts/Staking/TaoStakingDistributor.sol:TaoStakingDistributor",
        "label": "owner",
        "offset": 0,
        "slot": "0",
        "type": "t_address"
      },
      {
        "astId": 1128,
        "contract": "contracts/Staking/TaoStakingDistributor.sol:TaoStakingDistributor",
        "label": "vault",
        "offset": 0,
        "slot": "1",
        "type": "t_address"
      },
      {
        "astId": 1130,
        "contract": "contracts/Staking/TaoStakingDistributor.sol:TaoStakingDistributor",
        "label": "TAO",
        "offset": 0,
        "slot": "2",
        "type": "t_address"
      },
      {
        "astId": 1132,
        "contract": "contracts/Staking/TaoStakingDistributor.sol:TaoStakingDistributor",
        "label": "BUSD",
        "offset": 0,
        "slot": "3",
        "type": "t_address"
      },
      {
        "astId": 1134,
        "contract": "contracts/Staking/TaoStakingDistributor.sol:TaoStakingDistributor",
        "label": "DAO",
        "offset": 0,
        "slot": "4",
        "type": "t_address"
      },
      {
        "astId": 1136,
        "contract": "contracts/Staking/TaoStakingDistributor.sol:TaoStakingDistributor",
        "label": "stakingContract",
        "offset": 0,
        "slot": "5",
        "type": "t_address"
      },
      {
        "astId": 1138,
        "contract": "contracts/Staking/TaoStakingDistributor.sol:TaoStakingDistributor",
        "label": "nextEpochBlock",
        "offset": 0,
        "slot": "6",
        "type": "t_uint256"
      },
      {
        "astId": 1140,
        "contract": "contracts/Staking/TaoStakingDistributor.sol:TaoStakingDistributor",
        "label": "blocksInEpoch",
        "offset": 0,
        "slot": "7",
        "type": "t_uint256"
      },
      {
        "astId": 1142,
        "contract": "contracts/Staking/TaoStakingDistributor.sol:TaoStakingDistributor",
        "label": "rewardRate",
        "offset": 0,
        "slot": "8",
        "type": "t_uint256"
      },
      {
        "astId": 1144,
        "contract": "contracts/Staking/TaoStakingDistributor.sol:TaoStakingDistributor",
        "label": "isInitialized",
        "offset": 0,
        "slot": "9",
        "type": "t_bool"
      }
    ],
    "types": {
      "t_address": {
        "encoding": "inplace",
        "label": "address",
        "numberOfBytes": "20"
      },
      "t_bool": {
        "encoding": "inplace",
        "label": "bool",
        "numberOfBytes": "1"
      },
      "t_uint256": {
        "encoding": "inplace",
        "label": "uint256",
        "numberOfBytes": "32"
      }
    }
  }
}